:04000000AAEF00F073
:10000800FACF38F0FBCF39F0E9CF3AF0F9EF03F047
:10001800D8CF05F0E8CF06F0E0CF07F0FACF08F028
:10002800FBCF09F0E9CF0AF0EACF0BF0E1CF0CF0F3
:10003800E2CF0DF0D9CF0EF0DACF0FF0F3CF10F0FA
:10004800F4CF11F0F6CF12F0F7CF13F0F8CF14F089
:10005800F5CF15F0F2A034D0CBEC08F0166E525064
:10006800D8B429D0000E0BEC0AF01650D8B40ED034
:10007800080E00019D19D8A41BD0110E566E000E53
:10008800046E640E036E92EC09F012D00A0E0001A1
:100098009D19D8B404D0010E0001966F09D0120E34
:1000A800566E000E046E460E036E92EC09F000D0F8
:1000B800000E526E03D03CEC0AF000D0F29023D030
:1000C8009EA21FD04C504E5C4D504F58D8A014D013
:1000D800000E0BEC0AF0110E5618D8A402D00A0E26
:1000E80005D0120E5618D8A40AD0080E00019D6F2C
:1000F800010E00019A6F03D04E4A4F2A00D09E92FB
:1001080002D000F000D015C0F5FF14C0F8FF13C0EE
:10011800F7FF12C0F6FF11C0F4FF10C0F3FF0FC0C5
:10012800DAFF0EC0D9FF0DC0E2FF0CC0E1FF0BC023
:10013800EAFF0AC0E9FF09C0FBFF08C0FAFF07C0D1
:10014800E0FF06C0E8FF05C0D8FF1000B3EF07F0D6
:1004000000504342207265764100420315005000BF
:100410001600500015004E004F001A0016004E0046
:100420004E001B0015004F004C00190017004F0034
:100430004B001B00150051004B0019001600510025
:1004400016004F001600500018004F004D00190014
:100450004C001B0015005000150051001500500005
:10046000160050001600510016004F0016000080C4
:100470003F72313FFE753E58633D951D3CC5AE3A17
:1004800079213994803793A7355615340000000040
:10049000803FF0FFBEE2A93E8376BEAE2B3E3CC35A
:1004A000BDD2133D78D3BB00000E316E000E326E0C
:1004B000000E336E000E346E000E356E000E366E7A
:1004C000080E00019D19D8A4CFD0000E376EC6D0FB
:1004D0003750D8A43FD03750020D000EF324D96E08
:1004E000020EF420DA6EDECF1FF0DDCF20F051ECEB
:1004F00009F01FC022F020C023F021C024F0330EE9
:10050000256E730E266E3F0E276EA1EC04F022C0FE
:1005100031F023C032F024C033F03750020D000E0A
:10052000F324D96E020EF420DA6EDECF1FF0DDCF99
:1005300020F051EC09F01FC022F020C023F021C0B0
:1005400024F0660E256E860E266E3F0E276EA1ECF9
:1005500004F03ED03750020D000EF324D96E020E87
:10056000F420DA6EDECF1FF0DDCF20F051EC09F081
:100570001FC022F020C023F021C024F0000E256E01
:10058000000E266E3F0E276EA1EC04F022C031F063
:1005900023C032F024C033F03750020D000EF32494
:1005A000D96E020EF420DA6EDECF1FF0DDCF20F020
:1005B00051EC09F01FC022F020C023F021C024F02C
:1005C000000E256EC00E266E3F0E276EA1EC04F0C5
:1005D00022C034F023C035F024C036F03750020D6D
:1005E000000EF324D96E010EF420DA6EDECF1FF078
:1005F000DDCF20F051EC09F01FC022F020C023F025
:1006000021C024F031C025F032C026F033C027F0DD
:1006100002EC07F0D8A01ED034C022F035C023F081
:1006200036C024F03750020D000EF324D96E010EAF
:10063000F420DA6EDECF1FF0DDCF20F051EC09F0B0
:100640001FC025F020C026F021C027F002EC07F0E3
:10065000D8B002D0000E1200372A00D05450375CB8
:10066000D8A036D7010E1200130E556416D0000E16
:100670001D6E010E1E6E000E1F6E020E206E000E0D
:10068000226E780E216E000E246E000E236EB2ECE8
:1006900006F05A0E00019C6F00D0010E12001200ED
:1006A00082C084F00001856B866B000181350001FA
:1006B000843701E385810001845100018E6F0001C0
:1006C0008E51D8A40AD0000E0001806F000E816FF9
:1006D000000E826F000E836F1200170E0001846FF0
:1006E00080C085F081C086F082C087F00001842937
:1006F0000001886F05D00001D89087338633853399
:100700000001882FF8D7000185510001896F000191
:10071000818FFF0E00018017FF0E00018117000E70
:10072000000182170001805100018A6F0001815190
:1007300000018B6F0001825100018C6F00018D6BF5
:100740008E0E00018E5F00018EAF1BD000018E5116
:10075000800A8F0FD8B00BD0000E0001806F000E02
:10076000816F000E826F000E836F120000D00001B7
:10077000D8908D338C338B338A3300018E3FF7D77B
:100780001FD0170E00018E6514D0000E0001806F7F
:10079000000E816F000E826F000E836F120009D071
:1007A0000001D8908A378B378C378D3700018E0740
:1007B00000D000018E510001D8B402D0F1D700D092
:1007C000000189510001D8B40AD000018D1F8C1F8F
:1007D0008B1F8A6D000E8B238C238D2300D08AC043
:1007E00080F08BC081F08CC082F08DC083F012004D
:1007F0001200EACF3BF0E1CF3CF0E2CF3DF0D9CFA1
:100800003EF0DACF3FF0F3CF40F0F4CF41F0F6CF37
:1008100042F0F7CF43F0F8CF44F0F5CF45F0000EAB
:10082000476E000E466EF0B002D0F0A260D026EC0B
:100830000AF00009D8A403D014EC0AF055D0D6CFA2
:1008400046F0476AD75047265350D8A423D0080E05
:1008500000019D19D8A40FD04A50465C4B50475810
:10086000D8A018D04650485C47504958D8A012D05C
:10087000010E536E0FD0900E465C010E4758D8A063
:1008800009D0E90E465C030E4758D8B003D0010EDC
:10089000536E00D05350D8B424D0780E55601BD07E
:1008A0005550020D000EF324D96E010EF420DA6EBD
:1008B00046C0DEFF47C0DDFF552A5450555CD8A026
:1008C00010D054EC02F00001996F000E1DEC0AF0FC
:1008D00037EC0AF006D0000E1DEC0AF037EC0AF0F7
:1008E00000D03EEC09F000D0F090F0920DD0F2A4D0
:1008F00009D0000E1DEC0AF03EEC09F037EC0AF0CE
:10090000F29402D000F000D045C0F5FF44C0F8FFDB
:1009100043C0F7FF42C0F6FF41C0F4FF40C0F3FF01
:100920003FC0DAFF3EC0D9FF3DC0E2FF3CC0E1FF5F
:100930003BC0EAFF3AC0E9FF39C0FBFF38C0FAFF0D
:10094000110024C028F0296A2A6A2334283601E3DA
:10095000298028502B6E2B50D8A407D0000E226E71
:10096000000E236E000E246E120027C028F0296AA4
:100970002A6A2634283601E329802850306E305008
:10098000D8A407D0000E226E000E236E000E246E37
:10099000120030507B0F2B2624C030F02750301A25
:1009A000800E3016238E268EFF0E2516FF0E26167D
:1009B000000E2716000E2C6E000E2D6E000E2E6EF1
:1009C000070E2F6E00D022A007D025502C262650CF
:1009D0002D2227502E2200D0D890243223322232CA
:1009E000D8902536263627362F2EEDD700D0090E83
:1009F0002F6E00D022A007D025502C2626502D2265
:100A000027502E2200D0D890243223322232D89080
:100A10002E322D322C322F2EEDD700D02CC017F0D5
:100A20002DC018F02EC019F02BC01AF030C01BF0EA
:100A30009AEC05F017C022F018C023F019C024F07A
:100A40001200120040EC0AF074EC08F0E6EC08F03A
:100A50005C0E00019C19D8A40AD05BEC06F0000ED5
:100A600000018E6F0F0E8D6F0CEC08F03FD0000E62
:100A700000018E6F040E8D6F0CEC08F037D036D06D
:100A8000080E00019D19D8A433D000019A51D8B4A2
:100A900015D08B985A0E00019C19D8A40BD0000ECB
:100AA00000018E6F040E8D6F0CEC08F05B0E0001E0
:100AB0009C6F00D0000E00019A6F00D00001995188
:100AC000D8A408D000019851D8A404D000019651B0
:100AD000D8B4D6D78B884DEC07F0000E0001996F83
:100AE000000E0001986F000E0001966F8B98C8D71A
:100AF0000A0E00019D19D8A4C3D7190E0001846FF6
:100B0000000E856F000E866F000E876F81EC07F078
:100B1000100E8B1A00019951D8B4B2D7000E000103
:100B2000996F080E00019D6F010E00019A6FA8D702
:100B3000AAEF00F01A50D8B405D0175018101910A9
:100B4000D8A40ED0000E176E000E186E000E196E8F
:100B5000120006D01A2AD89019321832173200D053
:100B6000000E17141C6E000E18141D6EFE0E1914C4
:100B70001E6E1C501D101E10D8B40ED0EBD70CD01A
:100B80001A2A010E1726000E1822000E1922D890DC
:100B900019321832173200D0000E17141C6E000ED6
:100BA00018141D6EFF0E19141E6E1C501D101E1001
:100BB000D8B408D0E5D706D01A06D890173618361C
:100BC000193600D018BE04D0020E1A60F5D700D036
:100BD0001AB002D0189E00D0D8901A321A501912AA
:100BE0001B50D8B402D0198E00D017C017F018C00F
:100BF00018F019C019F012001200000E00018F6FDA
:100C0000000E8E6F88C080F089C081F08AC082F0AB
:100C10008BC083F0E1EC07F08CC08EF08DC08FF0BC
:100C200000018E5100018F11D8B432D001D030D0E4
:100C300088C0D9FF89C0DAFF200EDE6E000EDD6E9F
:100C4000020E00018827000E892300018E07D8A01C
:100C50008F07E6D71DD086C0F6FF87C0F7FF88C094
:100C6000D9FF89C0DAFF0900F5CFDEFF0800F5CF14
:100C7000DDFF020E00018627000E8723020E000111
:100C80008827000E892300018A07D8A08B0700D08F
:100C900086C0F6FF87C0F7FF0900F5500900F51080
:100CA000D8B4120000018A5100018B11D8B412008F
:100CB000D2D712001200000E0001906F000E00014A
:100CC000916F000E0001926F000E0001936F000EF5
:100CD0000001946F000E0001956FE00E0001906F0F
:100CE000490E0001916F440E0001926F200E000129
:100CF000936F5F0E0001946F440E0001956F90C0DA
:100D000080F091C081F092C082F050EC03F080C07E
:100D10004AF081C04BF093C080F094C081F095C040
:100D200082F050EC03F080C048F081C049F00A0E18
:100D30000001866F040E0001876F000E0001886FAE
:100D4000020E0001896F000E00018B6F320E8A6F58
:100D5000000E00018D6F000E8C6FFDEC05F0320E61
:100D6000546E1200000E286E000E276E1FC017F082
:100D700020C018F021C019F022C01AF036EC08F09B
:100D800023C027F024C028F027502810D8B42BD037
:100D900001D029D01FC0D9FF20C0DAFF200EDE6E9F
:100DA000000EDD6E020E1F26000E20222706D8A0A0
:100DB0002806EAD718D01DC0D9FF1EC0DAFF1FC011
:100DC000E1FF20C0E2FFDECFE6FFDDCFE5FF020E50
:100DD0001D26000E1E22020E1F26000E20222106B6
:100DE000D8A0220600D01DC0D9FF1EC0DAFFDE50F9
:100DF000DE10D8B4120021502210D8B41200DBD774
:100E00001200120024AE17D022C028F023C029F00F
:100E100024C02AF0281E291E2A1E282A000E292254
:100E20002A22000E2824226E000E2920236E800E16
:100E30002A20246E00D027AE17D025C028F026C067
:100E400029F027C02AF0281E291E2A1E282A000E53
:100E500029222A22000E2824256E000E2920266E23
:100E6000800E2A20276E00D0000E221A000E231AB0
:100E7000800E241A000E251A000E261A800E271A3C
:100E80002550225C2650235827502458D8B002D031
:100E9000D8901200D8801200120000019751000172
:100EA000D8A413D0000EABEC09F0010E9FEC09F0B2
:100EB000640E0001846F000E856F000E866F000EB9
:100EC000876F81EC07F0010E12D0010EABEC09F038
:100ED000000E9FEC09F0640E0001846F000E856F18
:100EE000000E866F000E876F81EC07F0000E000188
:100EF000976F00D0000EABEC09F0000E9FEC09F0EC
:100F00001200000E0001896F000E8A6F000E8B6FB9
:100F1000000E8C6F0FD0000E0001816FA20E806F4B
:100F2000FDEC08F0010E00018927000E8A238B23B7
:100F30008C2300D0000184510001895D000185519E
:100F400000018A590001865100018B5900018C5122
:100F5000800A0001886F00018751800A00018859CA
:100F6000D8A0D9D7120002EE00F0F00EEE6AE80623
:100F7000FDE101EE00F0F00EEE6AE806FDE1000191
:100F80009A6B996B986B976B966B00EE48F00F0E0F
:100F9000EE6AE806FDE1880EF66E140EF76E000E9E
:100FA000F86E0900F5CF9BF00900F5CF9CF0090021
:100FB000F5CF9DF0000EF86E040EF76E000122EFE3
:100FC00005F0000E0001856F000E846F000E000119
:100FD000856F000E846F15D0D89000018435D96ECE
:100FE00000018535DA6E00018051D926000181515A
:100FF000DA22000EDE6E000EDD6E0001844B852BC2
:1010000000D0000182510001845D00018351000184
:101010008559D8A0E1D71200000E0001926F000E92
:10102000916F11D0320E0001846F000E856F000E9B
:10103000866F000E876F81EC07F0100E8B1A00018F
:10104000914B922B00D08DC08FF08EC090F0D89035
:1010500000018F37903700018F510001915D000131
:10106000905100019259D8A0DDD71200000E1C6EDD
:10107000000E1B6E000E1C6E000E1B6E10D0D89062
:101080001B34D96E1C34DA6E1750D9261850DA2268
:10109000000EDE6E000EDD6E1B4A1C2A00D01950B9
:1010A0001B5C1A501C58D8A0EAD71200010EF3ECB2
:1010B00009F0020E92EC08F0000E0001806F010EA4
:1010C0000001816F000E0001836F780E826FE1ECEA
:1010D00007F0010EE7EC09F0F08CF08EF18AF19840
:1010E000010E84EC09F01200000E896E000E8A6E6B
:1010F000000E8B6EC150F00B0D09C16E948094826E
:10110000928092829294929A9382938493969494EA
:101110009486949A949893809388938A9286949CC8
:10112000949E12000001806F000180510001D8A43C
:1011300003D08B9C8B9E120000018005D8A403D0A5
:101140008B8C8B9E1200020E00018019D8A403D054
:101150008B9C8B8E12008B8C8B8E1200120081CF99
:1011600080F0000180BB0BD000019B51D8A402D0BD
:10117000010E526E010E00019B6F010E1200000164
:101180009B05D8A402D0010E526E000E00019B6F89
:10119000000E1200120081CF01F001BA0BD0000145
:1011A0009B51D8A402D0010E526E010E00019B6F1C
:1011B000010E120000019B05D8A402D0010E526E50
:1011C000000E00019B6F000E120012002DEC0AF0C1
:1011D00056EC08F032EC0AF047EC0AF046EC0AF064
:1011E00042EC0AF048EC0AF049EC0AF0AFEC08F0E7
:1011F000F290D08EF28EF28C1200000E0001836FFE
:10120000000E826F05D000F00001824B832B00D0CE
:10121000000180510001825D00018151000183596C
:10122000D8A0F1D71200000ED5BE010E0001816FCB
:10123000000EDBEC09F0000ED76E020ED66E000138
:1012400081510001D8B41200010EDBEC09F012004C
:101250001200000ECAB4010E026E000E0BEC0AF072
:10126000000E4F6E000E4E6E000ECC6E0250D8B4C3
:101270001200010E0BEC0AF012001200000ED5BE97
:10128000010E186E000E1DEC0AF0000ED76E020E55
:10129000D66E1850D8B41200010E1DEC0AF01200E0
:1012A00012001FC017F020C018F0196A8E0E1A6EB7
:1012B000000E1B6E9AEC05F017C01FF018C020F04E
:1012C00019C021F012001200000EDBEC09F013EC43
:1012D00009F0D59CD59AD596D550F80B0309D56E53
:1012E000F184010ECFEC09F01200000EC3EC09F0FE
:1012F000CA86CA88CA8ACA8C030ECA129F92CB6851
:10130000010EB7EC09F012000001806F000180515E
:101310000001D8B403D0F086F0881200F096F0985F
:1013200012001200000E0BEC0AF003C04CF004C0D7
:101330004DF029EC09F0010E0BEC0AF0120000014F
:10134000806F000180510001D8B402D08B8412005C
:101350008B94120012000001806F00018051000187
:10136000D8B402D08A8612008A96120012000001B8
:10137000806F000180510001D8B402D09D8212001C
:101380009D92120012000001806F00018051000147
:10139000D8B402D0CA841200CA941200120000010C
:1013A000806F000180510001D8B402D0F28A12008F
:1013B000F29A120012000001806F000180510001BA
:1013C000D8B402D0D58E1200D59E120012000001B2
:1013D000806F000180510001D8A402D0898A1200D8
:1013E000899A120012000001806F000180510001F3
:1013F000D8A402D08984120089941200120000013E
:10140000806F000180510001D8B402D0F286120032
:10141000F29612001200016E0150D8B402D0CA84B4
:101420001200CA9412001200000E1DEC0AF03EECED
:1014300009F0010E1DEC0AF01200176E1750D8B417
:1014400002D0D58E1200D59E12001200D5AE02D069
:10145000010E1200000E1200120064EC09F075EC8F
:1014600009F01200F190010EFFEC09F01200000EDD
:10147000556E000E536E120081CF01F01200120063
:1014800000F0120000F01200015C080012001200CF
:041490001200120034
:063FF800A0F005FFFFF13F
:00000001FF
