:0400000020EF01F0FC
:0E0008006E82D9CFABF0DACFACF034EF02F05D
:100018006E80D8CF4CF0E8CF4DF0E0CF4EF0D9CF7E
:100028004FF0DACF50F0F3CF51F0F4CF52F0F6CFD3
:1000380053F0F7CF54F0F8CF55F0F5CF56F0F2A0C3
:100048008CD08FEC0BF0576EFAEC0BF05A6A5B6AA7
:100058005C6A5D6A66502CE0000E86EC0DF0575025
:1000680016E0080E0101AE1909E1110E6C6E010EC1
:10007800046E900E036EAFEC0CF018D0130E6C6E7D
:10008800000E046E080E036EAFEC0CF00FD00A0ED3
:100098000101AE1903E0010E026FF0D7120E6C6E6B
:1000A800010E046EF40E036EAFEC0CF0666A53D0CA
:1000B800675050E0C5EC0DF0000903E15FEC0DF06E
:1000C80047D0CECF58F0596ACF5059264BEC0CF098
:1000D800695022E1080E0101AE1910E16050585C28
:1000E8006150595819E358505E5C59505F5814E3F1
:1000F800000EF5EC0CF0010E696E0ED0700E585C17
:10010800170E595809E3110E585C270E595804E286
:10011800000EF5EC0CF0EFD769501AE0E3EC0CF0A8
:10012800600E6B6015D06B50020D000EF324D96E73
:10013800020EF420DA6E58C0DEFF59C0DDFF6B2ACC
:10014800080E0101AE1904E16A506B5C01E39E8060
:10015800676A01D000F0F29057D09EA21ED062507C
:10016800645C6350655811E3000E86EC0DF0110EC7
:100178006C1802E10A0E04D0120E6C180CE1080E7D
:100188000101AE6F010E066F06D05A6A5B6A5C6A9F
:100198005D6A644A652A9E9237D09EAC04D077EC9B
:1001A80005F09E9C31D09EA02ED0000E7FEC0DF065
:1001B800000E8DEC0DF05A6A5B6A5C6A5D6A8FEC22
:1001C8000BF0FAEC0BF0F2900A0E0101AE1908E1FF
:1001D800270E6B640AD001EC14F00101046F05D0FE
:1001E800045103E16A506B5CF6E24BEC0CF0B6ECA0
:1001F8000DF0F090F092010EF5EC0CF0010E7FEC92
:100208000DF09E9001D000F056C0F5FF55C0F8FFE4
:1002180054C0F7FF53C0F6FF52C0F4FF51C0F3FFBC
:1002280050C0DAFF4FC0D9FF4EC0E0FF4DC0E8FF15
:100238004CC0D8FF6E9010002AEF08F00101986BAF
:10024800996B9A6B800EF66E250EF76E0900F5CF46
:10025800BDF00A00F5CFBEF07CEC0BF0BDC087F115
:10026800BEC088F1BFC089F1E10E01018A6F7A0E24
:100278008B6F3F0E8C6FB8EC02F087C195F188C187
:1002880096F189C197F1800EF66E250EF76E09007A
:10029800F5CFBDF00A00F5CFBEF07CEC0BF0BDC089
:1002A80087F1BEC088F1BFC089F18F0E01018A6F46
:1002B800820E8B6F3F0E8C6FB8EC02F087C198F1FD
:1002C80088C199F189C19AF195C1B5F096C1B6F086
:1002D80097C1B7F00001B86B960EB96F430EBA6FAD
:1002E8003CEC09F006E20101956B960E966F430E01
:1002F800976F0001B56BAF0EB66F440EB76F98C11C
:10030800B8F099C1B9F09AC1BAF03CEC09F006E22C
:100318000101986BAF0E996F440E9A6F95C1B5F0B5
:1003280096C1B6F097C1B7F0F9EC03F0B5C0C2F0CA
:10033800B6C0C3F098C1B5F099C1B6F09AC1B7F08C
:10034800F9EC03F0B5C0C0F0B6C0C1F07EEC0AF01D
:10035800C86F120000019C6B9D6B9E6B800EF66E41
:10036800250EF76E0900F5CF88F00A00F5CF89F061
:10037800C6EC0BF088C08BF089C08CF08AC08DF079
:10038800E10E8E6F7A0E8F6F3F0E906F8EEC03F03A
:100398008BC099F08CC09AF08DC09BF0800EF66EE1
:1003A800250EF76E0900F5CF88F00A00F5CF89F021
:1003B800C6EC0BF088C08BF089C08CF08AC08DF039
:1003C8008F0E8E6F820E8F6F3F0E906F8EEC03F044
:1003D8008BC09CF08CC09DF08DC09EF099C08BF0B6
:1003E8009AC08CF09BC08DF08E6B960E8F6F430E6B
:1003F800906F95EC09F005E2996B960E9A6F430E93
:100408009B6F8B6BAF0E8C6F440E8D6F9CC08EF004
:100418009DC08FF09EC090F095EC09F005E29C6BB2
:10042800AF0E9D6F440E9E6F99C080F09AC081F008
:100438009BC082F0BEEC04F080C0C2F081C0C3F063
:100448009CC080F09DC081F09EC082F0BEEC04F09C
:1004580080C0C0F081C0C1F0F9EC0AF0C86F12008A
:10046800F3CFADF0F4CFAEF0F6CFAFF0F7CFB0F0FA
:10047800F8CFB1F0F5CFB2F0F0B002D0F0A256D07C
:10048800C8EC0DF0000903E167EC0DF04CD0D6CFB5
:10049800B3F00001B46BD750B4275BEC0CF0C75134
:1004A8001DE1080E0101AE190EE10001C251B35D54
:1004B800C351B45913E3B351C05DB451C1590EE3EC
:1004C800010EC76F0BD02C0E0001B35D010EB4599D
:1004D80005E3790EB35D050EB459F2E3C75123E085
:1004E8005A6A5B6A5C6A5D6A400EC9611CD0C95170
:1004F800020D070EF324D96E010EF420DA6EB3C094
:10050800DEFFB4C0DDFFC92BC851C95D0CE3010192
:10051800055104E108EC1EF00101056F000E6FECB7
:100528000DF0BAEC0DF0F090F0920CD0F2A409D0D6
:10053800000E6FEC0DF05BEC0CF0BAEC0DF0F294E1
:1005480001D000F0B2C0F5FFB1C0F8FFB0C0F7FFAE
:10055800AFC0F6FFAEC0F4FFADC0F3FFACC0DAFF2A
:10056800ABC0D9FF6E92110089C18DF18E6B8F6B74
:1005780088358D3701E38E818D51906F905104E15C
:10058800876B886B896B12008CC18DF18E6B8F6BBA
:100598008B358D3701E38E818D51916F915104E137
:1005A800876B886B896B120091517B0F902789C1EB
:1005B80091F18C51911B800E9117888F8B8F8C6BCA
:1005C800896B87518A03F4CFF3FFF46AF3CF92F172
:1005D800F4CF93F1946B87518B03F3509227F45027
:1005E8009323000E942388518A03F3509227F450E2
:1005F8009323000E942388518B03F3509327F450D0
:10060800942394AF05D0D890943393339233902B9E
:10061800D89094339333923392C1B5F093C1B6F026
:1006280094C1B7F090C1B8F091C1B9F05AEC07F095
:10063800B5C087F1B6C088F1B7C089F112001DC0F6
:1006480021F0226A236A1C34213601E322802150DA
:10065800246E245004E11B6A1C6A1D6A120020C023
:1006680021F0226A236A1F34213601E322802150B7
:10067800256E255004E11B6A1C6A1D6A120025506C
:100688007B0F24261DC025F02050251A800E251624
:100698001C8E1F8E206A1D6A1B501E02F4CFF3FFAA
:1006A800F46AF3CF26F0F4CF27F0286A1B501F0214
:1006B800F3502626F4502722000E28221C501E0232
:1006C800F3502626F4502722000E28221C501F0221
:1006D800F3502726F450282228AE05D0D890283287
:1006E80027322632242AD89028322732263226C0AA
:1006F80001F027C002F028C003F024C004F025C090
:1007080005F0A0EC07F001C01BF002C01CF003C00C
:100718001DF012008DC091F0926B936B8C35913760
:1007280001E392819151946F945104E18B6B8C6B2E
:100738008D6B120090C091F0926B936B8F3591374F
:1007480001E392819151956F955104E18B6B8C6B0C
:100758008D6B120095517B0F94278DC095F09051A9
:10076800951B800E95178C8F8F8F906B8D6B8B518F
:100778008E03F4CFF3FFF46AF3CF96F0F4CF97F03B
:10078800986B8B518F03F3509627F4509723000EE4
:1007980098238C518E03F3509627F4509723000E1C
:1007A80098238C518F03F3509727F450982398AFD0
:1007B80005D0D890983397339633942BD8909833A4
:1007C8009733963396C080F097C081F098C082F036
:1007D80094C083F095C084F0E5EC07F080C08BF0FE
:1007E80081C08CF082C08DF01200B7C0B9F0000152
:1007F800BA6BBB6BB635B93701E3BA81B9510101A0
:100808008C6F8C5106E10001B56BB66BB76BB86B9A
:100818001200170E0001B96FB5C0BAF0B6C0BBF030
:10082800B7C0BCF0B929BD6F04D0D890BC33BB3376
:10083800BA33BD2FFAD70001BA510101876F000101
:10084800B68FB76BB5510101886F0001B651010130
:10085800896F0001B75101018A6F8B6B8E0E8C5F17
:100868008CAF0CD08C51800A8F0FCDE3D8908B338E
:100878008A33893388338C3FF9D70CD0170E8C65AF
:1008880007D0C1D7D890883789378A378B378C07F4
:100898008C51F8E1875108E08B1F8A1F891F886DEA
:1008A800000E89238A238B2388C1B5F089C1B6F04D
:1008B8008AC1B7F08BC1B8F012000EC012F0136AEB
:1008C800146A0D34123601E313801250196E195050
:1008D80004E10C6A0D6A0E6A120011C012F0136A64
:1008E800146A1034123601E3138012501A6E1A502B
:1008F80004E10C6A0D6A0E6A1200166A176A186A11
:100908001A50890F195E0EC01AF011501A1A800E6B
:100918001A160D8E0E6A108E116A180E156ED89062
:100928001636173618360F500C5C10500D581150EB
:100938000E5807E30F500C5E10500D5A11500E5A06
:100948001680D8900C360D360E36152EE8D716C000
:1009580001F017C002F018C003F019C004F01AC063
:1009680005F0A0EC07F001C00CF002C00DF003C0C8
:100978000EF0120082C084F0856B866B8135843757
:1009880001E3858184518E6F8E5105E1806B816B07
:10099800826B836B1200170E846F80C085F081C054
:1009A80086F082C087F08429886F04D0D890873376
:1009B80086338533882FFAD700018551896F818F57
:1009C800826B80518A6F81518B6F82518C6F8D6BD6
:1009D8008E0E8E5F8EAF0CD08E51800A8F0FD6E3AD
:1009E800D8908D338C338B338A338E3FF9D70CD024
:1009F800170E8E6507D0CAD7D8908A378B378C37B1
:100A08008D378E078E51F8E1895108E08D1F8C1FB4
:100A18008B1F8A6D000E8B238C238D238AC080F058
:100A28008BC081F08CC082F08DC083F0120003C0AF
:100A380005F0066A076A0234053601E306800550A8
:100A48000F6E0F5005E1016A026A036A046A120018
:100A5800170E056E01C006F002C007F003C008F0CB
:100A68000528096E04D0D890083207320632092EBC
:100A7800FAD706500A6E028E036A01500B6E0250B6
:100A88000C6E03500D6E0E6A8E0E0F5E0FAE0CD0FC
:100A98000F50800A8F0FD7E3D8900E320D320C32E8
:100AA8000B320F3EF9D70CD0170E0F6407D0CBD7F7
:100AB800D8900B360C360D360E360F060F50F8E16F
:100AC8000A5008E00E1E0D1E0C1E0B6C000E0C22A8
:100AD8000D220E220BC001F00CC002F00DC003F075
:100AE8000EC004F012002C6A2D6AC4CF2CF02D6AB7
:100AF8002C502D6E2C6AC3502C26000E2D220F6A06
:100B0800800E106E440E116E2CC009F02DC00AF034
:100B1800B4EC0BF009C00CF00AC00DF00BC00EF0DD
:100B280061EC04F00CC01BF00DC01CF00EC01DF0F1
:100B3800330E1E6E530E1F6E400E206E23EC03F014
:100B48001BC029F01CC02AF01DC02BF00A0E6D181E
:100B580022E1E60E1E6E2A0E1F6E490E206E29C077
:100B68001BF02AC01CF02BC01DF023EC03F01BC0A7
:100B78000CF01CC00DF01DC00EF0500E0F6E430E91
:100B8800106E480E116E61EC04F00CC0A9F10DC096
:100B9800AAF10EC0ABF100F07AEF0CF084518C6F23
:100BA80085518D6F86518E6F8F6B8CC080F08DC094
:100BB80081F08EC082F08FC083F053EC0BF08F5120
:100BC8008E1103E1240E8D5D06E38F518E1103E132
:100BD800280E8D5D01E3FF0000018B6B87C0D9FFF4
:100BE80088C0DAFFDF50F56E0D0087C0D9FF88C0D6
:100BF800DAFFDECF89F0DDCF8AF08AC089F0000104
:100C08008A6B8951F56E0D00020E8727000E882326
:100C18008B2B1F0E8B65E2D78CC080F08DC081F0C6
:100C28008EC082F08FC083F053EC0BF0A696A69886
:100C3800A684F29E550EA76EAA0EA76EA682AA0CCF
:100C480005500D6E06500E6E07500F6E106A0DC0DF
:100C580001F00EC002F00FC003F010C004F068EC01
:100C68000BF010500F1003E1240E0E5C06E3105039
:100C78000F1003E1280E0E5C01E3FF000C6A08C0A8
:100C8800D9FF09C0DAFFDF50F56E0D0008C0D9FFA3
:100C980009C0DAFFDECF0AF0DDCF0BF00BC00AF097
:100CA8000B6A0A50F56E0D00020E0826000E092286
:100CB8000C2A1F0E0C64E3D70DC001F00EC002F021
:100CC8000FC003F010C004F068EC0BF0A696A698CD
:100CD800A684F29E550EA76EAA0EA76EA682AA0C2F
:100CE8000001C5511DE1000EB56F0001B551D8B422
:100CF80002D08A8601D08A96010EB56F0001B551DF
:100D0800D8B402D08B8401D08B94900EB96F010EA9
:100D1800BA6FBB6BBC6BC1EC09F0010EC56F1BD081
:100D2800010EB56F0001B551D8B402D08A8601D042
:100D38008A96000EB56F0001B551D8B402D08B84E5
:100D480001D08B94900EB96F010EBA6FBB6BBC6B60
:100D5800C1EC09F0C56B000EB56F0001B551D8B4F0
:100D680002D08A8601D08A96000EB56F0001B5516F
:100D7800D8B402D08B8412008B9412000AC001F000
:100D88000BC002F00CC003F00DC004F0E1EC0AF057
:100D98000EC010F00FC011F0105011102BE00AC057
:100DA800D9FF0BC0DAFF200EDE6EDD6A020E0A26BE
:100DB800000E0B221006D8A01106EED707C0F6FFCA
:100DC80008C0F7FF09C0F8FF0AC0D9FF0BC0DAFF57
:100DD8000900F5CFDEFF0800F5CFDDFF020E07267C
:100DE800000E08220922020E0A26000E0B220C060B
:100DF800D8A00D0607C0F6FF08C0F7FF09C0F8FF26
:100E08000900F5500900F510D8B412000C500D1067
:100E1800D5E1120089C080F08AC081F08BC082F0D1
:100E28008CC083F011EC0BF08DC08FF08EC090F069
:100E38008F5190112BE089C0D9FF8AC0DAFF200EAC
:100E4800DE6EDD6A020E8927000E8A238F07D8A07E
:100E58009007EED786C0F6FF87C0F7FF88C0F8FF77
:100E680089C0D9FF8AC0DAFF0900F5CFDEFF080084
:100E7800F5CFDDFF020E8627000E87238823020E9A
:100E88008927000E8A238B07D8A08C0786C0F6FF17
:100E980087C0F7FF88C0F8FF0900F5500900F51072
:100EA800D8B412008B518C11D5E112000001B85151
:100EB80004E0B551B611B71109E1B56BB66BB76B64
:100EC8001200B82BD890B733B633B533BA6BBB6BB7
:100ED800FE0EB715BC6FBA51BB11BC110AE0F1D7B1
:100EE800B82BB52B000EB623B723D890B733B6333B
:100EF800B533BA6BBB6BB751BC6FBA51BB11BC11E0
:100F080006E0EED7B807D890B537B637B737B6BFCB
:100F180003D0020EB861F6D7B8A1B69FD890B833FF
:100F2800B851B713B95101E0B78FB5C0B5F0B6C025
:100F3800B6F0B7C0B7F01200045004E00150021038
:100F4800031009E1016A026A036A1200042AD890B0
:100F5800033202320132066A076AFE0E0314086E73
:100F68000650071008100AE0F1D7042A012A000EDB
:100F780002220322D890033202320132066A076A3B
:100F88000350086E06500710081006E0EED7040656
:100F9800D89001360236033602BE03D0020E046032
:100FA800F6D704A0029ED8900432045003120550CC
:100FB80001E0038E01C001F002C002F003C003F09B
:100FC8001200835104E080518111821109E1806B84
:100FD800816B826B1200832BD890823381338033EC
:100FE800856B866BFE0E8215876F8551861187117A
:100FF8000AE0F1D7832B802B000E81238223D8901F
:10100800823381338033856B866B8251876F85513C
:101018008611871106E0EED78307D890803781378D
:10102800823781BF03D0020E8361F6D783A1819FE7
:10103800D890833383518213845101E0828F80C01A
:1010480080F081C081F082C082F0120003EE00F0CF
:10105800C00EEE6AE806FDE102EE00F0C00EEE6A90
:10106800E806FDE101EE00F0870EEE6AE806FDE114
:1010780000EEC0F00A0EEE6AE806FDE100EE5AF056
:10108800130EEE6AE806FDE1840EF66E1B0EF76E8F
:10109800000EF86E01EEA9F010EE06F00900F5CF8B
:1010A800EEFFE550E150FAE1A20EF66E1B0EF76E68
:1010B800000EF86E0900F5CF6DF06E906E92000E7E
:1010C800F86E000126EF1FF0000EF2BE010E886FC9
:1010D800000EF2BC010E896F8751861103E1240EC0
:1010E800855D06E38751861103E1280E855D01E3DE
:1010F800FF00F29EF29C84C080F085C081F086C01B
:1011080082F087C083F053EC0BF0010E8A6FA6843F
:10111800A688F29E550EA76EAA0EA76EA682A6A650
:1011280006D000018A2B0A0E8A6101D0E4D700019B
:10113800885101E0F28E8951D8A4F28C1200000E79
:10114800F2BE010E096E000EF2BC010E0A6E0850C6
:10115800071003E1240E065C06E30850071003E1BC
:10116800280E065C01E3FF00F29EF29C05C001F028
:1011780006C002F007C003F008C004F068EC0BF0EA
:10118800010E0B6EA684A688F29E550EA76EAA0EB7
:10119800A76EA682A6A605D00B2A0A0E0B6001D060
:1011A800E5D7095001E0F28E0A50D8A4F28C12005B
:1011B8000B6A0C6A0C50020DF3500124066EF450B1
:1011C8000220076E000E0320086E06C0F6FF07C057
:1011D800F7FF08C0F8FF0900F5CF09F00A00F5CFBE
:1011E8000AF00C50020DF3500424D96EF450052077
:1011F800DA6E0950DE1803E10A50DE1801E00B2A06
:101208000C2A1F0E0C64D6D70B5001E0000C010C01
:101218008A6B8B6B8B51020DF3508025856FF450D0
:101228008121866F000E8221876F85C0F6FF86C0F8
:10123800F7FF87C0F8FF0900F5CF88F00A00F5CF5F
:1012480089F08B51020DF3508325D96EF450842117
:10125800DA6E8851DE1803E18951DE1801E08A2B25
:101268008B2B1F0E8B65D6D78A5101E0000C010C21
:101278000001B7AF0DD0BB6BBC6B800EBD6FB55115
:10128800BB5DB56FB651BC59B66FB751BD59B76F95
:10129800BAAF0DD0BB6BBC6B800EBD6FB851BB5DD8
:1012A800B86FB951BC59B96FBA51BD59BA6F800EF0
:1012B800B71BBA1BB851B55DB951B659BA51B75930
:1012C80002E2D8901200D88012000EAE0DD0126A39
:1012D800136A800E146E0C50125C0C6E0D5013586D
:1012E8000D6E0E5014580E6E11AE0DD0126A136AA0
:1012F800800E146E0F50125C0F6E10501358106E43
:1013080011501458116E800E0E1A111A0F500C5CE1
:1013180010500D5811500E5802E2D8901200D88083
:1013280012008DAF0DD0916B926B800E936F8B5125
:10133800915D8B6F8C5192598C6F8D5193598D6F34
:1013480090AF0DD0916B926B800E936F8E51915D23
:101358008E6F8F5192598F6F90519359906F800E65
:101368008D1B901B8E518B5D8F518C5990518D59CF
:1013780002E2D8901200D88012000101876B886BB6
:10138800896B8A6B0CD0030EB66FE80EB56F89ECCB
:101398000CF00101872B000E882389238A23000182
:1013A800B9510101875D0001BA5101018859000155
:1013B800BB51010189598A51800A0001BD6FBC5196
:1013C800800ABD59E0E312008F6B906B0ED08DC17F
:1013D800B9F08EC1BAF00001BB6BBC6BC1EC09F06F
:1013E800100E8B1A01018F4B902B8BC1BEF08CC154
:1013F800BFF0D8900001BE37BF37BE5101018F5DE5
:101408000001BF5101019059E2E31200BB6BBB51CF
:10141800020DF350B525B86FF450B621B96F000E20
:10142800B721BA6FB8C0F6FFB9C0F7FFBAC0F8FF66
:101438000900F5500900F51002E1BB511200BB2B61
:101448005F0EBB65E4D7600C076A0750020DF350C6
:101458000124046EF4500220056E000E0320066E6F
:1014680004C0F6FF05C0F7FF06C0F8FF0900F550F5
:101478000900F51002E107501200072A5F0E076401
:10148800E4D7600C5D505C1005E1E90E5A5C030E70
:101498005B580FE35A6A5B6A5C6A5D6A010E47EC47
:1014A8000DF0010EC6EC0CF0F28CF28ED39E030008
:1014B80012005A2A000E5B225C225D22000C896A07
:1014C8008A6A8B6AC150F00B0D09C16E94809482B0
:1014D800928092829294929A93829384939694940F
:1014E8009486948A949893809388938A9286949CFD
:1014F800949E12000001B56BB551020D800EF324C5
:10150800F66E250EF420F76EF86A000EF822090030
:10151800F5500900F51002E1B5511200B52B3F0E48
:10152800B565EAD7400CA2EC0DF0B0EC0AF0A8ECD7
:101538000DF0DAEC0CF0BBEC0CF0CBEC0DF0CDECD4
:101548000DF0A2EC0BF0D8EC0BF0E9EC0BF0F290FC
:10155800D08EF28EF28C1200010E3FEC0DF0020ECE
:101568003EEC0BF0070EB56F010EB66FB86B400E70
:10157800B76FC9EC0AF0010E37EC0DF0F08CF08E65
:10158800F18AF198010EC6EF0CF0B96BBA6BB96B22
:10159800BA6B0DD0D890B935D96EBA35DA6EB55167
:1015A800D926B651DA22DE6ADD6AB94BBA2BB751B1
:1015B800B95DB851BA59EEE31200056A066A056AC0
:1015C800066A0DD0D8900534D96E0634DA6E01500B
:1015D800D9260250DA22DE6ADD6A054A062A035055
:1015E800055C04500658EEE31200806B8051020D32
:1015F800800EF324F66E250EF420F76EF86A000EBE
:10160800F8220900F5500900F51002E18051120096
:10161800802B3F0E8065EAD7400C846B856B846B0A
:10162800856B0DD0D8908435D96E8535DA6E8051AA
:10163800D9268151DA22DE6ADD6A844B852B8251F4
:10164800845D83518559EEE31200B76F000E1FECDD
:101658000DF00F0EB71907E1CF0ECD16010EA3EC52
:101668000CF00BEF0CF0300ECD12000EA3EC0CF0CA
:101678000BEF0CF0B56F0001B55103E18B9C8B9E0D
:101688001200B50503E18B8C8B9E1200020EB51972
:1016980003E18B9C8B8E12008B8C8B8E12000001C9
:1016A8008351821104E18005360E815905E3806B70
:1016B800360E816F826B836B82512F0BF86E81C05F
:1016C800F7FF80C0F6FF12000450031004E1010484
:1016D800360E025805E3016A360E026E036A046A82
:1016E80003502F0BF86E02C0F7FF01C0F6FF12007F
:1016F800BDC0B5F0BEC0B6F00001B76B8E0EB86FB6
:10170800000EB96F5AEC07F0B5C0BDF0B6C0BEF018
:10171800B7C0BFF0120081CF01F001BA08D00001B4
:10172800C45102E1010E666E010EC46F010C000186
:10173800C40502E1010E666EC46B000CC19AC19823
:10174800C08E380EC012C050F80B0609C06E9F9CA0
:101758006BEC0CF0010E57EC0DF0010E4FEF0DF095
:1017680009C001F00AC002F0036A8E0E046E000E72
:10177800056EA0EC07F001C009F002C00AF003C032
:101788000BF0120088C080F089C081F0826B8E0E49
:10179800836F000E846FE5EC07F080C088F081C08D
:1017A80089F082C08AF0120081CFB5F0B5BB07D0AE
:1017B800C45102E1010E666E010EC46F010CC4052E
:1017C80002E1010E666EC46B000C81CFB5F0B5A9BD
:1017D80007D0C65102E1010E676E010EC66F010CFB
:1017E800C60502E1010E676EC66B000C81CF01F0E1
:1017F80001A807D0C65102E1010E676E010EC66F3F
:10180800010CC60502E1010E676EC66B000C000EE6
:10181800CDB0010EB66F000E1FEC0DF0CF6A020EB0
:10182800CE6EB651D8B41200010E1FEF0DF0000EA7
:101838002FEC0DF02BEC0CF0D59CD59AD596D55005
:10184800F80B0509D56EF184010E27EF0DF0000E97
:10185800D5BE010EB66F000E2FEC0DF0D76A020E42
:10186800D66EB651D8B41200010E2FEF0DF0000E4F
:10187800CAB4010E026E000E86EC0DF0646A656A49
:10188800CC6A0250D8B41200010E86EF0DF0000E9B
:10189800CDB0010E026E000E8DEC0DF0CF6A020E77
:1018A800CE6E0250D8B41200010E8DEF0DF0000E6E
:1018B800D5BE010E816F000E6FEC0DF0D76A020ED7
:1018C800D66E8151D8B41200010E6FEF0DF00A0EDA
:1018D8006D1807E10B0E6D6EC250C30B0409C26E82
:1018E80012000A0E6D6EC30EC216C30C0A0E6D18D6
:1018F80007E10B0E6D6EC250C30B0409C26E1200D5
:101908000A0E6D6EC30EC216C30CB76BB86B04D04B
:1019180000F00001B74BB82BB551B75DB651B859B7
:10192800F7E31200000E1FEC0DF00BEC0CF0CD8E5F
:10193800100E29EC0BF09F90010E17EF0DF0B56F0C
:101948000001B55104E0CD8CCD86CD821200CD9C2E
:10195800CD96CD921200000E86EC0DF003C062F019
:1019680004C063F03BEC0CF0010E86EF0DF0000EA6
:10197800B56F0001B551D8B403D0949A8B9A120070
:10198800948A1200B56F0001B55103E0F086F08823
:101998001200F096F09812000001806F805103E069
:1019A800F086F0881200F096F0981200000EB56FDD
:1019B800020EB66FB86B600EB76FC9EF0AF0000E73
:1019C800F5EC0CF0000E9BEC0DF0000E94EF0DF012
:1019D800F090F092F294010EF5EC0CF0010E9BEFF2
:1019E8000DF0016E015003E0F086F0881200F096C9
:1019F800F0981200F090F092F294010ED0EC0CF0F6
:101A0800010E77EF0DF0B56F0001B55102E09D8230
:101A180012009D921200B56F0001B55102E0CA8410
:101A28001200CA941200B56F0001B55102E09D8002
:101A380012009D9012000001B56FB55102E0CD80F3
:101A48001200CD901200B56F0001B55102E0F28A84
:101A58001200F29A12000001B56FB55102E0D58E5E
:101A68001200D59E1200B56F0001B55102E1898AB6
:101A78001200899A1200B56F0001B55102E18984FC
:101A88001200899412000001B56FB55102E0F28688
:101A98001200F2961200B56F0001B55102E0C28043
:101AA8001200C29012000001B56FB55102E09D8C82
:101AB80012009D9C1200000E8DEC0DF04BEC0CF00A
:101AC800010E8DEF0DF0000E6FEC0DF05BEC0CF0DD
:101AD800010E6FEF0DF00001806F805102E0D58E8E
:101AE8001200D59E1200806F0001805102E0F28A38
:101AF8001200F29A1200016E015002E0F286120002
:101B0800F2961200016E015002E0CA841200CA94D3
:101B18001200016E015002E0CD801200CD9012003B
:101B2800016E015002E0D58E1200D59E1200016EA2
:101B3800015002E0F28A1200F29A12001BEC0CF03B
:101B480096EC0CF0F0EF1FF0F190D8EC0BF0010ED2
:101B580047EF0DF09B8CD3B61200FDD70001C96B7F
:101B6800C76B12006B6A696AECEF0CF00001C96B75
:101B7800C76B12006B6A696AFEEF0CF00090405B5D
:101B88005B08CDB0010C000CD5BE010C000C00F0B8
:0C1B9800120000F01200C28212000A00CD
:1024000098216810C201B004C201C201C201B00427
:10241000C201B004C201C201C201B004C201C201C2
:10242000C201B004C201C201C201B004C201C201B2
:10243000C201C201C201B004C201C201C201B004A2
:10244000C201C201C201C201C201B004C201C20183
:10245000C201B004C201C201C201C201C201C20173
:10246000C201C201C201B004C201C201C201B00472
:10247000C201C201C201B004C201B004C201B00471
:10248000C201B004C2010000000000000000000012
:10249000000000000000000000000000000000003C
:1024A000000000000000000000000000000000002C
:1024B000000000000000000000000000000000001C
:1024C00098216810C201C201C201C201C201C20149
:1024D000C201B004C201B004C201B004C201C20111
:1024E000C201C201C201B004C201B004C201B00401
:1024F000C201C201C201C201C201C201C201B004D3
:10250000C201B004C201C201C201B004C201C201D1
:10251000C201B004C201C201C201C201C201C201B2
:10252000C201C201C201B004C201C201C201B004B1
:10253000C201C201C201B004C201B004C201B004B0
:10254000C201B004C2010000000000000000000051
:10255000000000000000000000000000000000007B
:10256000000000000000000000000000000000006B
:10257000000000000000000000000000000000005B
:102580004203150050001600500015004E004F0089
:102590001A0016004E004E001B0015004F004C00A4
:1025A000190017004F004B001B00150051004B0095
:1025B00019001600510016004F00160050001800B8
:1025C0004F004D0019004C001B0015005000150075
:1025D0005100150050001600500016005100160062
:1025E0004F00160000000000000000000000000086
:1025F00000000000000000000000000000000000DB
:10260000DADADADADADADADADADADADADADADADA2A
:10261000DADADADADADADADADADADADADADADADA1A
:10262000DADADADADADADADADADADADADADADADA0A
:102800000000456A466A476A080E0101AE1901E0F8
:1028100009D34B6A89D14B50020D000EF324F66E9A
:10282000240EF420F76EF86A000EF8220900F5CFA6
:1028300043F00A00F5CF44F043C009F044C00AF069
:10284000B4EC0BF04B50020D000EF324F66E240E88
:10285000F420F76EF86A000EF8220900A10EF55E6A
:1028600009000F0EF55A48E34B50020D000EF324F9
:10287000F66E240EF420F76EF86A000EF8220900B6
:10288000F5CF09F00A00F5CF0AF0B4EC0BF009C05F
:102890001BF00AC01CF00BC01DF0330E1E6E1F6E25
:1028A0003F0E206E23EC03F01BC048F01CC049F023
:1028B0001DC04AF04B50020D000EF324F66E240E9C
:1028C000F420F76EF86A000EF8220900F5CF09F03F
:1028D0000A00F5CF0AF0B4EC0BF009C01BF00AC0F7
:1028E0001CF00BC01DF0660E1E6EA60E1F6E3F0E76
:1028F000206E23EC03F0B3D04B50020D000EF324F6
:10290000F66E240EF420F76EF86A000EF822090025
:10291000A10EF55E09000F0EF55A59E24B50020D5B
:10292000000EF324F66E240EF420F76EF86A000E03
:10293000F8220900E90EF55E0900030EF55A47E397
:102940004B50020D000EF324F66E240EF420F76EA9
:10295000F86A000EF8220900F5CF09F00A00F5CF59
:102960000AF0B4EC0BF009C01BF00AC01CF00BC05D
:102970001DF01E6A800E1F6E3E0E206E23EC03F0CB
:102980001BC048F01CC049F01DC04AF04B50020D5E
:10299000000EF324F66E240EF420F76EF86A000E93
:1029A000F8220900F5CF09F00A00F5CF0AF0B4ECDF
:1029B0000BF009C01BF00AC01CF00BC01DF01E6A12
:1029C000E00E1F6E3F0E206E23EC03F048D04B50FC
:1029D000020D000EF324F66E240EF420F76EF86A52
:1029E000000EF8220900F5CF09F00A00F5CF0AF031
:1029F000B4EC0BF009C01BF00AC01CF00BC01DF0BA
:102A0000CD0E1E6ECC0E1F6EBD0E206E23EC03F09D
:102A10001BC048F01CC049F01DC04AF04B50020DCD
:102A2000000EF324F66E240EF420F76EF86A000E02
:102A3000F8220900F5CF09F00A00F5CF0AF0B4EC4E
:102A40000BF009C01BF00AC01CF00BC01DF0660E95
:102A50001E6E060E1F6E400E206E23EC03F01BC090
:102A600045F01CC046F01DC047F04B50020D000E53
:102A7000F324D96E020EF420DA6EDECF09F0DDCF3A
:102A80000AF0B4EC0BF009C00CF00AC00DF00BC05A
:102A90000EF048C00FF049C010F04AC011F069ECC8
:102AA00009F01DE345C00CF046C00DF047C00EF024
:102AB0004B50020D000EF324D96E020EF420DA6E94
:102AC000DECF09F0DDCF0AF0B4EC0BF009C00FF057
:102AD0000AC010F00BC011F069EC09F011E24B5084
:102AE000020D000EF324F66E240EF420F76EF86A41
:102AF000000EF8220900F5500900F51019E1010C4B
:102B00004B503D6E3E6A3F6840686A50416E426A73
:102B10003F504126405042223D50411804E13E5072
:102B2000421801E1010C4B2A6A504B5C01E273D65A
:102B30004B6A73D14B50020DC00EF324F66E240E77
:102B4000F420F76EF86A000EF8220900A10EF55E77
:102B500009000F0EF55A48E34B50020DC00EF32446
:102B6000F66E240EF420F76EF86A000EF8220900C3
:102B7000F5CF09F00A00F5CF0AF0B4EC0BF009C06C
:102B80001BF00AC01CF00BC01DF0330E1E6E1F6E32
:102B90003F0E206E23EC03F01BC048F01CC049F030
:102BA0001DC04AF04B50020DC00EF324F66E240EE9
:102BB000F420F76EF86A000EF8220900F5CF09F04C
:102BC0000A00F5CF0AF0B4EC0BF009C01BF00AC004
:102BD0001CF00BC01DF0660E1E6EA60E1F6E3F0E83
:102BE000206E23EC03F0B3D04B50020D000EF32403
:102BF000F66E240EF420F76EF86A000EF822090033
:102C0000A10EF55E09000F0EF55A59E24B50020D68
:102C1000000EF324F66E240EF420F76EF86A000E10
:102C2000F8220900E90EF55E0900030EF55A47E3A4
:102C30004B50020DC00EF324F66E240EF420F76EF6
:102C4000F86A000EF8220900F5CF09F00A00F5CF66
:102C50000AF0B4EC0BF009C01BF00AC01CF00BC06A
:102C60001DF01E6A800E1F6E3E0E206E23EC03F0D8
:102C70001BC048F01CC049F01DC04AF04B50020D6B
:102C8000C00EF324F66E240EF420F76EF86A000EE0
:102C9000F8220900F5CF09F00A00F5CF0AF0B4ECEC
:102CA0000BF009C01BF00AC01CF00BC01DF01E6A1F
:102CB000E00E1F6E3F0E206E23EC03F048D04B5009
:102CC000020DC00EF324F66E240EF420F76EF86A9F
:102CD000000EF8220900F5CF09F00A00F5CF0AF03E
:102CE000B4EC0BF009C01BF00AC01CF00BC01DF0C7
:102CF000CD0E1E6ECC0E1F6EBD0E206E23EC03F0AB
:102D00001BC048F01CC049F01DC04AF04B50020DDA
:102D1000C00EF324F66E240EF420F76EF86A000E4F
:102D2000F8220900F5CF09F00A00F5CF0AF0B4EC5B
:102D30000BF009C01BF00AC01CF00BC01DF0660EA2
:102D40001E6E060E1F6E400E206E23EC03F01BC09D
:102D500045F01CC046F01DC047F04B50020D000E60
:102D6000F324D96E020EF420DA6EDECF09F0DDCF47
:102D70000AF0B4EC0BF009C00CF00AC00DF00BC067
:102D80000EF048C00FF049C010F04AC011F069ECD5
:102D900009F01DE345C00CF046C00DF047C00EF031
:102DA0004B50020D000EF324D96E020EF420DA6EA1
:102DB000DECF09F0DDCF0AF0B4EC0BF009C00FF064
:102DC0000AC010F00BC011F069EC09F012E24B5090
:102DD000020DC00EF324F66E240EF420F76EF86A8E
:102DE000000EF8220900F5500900F510D8B4010CC6
:102DF000000C4B503D6E3E6A3F6840686A50416E21
:102E0000426A3F504126405042223D50411804E161
:102E10003E50421801E1010C4B2A6A504B5C01E222
:102E200089D6000C270E6B64000C4B6A43D04B50C4
:102E3000020D000EF324D96E020EF420DA6E010E9C
:102E4000DB5004E1280EDE5C01E2000C4B50020D69
:102E5000000EF324D96E020EF420DA6E010EDB5060
:102E60000FE1C80EDE5C0CE24B50020D000EF324A5
:102E7000D96E020EF420DA6E5E0EDE26010E18D038
:102E80004B50020D000EF324D96E020EF420DA6EC0
:102E9000400EDE5C010EDE580CE24B50020D000EBF
:102EA000F324D96E020EF420DA6E960EDE26000EA2
:102EB000DD224B2A6B504B5CBAE36BC04BF05F0ECC
:102EC0004B6401D00CD04B50020D000EF324D96E90
:102ED000020EF420DA6EDE6ADD6A4B2AF0D75A0E53
:102EE000AC6FAAEC19F00101036F035107E0682AE7
:102EF000010E686401D0686AEAEC1CF0080E01015A
:102F0000AE6F000C00019C6B000EF2BE010E976FBD
:102F1000000EF2BC010E986FF29EF29C5A0E010157
:102F2000AC1907E15A0EAD1904E15B0EAC6FAD6F41
:102F300008D25A0EAC1903E05A0EAD19F6E15A0E3A
:102F4000AC1937E1BAEC0DF0800E866F250E876F55
:102F5000886B070E896F010E8A6F8C6B400E8B6F2A
:102F60008E6B8D6B0EEC07F0685011E1C00E866F12
:102F7000240E876F886B000E896F030E8A6F8C6B2F
:102F8000600E8B6F8E6B8D6B0EEC07F024D0680497
:102F900022E1866B240E876F886B000E896F030E0B
:102FA0008A6F8C6B600E8B6F8E6B8D6B0EEC07F0E7
:102FB00012D0BEEC0DF0866B240E876F886B000E6E
:102FC000896F020E8A6F8C6B600E8B6F8E6B8D6BB0
:102FD0000EEC07F0CBD7846B240E856F866B876B66
:102FE00068EC08F0010E9F6F5A0E0101AC1902E166
:102FF000685005E1000E0001A06F020E04D0000E23
:103000000001A06F030EA16F846B240E856F866B89
:10301000A0C087F0A1C088F0D2EC05F00001806B61
:10302000240E816F826BA0C083F0A1C084F00CECF1
:1030300009F0000906E19F2B0A0E9F65D5D79C6B0E
:1030400080D1010E9F6F400EA027000EA123400EDD
:10305000846F240E856F866BA0C087F0A1C088F0B6
:10306000D2EC05F0400E0001806F240E816F826B60
:10307000A0C083F0A1C084F00CEC09F0000905E1C8
:103080009F2B0A0E9F65E3D7DAD7010E9F6F400E84
:10309000A027000EA123800E846F240E856F866BFF
:1030A000A0C087F0A1C088F0D2EC05F0800E00012E
:1030B000806F240E816F826BA0C083F0A1C084F06A
:1030C0000CEC09F0000905E19F2B0A0E9F65E3D780
:1030D000B6D7010E9F6F5A0E0101AC1907E16804C3
:1030E00005E1000E0001A06F020E04D0000E0001E9
:1030F000A06F030EA16FC00E846F240E856F866BC8
:10310000A0C087F0A1C088F0D2EC05F0C00E00018D
:10311000806F240E816F826BA0C083F0A1C084F009
:103120000CEC09F0000905E19F2B0A0E9F65D3D72F
:1031300086D7010E9F6F400EA027000EA123846B3F
:10314000250E856F866BA0C087F0A1C088F0D2ECF9
:1031500005F00001806B250E816F826BA0C083F0AB
:10316000A1C084F00CEC09F0000905E19F2B0A0EC8
:103170009F65E5D764D7010E9F6F400EA027000E14
:10318000A123400E846F250E856F866BA0C087F04B
:10319000A1C088F0D2EC05F0400E0001806F250E32
:1031A000816F826BA0C083F0A1C084F00CEC09F0A9
:1031B000000905E19F2B0A0E9F65E3D740D7010E5A
:1031C0009F6F800E846F250E856F866B070E876F4D
:1031D000010E886FD2EC05F0800E0001806F250E85
:1031E000816F826B070E836F010E846F0CEC09F008
:1031F000000905E19F2B0A0E9F65E3D720D7010E3A
:103200009F6FC00E846F250E856F866B470E876F8C
:10321000010E886FD2EC05F0C00E0001806F250E04
:10322000816F826B470E836F010E846F0CEC09F087
:10323000000905E19F2B0A0E9F65E3D700D7080E12
:103240009B6F0F0E9B6501D07AD0010E9F6F9D6B17
:103250009E6B9B51916F926B060ED890913792376F
:10326000E82EFBD79D5191279E519223000E912568
:10327000996FFE0E92219A6F916B260E926F936B4F
:1032800099519125946F9A519221956F000E932137
:10329000966F9451806F9551816F9651826F836BB9
:1032A00053EC0BF09D6B9E6B9E510AE1400E9D5DB1
:1032B00007E2DA0EF56E0D0000019D4B9E2BF4D750
:1032C000916B260E926F936B99519125946F9A5141
:1032D0009221956F000E9321966F9451806F9551B6
:1032E000816F9651826F836B53EC0BF0A698A68486
:1032F000F29E550EA76EAA0EA76EA68200019D6BC8
:103300009E6B9E511AE1400E9D5D17E2000E9925BD
:10331000F66E260E9A21F76EF86A000EF822080063
:10332000F550DA0A05E09F2B0A0E9F6590D787D6E5
:10333000994B9A2B9D4B9E2BE4D79B2B82D7010E4A
:103340009C6F0001975101E0F28E985101E0F28CE0
:103350009C5112001D6A000EF2BE010E186E000E86
:10336000F2BC010E196EF29EF29C5A0EAC1907E1E6
:103370005A0EAD1904E15B0EAC6FAD6FFAD15A0E67
:10338000AC1903E05A0EAD19F6E15A0EAC1937E14B
:10339000B2EC0DF0800E076E250E086E096A070E5E
:1033A0000A6E010E0B6E0D6A400E0C6E0F6A0E6AED
:1033B000C2EC06F0685011E1C00E076E240E086ED4
:1033C000096A000E0A6E030E0B6E0D6A600E0C6E1B
:1033D0000F6A0E6AC2EC06F024D0680422E1076A84
:1033E000240E086E096A000E0A6E030E0B6E0D6A3B
:1033F000600E0C6E0F6A0E6AC2EC06F012D0B6ECCC
:103400000DF0076A240E086E096A000E0A6E020E9D
:103410000B6E0D6A600E0C6E0F6A0E6AC2EC06F03F
:10342000CBD7056A240E066E076A086AA3EC08F07B
:10343000010E206E5A0E0101AC1902E1685004E140
:10344000000E216E020E03D0000E216E030E226EBE
:10345000056A240E066E076A21C008F022C009F032
:1034600024EC06F0016A240E026E036A21C004F007
:1034700022C005F0DCEC08F0000906E1202A0A0E63
:103480002064D8D71D6A75D1010E206E400E21260A
:10349000000E2222400E056E240E066E076A21C021
:1034A00008F022C009F024EC06F0400E016E240E54
:1034B000026E036A21C004F022C005F0DCEC08F0C3
:1034C000000905E1202A0A0E2064E4D7DBD7010EAB
:1034D000206E400E2126000E2222800E056E240E44
:1034E000066E076A21C008F022C009F024EC06F03D
:1034F000800E016E240E026E036A21C004F022C009
:1035000005F0DCEC08F0000905E1202A0A0E206431
:10351000E4D7B8D7010E206E5A0E0101AC1906E1AE
:10352000680404E1000E216E020E03D0000E216E2D
:10353000030E226EC00E056E240E066E076A21C0B1
:1035400008F022C009F024EC06F0C00E016E240E33
:10355000026E036A21C004F022C005F0DCEC08F022
:10356000000905E1202A0A0E2064D6D78BD7010E68
:10357000206E400E2126000E2222056A250E066EC0
:10358000076A21C008F022C009F024EC06F0016AA5
:10359000250E026E036A21C004F022C005F0DCECA7
:1035A00008F0000905E1202A0A0E2064E6D76AD750
:1035B000010E206E400E2126000E2222400E056EC6
:1035C000250E066E076A21C008F022C009F024EC1F
:1035D00006F0400E016E250E026E036A21C004F053
:1035E00022C005F0DCEC08F0000905E1202A0A0EF3
:1035F0002064E4D747D7010E206E800E056E250E9D
:10360000066E076A070E086E010E096E24EC06F0BE
:10361000800E016E250E026E036A070E046E010E07
:10362000056EDCEC08F0000905E1202A0A0E206492
:10363000E4D728D7010E206EC00E056E250E066E4B
:10364000076A470E086E010E096E24EC06F0C00EE4
:10365000016E250E026E036A470E046E010E056EA2
:10366000DCEC08F0000905E1202A0A0E2064E4D70A
:1036700009D7080E1C6E0F0E1C6401D078D0010E05
:10368000206E1E6A1F6A1C50126E136A060ED890B6
:1036900012361336E82EFBD71E5012261F50132267
:1036A000000E12241A6EFE0E13201B6E126A260ED6
:1036B000136E146A1A501224156E1B501320166EC6
:1036C000000E1420176E1550016E1650026E175022
:1036D000036E046A68EC0BF01E6A1F6A1F5009E152
:1036E000400E1E5C06E2DA0EF56E0D001E4A1F2A21
:1036F000F5D7126A260E136E146A1A501224156E2C
:103700001B501320166E000E1420176E1550016EFC
:103710001650026E1750036E046A68EC0BF0A69800
:10372000A684F29E550EA76EAA0EA76EA6821E6AEA
:103730001F6A1F501AE1400E1E5C17E2000E1A2489
:10374000F66E260E1B20F76EF86A000EF8220800AF
:10375000F550DA0A05E0202A0A0E206492D792D6A4
:103760001A4A1B2A1E4A1F2AE4D71C2A84D7010E94
:103770001D6E185001E0F28E195001E0F28C1D50C0
:1037800012000101986B996B9A6B9C6B9D6B9E6B01
:103790009F6BA06BA16BA36BA46BA56BA66BA76BB8
:1037A000A86BF66A240EF76E0900F5CFBDF00A008B
:1037B000F5CFBEF07CEC0BF0BDC087F1BEC088F148
:1037C000BFC089F1330E01018A6F8B6F3F0E8C6F82
:1037D000B8EC02F087C195F188C196F189C197F1E3
:1037E000F66A240EF76E0900F5CFBDF00A00F5CF9A
:1037F000BEF07CEC0BF0BDC087F1BEC088F1BFC04D
:1038000089F1660E01018A6FA60E8B6F3F0E8C6FD9
:10381000B8EC02F087C198F188C199F189C19AF199
:10382000C00EF66E240EF76E0900F5CFBDF00A004B
:10383000F5CFBEF07CEC0BF0BDC087F1BEC088F1C7
:10384000BFC089F1330E01018A6F8B6F3F0E8C6F01
:10385000B8EC02F087C19CF188C19DF189C19EF14D
:10386000C00EF66E240EF76E0900F5CFBDF00A000B
:10387000F5CFBEF07CEC0BF0BDC087F1BEC088F187
:10388000BFC089F1660E01018A6FA60E8B6F3F0ED5
:103890008C6FB8EC02F087C19FF188C1A0F189C19B
:1038A000A1F195C1A3F196C1A4F197C1A5F19CC165
:1038B000B5F09DC1B6F09EC1B7F0A3C1B8F0A4C1E8
:1038C000B9F0A5C1BAF03CEC09F006E29CC1A3F145
:1038D0009DC1A4F19EC1A5F1A3C1B5F0A4C1B6F0EC
:1038E000A5C1B7F0800EB86FBB0EB96F450EBA6FA9
:1038F0003CEC09F007E2800E0101A36FBB0EA46F40
:10390000450EA56F98C1A6F199C1A7F19AC1A8F17A
:103910009FC1B5F0A0C1B6F0A1C1B7F0A6C1B8F083
:10392000A7C1B9F0A8C1BAF03CEC09F006E29FC10A
:10393000A6F1A0C1A7F1A1C1A8F1A6C1B5F0A7C188
:10394000B6F0A8C1B7F0400EB86F1C0EB96F460EA6
:10395000BA6F3CEC09F007E2400E0101A66F1C0EA5
:10396000A76F460EA86FA3C1B5F0A4C1B6F0A5C15C
:10397000B7F0F9EC03F0B5C060F0B6C061F0A6C1D5
:10398000B5F0A7C1B6F0A8C1B7F0F9EC03F0B5C027
:103990005EF0B6C05FF00001B56B240EB66FB76B7A
:1039A0000AEC0AF001019B6FC00E0001B56F240EF6
:1039B000B66FB76B0AEC0AF00101A26F9BC16AF007
:1039C000A2516A5C02E2A2C16AF0280E6A60280C69
:1039D0006A6E280C2C6A2D6A2E6A306A316A326A45
:1039E000336A346A356A376A386A396A3A6A3B6ACE
:1039F0003C6AF66A240EF76E0900F5CF09F00A005A
:103A0000F5CF0AF0B4EC0BF009C01BF00AC01CF0B3
:103A10000BC01DF0330E1E6E1F6E3F0E206E23EC8A
:103A200003F01BC029F01CC02AF01DC02BF0F66A61
:103A3000240EF76E0900F5CF09F00A00F5CF0AF061
:103A4000B4EC0BF009C01BF00AC01CF00BC01DF059
:103A5000660E1E6EA60E1F6E3F0E206E23EC03F048
:103A60001BC02CF01CC02DF01DC02EF0C00EF66E39
:103A7000240EF76E0900F5CF09F00A00F5CF0AF021
:103A8000B4EC0BF009C01BF00AC01CF00BC01DF019
:103A9000330E1E6E1F6E3F0E206E23EC03F01BC014
:103AA00030F01CC031F01DC032F0C00EF66E240E96
:103AB000F76E0900F5CF09F00A00F5CF0AF0B4EC73
:103AC0000BF009C01BF00AC01CF00BC01DF0660E05
:103AD0001E6EA60E1F6E3F0E206E23EC03F01BC061
:103AE00033F01CC034F01DC035F029C037F02AC0B7
:103AF00038F02BC039F030C00CF031C00DF032C0BE
:103B00000EF037C00FF038C010F039C011F069EC7A
:103B100009F006E230C037F031C038F032C039F079
:103B200037C00CF038C00DF039C00EF0800E0F6EAB
:103B3000BB0E106E450E116E69EC09F006E2800EA8
:103B4000376EBB0E386E450E396E2CC03AF02DC064
:103B50003BF02EC03CF033C00CF034C00DF035C04B
:103B60000EF03AC00FF03BC010F03CC011F069EC11
:103B700009F006E233C03AF034C03BF035C03CF007
:103B80003AC00CF03BC00DF03CC00EF0400E0F6E82
:103B90001C0E106E460E116E69EC09F006E2400E26
:103BA0003A6E1C0E3B6E460E3C6E37C001F038C0BC
:103BB00002F039C003F01BEC05F001C060F002C058
:103BC00061F03AC001F03BC002F03CC003F01BECD6
:103BD00005F001C05EF002C05FF0016A240E026EC3
:103BE000036A28EC0AF02F6EC00E016E240E026EDE
:103BF000036A28EC0AF0366E2FC06AF036506A5C11
:103C000002E236C06AF0280E6A60280C6A6E280C40
:103C10000001A76BA86BA96B080E0101AE1901E0AA
:103C2000DBD00001AA6BD3D0AA5149E1AA51020D01
:103C3000800EF324F66E250EF420F76EF86A000E5F
:103C4000F8220900F5CF88F00A00F5CF89F0C6EC1C
:103C50000BF088C08BF089C08CF08AC08DF0E10E2B
:103C60008E6F7A0E8F6F3F0E906F8EEC03F08BC0CD
:103C7000A4F08CC0A5F08DC0A6F0AA51020D800E54
:103C8000F324F66E250EF420F76EF86A000EF82283
:103C90000900F5CF88F00A00F5CF89F0C6EC0BF0EB
:103CA00088C08BF089C08CF08AC08DF08F0E8E6F2B
:103CB000820E8F6F3F0E906F8EEC03F045D0AA51AD
:103CC000020D800EF324F66E250EF420F76EF86ACE
:103CD000000EF8220900F5CF88F00A00F5CF89F030
:103CE000C6EC0BF088C08BF089C08CF08AC08DF0D8
:103CF0008E6B8F6B3F0E906F8EEC03F08BC0A4F039
:103D00008CC0A5F08DC0A6F0AA51020D800EF32440
:103D1000F66E250EF420F76EF86A000EF822090000
:103D2000F5CF88F00A00F5CF89F0C6EC0BF088C01B
:103D30008BF089C08CF08AC08DF08E6BC00E8F6FB7
:103D40003F0E906F8EEC03F08BC0A7F08CC0A8F0F4
:103D50008DC0A9F0AA51020D070EF324D96E010EF1
:103D6000F420DA6EDECF88F0DDCF89F0C6EC0BF000
:103D700088C08BF089C08CF08AC08DF0A4C08EF012
:103D8000A5C08FF0A6C090F095EC09F0D8A0000C6B
:103D9000A7C08BF0A8C08CF0A9C08DF0AA51020D6D
:103DA000070EF324D96E010EF420DA6EDECF88F010
:103DB000DDCF89F0C6EC0BF088C08EF089C08FF0A3
:103DC0008AC090F095EC09F001E2000CAA2BC851D2
:103DD000AA5D01E229D7010C130E0001C965000C90
:103DE000AA6B10D0AA51020D070EF324D96E010E52
:103DF000F420DA6E010EDB5004E1050EDE5C01E218
:103E0000000CAA2BC951AA5DEDE3C9C0AAF03F0E70
:103E1000AA6501D00CD0AA51020D070EF324D96E69
:103E2000010EF420DA6EDE6ADD6AAA2BF0D75A0E94
:103E30000101AD6F82EC17F00101036F035102E045
:103E4000AEEC01F0080E0101AE6F000CAEEC0DF00F
:103E500063EC0AF097EC0AF022EC01F0C1EC1BF0E5
:103E60008C6B040E8B6F8E6B320E8D6FE8EC09F04D
:103E70008B98080EAE1901E089D006513FE08B986F
:103E80005A0EAD1917E103050AE18C6B040E8B6F16
:103E90008E6B320E8D6FE8EC09F08B9809D08C6B2D
:103EA000060E8B6F8E6B4B0E8D6FE8EC09F0F5D71D
:103EB0005B0EAD6F5A0EAC1917E103050AE18C6B6E
:103EC000040E8B6F8E6B320E8D6FE8EC09F08B98C1
:103ED00009D08C6B060E8B6F8E6B4B0E8D6FE8ECE2
:103EE00009F0F5D75B0EAC6F010E47EC0DF0010E3B
:103EF000C6EC0CF0F28CF28E0101066B055104E168
:103F0000045102E1025119E08B88F29EF29C74EC9C
:103F100006F0C80EB96FBA6BBB6BBC6BC1EC09F095
:103F2000010E47EC0DF0010EC6EC0CF0F28CF28E97
:103F30000101056B046B026B8B98A9C1B5F0AAC196
:103F4000B6F0ABC1B7F00001B86B600EB96F400EB0
:103F5000BA6F3CEC09F00EE3B56BB00EB66F400ED5
:103F6000B76FA9C1B8F0AAC1B9F0ABC1BAF03CECC7
:103F700009F009E2640EB96FBA6BBB6BBC6BC1ECA4
:103F800009F0100E8B1A46EC0AF01CD00A0EAE197E
:103F900019E1190E0001B96FBA6BBB6BBC6BC1ECB8
:103FA00009F0100E8B1A0101055105E0056B080E92
:103FB000AE6F010E066F045105E0046B080EAE6F84
:103FC000010E066F0101004B012B015104E10B0EA4
:103FD000005D01E24ED7CFEC0DF0006B016B49D7CD
:103FE000000E0FEC0DF0780ECA12030ECA129F924B
:083FF000CB68010E07EF0DF094
:063FF800A0F405FFFFF13B
:00000001FF
