:0400000051EF00F0CC
:10000800FACF12F0FBCF13F0E9CF14F055EF02F05E
:10001800D8CF01F0E8CF02F0E0CF03F0FACF04F038
:10002800FBCF05F0E9CF06F0EACF07F0E1CF08F003
:10003800E2CF09F0D9CF0AF0DACF0BF0F3CF0CF00A
:10004800F4CF0DF0F6CF0EF0F7CF0FF0F8CF10F099
:10005800F5CF11F011C0F5FF10C0F8FF0FC0F7FF82
:100068000EC0F6FF0DC0F4FF0CC0F3FF0BC0DAFFA3
:100078000AC0D9FF09C0E2FF08C0E1FF07C0EAFFD4
:1000880006C0E9FF05C0FBFF04C0FAFF03C0E0FF9C
:0E00980002C0E8FF01C0D8FF1000CDEF02F05B
:100400000050434220726576410000803F72313FC8
:10041000FE753E58633D951D3CC5AE3A7921399431
:10042000803793A73556153400000000803FF0FF59
:10043000BEE2A93E8376BEAE2B3E3CC3BDD2133D89
:1004400078D3BB00000E256E000E266E000E276EC0
:10045000000E286E1BD000F000F000F000F000F05D
:1004600000F000F000F000F000F000F000F000F00C
:1004700000F000F000F000F000F000F000F000F0FC
:10048000010E2526000E2622272228222050255C38
:1004900021502658225027582850800A246E235075
:1004A000800A2458D8A0D7D71200EACF15F0E1CFA0
:1004B00016F0E2CF17F0D9CF18F0DACF19F0F3CF5A
:1004C0001AF0F4CF1BF0F6CF1CF0F7CF1DF0F8CFE9
:1004D0001EF0F5CF1FF01FC0F5FF1EC0F8FF1DC0B6
:1004E000F7FF1CC0F6FF1BC0F4FF1AC0F3FF19C0D2
:1004F000DAFF18C0D9FF17C0E2FF16C0E1FF15C030
:10050000EAFF14C0E9FF13C0FBFF12C0FAFF11009D
:10051000000E2C6E000E2B6E0FD0100E206E270ECC
:10052000216E000E226E000E236E22EC02F0100EE1
:100530008B1A2B4A2C2A00D029502B5C2A502C587D
:10054000D8A0EBD71200000E896E000E8A6E000E46
:100550008B6E94809482928092829294929A9382EB
:100560009384939694949496949A94989380938871
:10057000938A9286949C949E1200D6EC02F0A3EC8F
:1005800002F0D8EC02F0000E2A6E0F0E296E88ECF5
:1005900002F08B98FFD751EF00F02E6A2D6A000E03
:1005A000F86E040EF76E0001BDEF02F000F01200CD
:0205B000120037
:063FF800E0F005FFFFF1FF
:00000001FF
