:0400000047EF01F0D5
:0E0008006082FACFA9F0FBCFAAF0B3EF1CF094
:100018006080D8CF33F0E8CF34F0E0CF35F0FACFB6
:1000280036F0FBCF37F0E9CF38F0EACF39F0E1CF3F
:100038003AF0E2CF3BF0D9CF3CF0DACF3DF0F3CF46
:100048003EF0F4CF3FF0F6CF40F0F7CF41F0F8CFD5
:1000580042F0F5CF43F0000E476E000E466EF2A058
:10006800ACD0ECEC09F0456ED2EC09F0446EB1EC82
:100078000CF05950D8B439D0000ED5EC0CF04550DE
:10008800D8B417D0080E0001CF19D8A409D0110E82
:100098005E6E010E046E900E036EAAEC0BF022D079
:1000A800130E5E6E000E046E080E036EAAEC0BF0C3
:1000B80019D00A0E0001CF19D8B40CD0010E0001D6
:1000C800C06F130E5E6E000E046E080E036EAAEC6F
:1000D8000BF008D0120E5E6E010E046EF40E036E65
:1000E800AAEC0BF0000E596E66D05A50D8B462D004
:1000F8001FEC0DF00009D8A403D0BAEC0CF057D0CF
:10010800CECF46F0476ACF5047261CEC0BF05B5029
:10011800D8A422D0080E0001CF19D8A40FD051506E
:10012800465C52504758D8A017D046504F5C4750AD
:100138005058D8A011D0010E5B6E0ED0700E465CE0
:10014800170E4758D8A008D0110E465C270E4758FE
:10015800D8B002D0010E5B6E5B50D8B428D080ECCA
:100168000CF0800E5D6023D05D50020D000EF3246C
:10017800D96E020EF420DA6E46C0DEFF47C0DDFFFE
:100188005D2A080E0001CF19D8A411D05C505D5C1F
:10019800D8A00DD00001C451D8A404D097EC16F013
:1001A8000001C46F000EDDEC0CF00AEC0DF0000E3F
:1001B8005A6E01D000F0F29042D09EA220D0535047
:1001C800555C54505658D8A014D0000ED5EC0CF0FD
:1001D800110E5E18D8A402D00A0E05D0120E5E18B1
:1001E800D8A40BD0080E0001CF6F010E0001C96F13
:1001F80004D0B1EC0CF0554A562A9E9220D09EAC01
:1002080004D0D3EC04F09E9C1AD09EA017D0000E08
:10021800DDEC0CF00A0E0001CF19D8A407D0270E88
:100228005D6404D097EC16F00001C46F1CEC0BF071
:100238000AEC0DF05FEC0CF09E9001D000F043C08A
:10024800F5FF42C0F8FF41C0F7FF40C0F6FF3FC0CE
:10025800F4FF3EC0F3FF3DC0DAFF3CC0D9FF3BC00E
:10026800E2FF3AC0E1FF39C0EAFF38C0E9FF37C012
:10027800FBFF36C0FAFF35C0E0FF34C0E8FF33C0EB
:10028800D8FF60901000D2EF06F000018351000102
:10029800D8B408D0000180510001811100018211F9
:1002A800D8A411D0000E0001806F000E0001816FEC
:1002B800000E0001826F12000001832B0001D8900C
:1002C800823381338033000E000180150001856F71
:1002D800000E000181150001866FFE0E00018215D7
:1002E8000001876F00018551000186110001871107
:1002F800D8B411D0E1D70001832B010E000180276B
:10030800000E00018123000E000182230001D89015
:10031800823381338033000E000180150001856F20
:10032800000E000181150001866FFF0E0001821585
:100338000001876F000185510001861100018711B6
:10034800D8B408D0D8D7000183070001D8908037E7
:1003580081378237000181BF04D0020E000183611A
:10036800F2D7000183B102D00001819F0001D8902B
:10037800833300018351000182130001845100017D
:10038800D8B402D00001828F80C080F081C081F093
:1003980082C082F012001DC021F0226A236A1C3438
:1003A800213601E322802150246E2450D8A407D09E
:1003B800000E1B6E000E1C6E000E1D6E120020C07B
:1003C80021F0226A236A1F34213601E3228021505A
:1003D800296E2950D8A407D0000E1B6E000E1C6E83
:1003E800000E1D6E120029507B0F24261DC029F017
:1003F8002050291A800E29161C8E1F8EFF0E1E16DD
:10040800FF0E1F16000E2016000E256E000E266E1B
:10041800000E276E070E286E1BA006D01E5025263C
:100428001F50262220502722D8901D321C321B3202
:10043800D8901E361F362036282EEED7090E286E85
:100448001BA006D01E5025261F50262220502722EA
:10045800D8901D321C321B32D890273226322532D2
:10046800282EEED725C001F026C002F027C003F0E1
:1004780024C004F029C005F093EC05F001C01BF07E
:1004880002C01CF003C01DF01200000E01019A6F9B
:10049800000E01019B6F000E01019C6F000E01010F
:1004A8009D6F000E01019E6F000E01019F6F000EEF
:1004B800F66E250EF76E0900F5CF88F10A00F5CF24
:1004C80089F1A3EC0AF088C18BF189C18CF18AC14A
:1004D8008DF1E10E01018E6F7A0E01018F6F3F0ED3
:1004E8000101906F72EC1DF08BC19AF18CC19BF1E8
:1004F8008DC19CF1000EF66E250EF76E0900F5CF42
:1005080088F10A00F5CF89F1A3EC0AF088C18BF1D4
:1005180089C18CF18AC18DF18F0E01018E6F820E17
:1005280001018F6F3F0E0101906F72EC1DF08BC1BE
:100538009DF18CC19EF18DC19FF19AC180F19BC143
:1005480081F19CC182F1D0EC1EF080C1BDF081C167
:10055800BEF09DC180F19EC181F19FC182F1D0ECB6
:100568001EF080C1BBF081C1BCF0C3EC08F00001F3
:10057800C66F1200000E01019A6F000E01019B6FF9
:10058800000E01019C6F000E01019D6F000E01011C
:100598009E6F000E01019F6F000EF66E240EF76E1F
:1005A8000900F5CF88F10A00F5CF89F1A3EC0AF02C
:1005B80088C18BF189C18CF18AC18DF1330E01019B
:1005C8008E6F330E01018F6F3F0E0101906F72EC39
:1005D8001DF08BC19AF18CC19BF18DC19CF1000E6D
:1005E800F66E240EF76E0900F5CF88F10A00F5CFF4
:1005F80089F1A3EC0AF088C18BF189C18CF18AC119
:100608008DF1660E01018E6FA60E01018F6F3F0EF0
:100618000101906F72EC1DF08BC19DF18CC19EF1B0
:100628008DC19FF19AC180F19BC181F19CC182F17A
:10063800D0EC1EF080C151F081C152F09DC180F113
:100648009EC181F19FC182F1D0EC1EF080C14FF0B4
:1006580081C150F0E5EC08F05C6E12000EC012F09B
:10066800136A146A0D34123601E313801250196E9E
:100678001950D8A407D0000E0C6E000E0D6E000E97
:100688000E6E120011C012F0136A146A103412367A
:1006980001E3138012501A6E1A50D8A407D0000E26
:1006A8000C6E000E0D6E000E0E6E1200000E166E11
:1006B800000E176E000E186E1A50890F195E0EC0C4
:1006C8001AF011501A1A800E1A160D8EFF0E0C16FB
:1006D800FF0E0D16000E0E16108EFF0E0F16FF0ED3
:1006E8001016000E1116180E156ED89016361736FD
:1006F80018360F500C5C10500D5811500E58D8A0D9
:1007080007D00F500C5E10500D5A11500E5A16801B
:10071800D8900C360D360E36152EE7D716C001F0D8
:1007280017C002F018C003F019C004F01AC005F091
:1007380093EC05F001C00CF002C00DF003C00EF000
:100748001200000184510001806F000185510001F1
:10075800816F000186510001826F0001836B62EC9A
:1007680009F0000E00018C6F1F0E00018C6501D08E
:1007780045D000018C51020DF35000018425000181
:10078800876FF450000185210001886F000E000179
:1007980086210001896F87C0F6FF88C0F7FF89C0EE
:1007A800F8FF0900F5CF8AF00900F5CF8BF08BC070
:1007B8008AF000018B6B00018A51F56E0D00000173
:1007C8008C51020DF350000184250001876FF4500D
:1007D800000185210001886F000E000186210001BB
:1007E800896F87C0F6FF88C0F7FF89C0F8FF080047
:1007F800F5CFF5FF0D0000018C2BB6D7A698A6847F
:10080800F29E550EA76EAA0EA76EA68212000101CF
:1008180082AF1DD080C186F181C187F182C188F184
:100828000101861F871F881F862B000E87238823B8
:10083800000E010186250101806F000E010187214C
:100848000101816F800E010188210101826F010180
:1008580085AF1DD083C186F184C187F185C188F138
:100868000101861F871F881F862B000E8723882378
:10087800000E010186250101836F000E0101872109
:100888000101846F800E010188210101856F000E2E
:100898000101801B000E0101811B800E0101821BDA
:1008A800000E0101831B000E0101841B800E010153
:1008B800851B010183510101805D01018451010102
:1008C80081590101855101018259D8B002D0D890CF
:1008D8001200D880120000018DAF1DD08BC091F09E
:1008E8008CC092F08DC093F00001911F921F931F4E
:1008F800912B000E92239323000E000191250001F5
:100908008B6F000E0001922100018C6F800E000198
:10091800932100018D6F000190AF1DD08EC091F022
:100928008FC092F090C093F00001911F921F931F07
:10093800912B000E92239323000E000191250001B4
:100948008E6F000E0001922100018F6F800E000152
:1009580093210001906F000E00018B1B000E000117
:100968008C1B800E00018D1B000E00018E1B000EDB
:1009780000018F1B800E0001901B00018E510001A9
:100988008B5D00018F5100018C59000190510001CD
:100998008D59D8B002D0D8901200D8801200C4CF98
:1009A8002AF02B6A2A502B6E2A6AC3502A26000E78
:1009B8002B22000E0F6E800E106E440E116E2AC090
:1009C80009F02BC00AF02EEC0BF009C00CF00AC09D
:1009D8000DF00BC00EF032EC03F00CC01BF00DC094
:1009E8001CF00EC01DF0330E1E6E530E1F6E400E0F
:1009F800206ECFEC01F01BC02CF01CC02DF01DC0E8
:100A08002EF00A0E5F18D8A423D0E60E1E6E2A0E0A
:100A18001F6E490E206E2CC01BF02DC01CF02EC07E
:100A28001DF0CFEC01F01BC00CF01CC00DF01DC078
:100A38000EF0500E0F6E430E106E480E116E32EC13
:100A480003F00CC0CAF00DC0CBF00EC0CCF006D03D
:100A58002CC04CF02DC04DF02EC04EF040EC0BF0E9
:100A68001200000E0001906F000E8F6F89C080F099
:100A78008AC081F08BC082F08CC083F072EC08F0E1
:100A88008DC08FF08EC090F000018F510001901141
:100A9800D8B432D089C0D9FF8AC0DAFF200EDE6E02
:100AA800000EDD6E020E00018927000E8A23000168
:100AB8008F07D8A09007E8D786C0F6FF87C0F7FF52
:100AC80088C0F8FF89C0D9FF8AC0DAFF0900F5CFCE
:100AD800DEFF0800F5CFDDFF0001020E8627000EBD
:100AE8008723000E8823020E00018927000E8A231F
:100AF80000018B07D8A08C0786C0F6FF87C0F7FFD8
:100B080088C0F8FF0900F5500900F510D8B41200A4
:100B180000018B5100018C11D8B41200CDD70450BC
:100B2800D8B405D0015002100310D8A40CD0000E80
:100B3800016E000E026E000E036E1200042AD89099
:100B4800033202320132000E0114066E000E021446
:100B5800076EFE0E0314086E065007100810D8B46E
:100B68000CD0ECD7042A010E0126000E0222000E3A
:100B78000322D890033202320132000E0114066EAD
:100B8800000E0214076EFF0E0314086E06500710BD
:100B98000810D8B406D0E6D70406D8900136023635
:100BA800033602BE03D0020E0460F6D704A0029EEC
:100BB800D8900432045003120550D8A4038E01C003
:100BC80001F002C002F003C003F01200000E116E23
:100BD800000E106E0AC001F00BC002F00CC003F04A
:100BE8000DC004F007EC09F00EC010F00FC011F0B2
:100BF80010501110D8B42DD00AC0D9FF0BC0DAFF9D
:100C0800200EDE6E000EDD6E020E0A26000E0B228E
:100C18001006D8A01106ECD707C0F6FF08C0F7FFEA
:100C280009C0F8FF0AC0D9FF0BC0DAFF0900F5CFE9
:100C3800DEFF0800F5CFDDFF020E0726000E0822B2
:100C4800000E0922020E0A26000E0B220C06D8A05E
:100C58000D0607C0F6FF08C0F7FF09C0F8FF090036
:100C6800F5500900F510D8B412000C500D10D8B486
:100C78001200D2D70550016E0650026E0750036E5F
:100C8800046A37EC0AF0000E0D6E1F0E0D6401D0D9
:100C980034D00D50020DF3500524086EF450062090
:100CA800096E000E07200A6E08C0F6FF09C0F7FF9C
:100CB8000AC0F8FF0900F5CF0BF00900F5CF0CF0DA
:100CC8000CC00BF00C6A0B50F56E0D000D50020DA8
:100CD800F3500524086EF4500620096E000E072014
:100CE8000A6E08C0F6FF09C0F7FF0AC0F8FF08003F
:100CF800F5CFF5FF0D000D2AC8D7A698A684F29E59
:100D0800550EA76EAA0EA76EA68212000EAE16D0BA
:100D18000CC012F00DC013F00EC014F0121E131EFA
:100D2800141E122A000E13221422000E12240C6E16
:100D3800000E13200D6E800E14200E6E11AE16D00C
:100D48000FC012F010C013F011C014F0121E131EC1
:100D5800141E122A000E13221422000E12240F6EE3
:100D6800000E1320106E800E1420116E000E0C1A47
:100D7800000E0D1A800E0E1A000E0F1A000E101A11
:100D8800800E111A0F500C5C10500D5811500E584F
:100D9800D8B002D0D8901200D880120003EE00F02C
:100DA80011EE00F0EE6AE550E150FCE1E250FAE1A4
:100DB80002EE00F011EE00F0EE6AE550E150FCE1C1
:100DC800E250FAE101EE00F0800EEE6AE806FDE17D
:100DD80000EEB9F0110EEE6AE806FDE100EE48F00B
:100DE800170EEE6AE806FDE15E0EF66E1A0EF76E55
:100DF800000EF86E00EECAF010EE06F00900F5CF0E
:100E0800EEFFE550E150FAE1760EF66E1A0EF76E37
:100E1800000EF86E0900F5CF5FF060906092000E4A
:100E2800F86E0001B5EF1BF0000E00018A6F1F0E6F
:100E380000018A6501D031D000018A51020DF350BA
:100E480000018325D96EF45000018421DA6E000177
:100E58008A51020DF350000180250001876FF4507C
:100E6800000181210001886F000E0001822100012C
:100E7800896F87C0F6FF88C0F7FF89C0F8FFDE508A
:100E88000900F51805E1DE500900F518D8B402D0BC
:100E9800000E120000018A2BCAD7010E1200000EA4
:100EA800F2BE010E0001886F000EF2BC010E0001B7
:100EB800896FF29EF29C84C080F085C081F086C064
:100EC80082F087C083F062EC09F0010E00018A6F9E
:100ED800A684A688F29E550EA76EAA0EA76EA682B5
:100EE800A6A607D000018A2B0A0E00018A6101D04C
:100EF800E2D7000188510001D8A4F28E000189517F
:100F08000001D8B41200F28C12000001C151000196
:100F1800D8A413D0000EDBEC0BF0010ED0EC0BF0D4
:100F2800640E0101846F000E856F000E866F000E3F
:100F3800876FBCEC07F0010E12D0010EDBEC0BF052
:100F4800000ED0EC0BF0640E0101846F000E856F6B
:100F5800000E866F000E876FBCEC07F0000E0001D4
:100F6800C16F000EDBEC0BF0000ED0EC0BF01200A2
:100F7800000E0101896F000E8A6F000E8B6F000E44
:100F88008C6F0ED0010E0101816FD20E806F64EC60
:100F98000AF0010E01018927000E8A238B238C2376
:100FA800010184510101895D0101855101018A59BD
:100FB8000101865101018B5901018C51800A0101FF
:100FC800886F01018751800A01018859D8B0120041
:100FD800D9D7000E0B6E1F0E0B6401D026D00B5014
:100FE800020DF3500424D96EF4500520DA6E0B502C
:100FF800020DF3500124086EF4500220096E000E11
:1010080003200A6E08C0F6FF09C0F7FF0AC0F8FF00
:10101800DE500900F51805E1DE500900F518D8B4CE
:1010280002D0000E12000B2AD6D7010E1200000EB5
:10103800F2BE010E096E000EF2BC010E0A6EF29E9F
:10104800F29C05C001F006C002F007C003F008C01A
:1010580004F037EC0AF0010E0B6EA684A688F29E07
:10106800550EA76EAA0EA76EA682A6A605D00B2AB5
:101078000A0E0B6001D0E5D70950D8A4F28E0A50A9
:10108800D8B41200F28C1200000E0101856F000E18
:10109800846F000E0101856F000E846F14D0D89004
:1010A80001018435D96E01018535DA6E010180515F
:1010B800D92601018151DA22000EDE6E000EDD6EA6
:1010C8000101844B852B010182510101845D0101DD
:1010D800835101018559D8B01200E1D7000E0001F3
:1010E800856F000E846F000E0001856F000E846FFF
:1010F80014D0D89000018435D96E00018535DA6E98
:1011080000018051D92600018151DA22000EDE6EDD
:10111800000EDD6E0001844B852B00018251000119
:10112800845D0001835100018559D8B01200E1D7D0
:10113800000E0101946F000E936F0ED08FC184F1E1
:1011480090C185F10101866B876BBCEC07F0100E2E
:101158008B1A0101934B942B8DC191F18EC192F1A1
:10116800D890010191379237010191510101935DA6
:101178000101925101019459D8B01200DFD7000E35
:101188000101806F7F0E0101806501D018D0010137
:101198008051020D000EF324F66E250EF420F76E32
:1011A800F86A000EF8220900F5500900F510D8A4D5
:1011B80003D00101805112000101802BE3D7800E7A
:1011C8001200000E0101806F7F0E0101806501D0C1
:1011D80018D001018051020D000EF324F66E240E82
:1011E800F420F76EF86A000EF8220900F55009009D
:1011F800F510D8A403D00101805112000101802B01
:10120800E3D7800E1200000E066E000E056E000E6B
:10121800066E000E056E0FD0D8900534D96E0634D0
:10122800DA6E0150D9260250DA22000EDE6E000E68
:10123800DD6E054A062A0350055C04500658D8B0EE
:101248001200EAD7010E33EC0CF0020E80EC09F024
:10125800000E0101806F030E0101816F000E010174
:10126800836F800E826F48EC08F0010E28EC0CF0BA
:10127800F08CF08EF18AF198010E9DEC0BF01200C3
:10128800000E896E000E8A6E000E8B6EC150F00B38
:101298000D09C16E94809482928092829294929A5F
:1012A80093829384939694949486948A9498938042
:1012B8009388938A9286949C949E1200000183518D
:1012C8000001821107E100018005360E00018159F5
:1012D800D8A009D0000E0001806F360E816F000E75
:1012E800826F000E836F000182512F0BF86E81C050
:1012F800F7FF80C0F6FF12000101806F01018051E5
:101308000101D8A403D08B9C8B9E1200010180059B
:10131800D8A403D08B8C8B9E1200020E0101801979
:10132800D8A403D08B9C8B8E12008B8C8B8E1200D2
:1013380081CF80F1010180BB0BD00001BF51D8A43F
:1013480002D0010E596E010E0001BF6F010E12008E
:101358000001BF05D8A402D0010E596E000E00018D
:10136800BF6F000E120081CF80F1010180A90BD060
:101378000001C351D8A402D0010E5A6E010E00011B
:10138800C36F010E12000001C305D8A402D0010EDC
:101398005A6E000E0001C36F000E120081CF01F0DB
:1013A80001A80BD00001C351D8A402D0010E5A6E77
:1013B800010E0001C36F010E12000001C305D8A47D
:1013C80002D0010E5A6E000E0001C36F000E12000B
:1013D80081CF01F001BA0BD00001BF51D8A402D0CF
:1013E800010E596E010E0001BF6F010E12000001BF
:1013F800BF05D8A402D0010E596E000E0001BF6FC0
:10140800000E1200F5EC0CF026EC09F0FCEC0CF0E8
:101418008FEC0BF02BEC0DF035EC0DF037EC0DF0FC
:10142800E2EC0AF09CEC09F0B7EC09F0F290D08EEF
:10143800F28EF28C12000101826F000E07EC0CF0A4
:101448000F0E01018219D8A406D0CF0ECD16010EB9
:1014580072EC0BF005D0300ECD12000E72EC0BF0D2
:1014680079EC0AF012000450031005E10104360E6D
:101478000258D8A008D0000E016E360E026E000E7B
:10148800036E000E046E03502F0BF86E02C0F7FFB8
:1014980001C0F6FF12004B504A1006E1E90E485C05
:1014A800030E4958D8A005D0A8EC0CF032EC0DF08A
:1014B8001200010E4826000E49224A224B22120031
:1014C800000E0101836F000E826F04D000F001014D
:1014D800824B832B010180510101825D0101815101
:1014E80001018359D8B01200F1D7000ECDB0010E1A
:1014F8000101816F000E07EC0CF0000ECF6E020E9A
:10150800CE6E010181510101D8B41200010E07EC21
:101518000CF01200000ED5BE010E0101816F000E05
:101528001DEC0CF0000ED76E020ED66E0101815133
:101538000101D8B41200010E1DEC0CF0120088C194
:1015480080F189C181F10101826B8E0E0101836FE7
:10155800000E0101846F72EC1FF080C188F181C117
:1015680089F182C18AF11200000ED5BE010E000178
:10157800816F000E6AEC0CF0000ED76E020ED66E6C
:10158800000181510001D8B41200010E6AEC0CF080
:10159800120088C080F089C081F00001826B8E0E35
:1015A8000001836F000E0001846F49EC01F080C0D8
:1015B80088F081C089F082C08AF01200C19AC1986F
:1015C800C08EC086C088C08AC050F80B0609C06E9D
:1015D8009F9C0AEC0BF0010E54EC0CF0010E49EC48
:1015E8000CF01200000ECAB4010E026E000ED5EC0B
:1015F8000CF0000E566E000E556E000ECC6E0250AA
:10160800D8B41200010ED5EC0CF012000A0E5F18C7
:10161800D8A407D00B0E5F6EC250C30B0409C26E6C
:1016280012000A0E5F6EC294C296C298C29A120045
:10163800000ECDB0010E026E000EDDEC0CF0000EB7
:10164800CF6E020ECE6E0250D8B41200010EDDEC41
:101658000CF0120009C001F00AC002F0036A8E0EF5
:10166800046E000E056E93EC05F001C009F002C08F
:101678000AF003C00BF012000A0E5F18D8A407D0B6
:101688000B0E5F6EC250C30B0409C26E12000A0E25
:101698005F6EC294C296C298C29A1200000E1DECE8
:1016A8000CF08EEC0AF0D59CD59AD596D550F80B4F
:1016B8000509D56EF184010E12EC0CF01200000E33
:1016C800F1EC0BF0CA86CA88CA8ACA8C030ECA1201
:1016D8009F92CB68010EE6EC0BF012000101806FBF
:1016E800010180510101D8B404D0CD8CCD86CD82C2
:1016F8001200CD9CCD96CD921200000E07EC0CF096
:1017080079EC0AF0CD8E100E1FEC0AF09F90010EB6
:10171800FCEC0BF01200000E0101806F020E0101BB
:10172800816F000E0101836F800E826F48EC08F014
:1017380012000101806F010180510101D8B403D06A
:10174800F086F0881200F096F0981200000ED5ECA2
:101758000CF003C053F004C054F0F6EC0AF0010E8C
:10176800D5EC0CF012000001806F000180510001DF
:10177800D8B403D0F086F0881200F096F0981200E2
:101788000101806F010180510101D8B403D0949AFE
:101798008B9A1200948A12000101806F0101805116
:1017A8000101D8B402D08B8412008B94120001017D
:1017B800806F010180510101D8B402D08A861200DD
:1017C8008A9612000101806F010180510101D8B48D
:1017D80002D09D8212009D9212000101806F0101CA
:1017E80080510101D8B402D0CA841200CA941200F0
:1017F8000101806F010180510101D8B402D09D80A0
:1018080012009D9012000101806F010180510101B9
:10181800D8B402D0CD801200CD9012000101806FA3
:10182800010180510101D8B402D0F28A1200F29A63
:1018380012000101806F010180510101D8B402D06A
:10184800D58E1200D59E12000101806F01018051D2
:101858000101D8A402D0898A1200899A12000101D4
:10186800806F010180510101D8A402D0898412003F
:10187800899412000101806F010180510101D8B4DF
:1018880002D0F2861200F29612000101806F010167
:1018980080510101D8B402D0C2801200C290120057
:1018A8000101806F010180510101D8B402D09D8CE3
:1018B80012009D9C1200000E016E020E026E000EB8
:1018C800046E800E036E07EC09F012000001806FB1
:1018D800000180510001D8B402D0D58E1200D59EE7
:1018E80012000001806F000180510001D8B402D0BD
:1018F800F28A1200F29A1200000E94EC0CF0000E1C
:10190800EDEC0CF0000EE5EC0CF01200F090F0920B
:10191800F294010E94EC0CF0010EEDEC0CF01200B8
:10192800016E0150D8B403D0F086F0881200F0960A
:10193800F0981200F090F092F294010EB7EC0BF0D0
:10194800010E75EC0CF01200000E486E000E496E88
:10195800000E4A6E000E4B6E1200000E486E000E0E
:10196800496E000E4A6E000E4B6E1200000EDDEC42
:101978000CF01CEC0BF0010EDDEC0CF01200000E6C
:10198800486E000E496E000E4A6E000E4B6E120035
:10199800000E6AEC0CF0B8EC0AF0010E6AEC0CF0E0
:1019A8001200016E0150D8B402D0CA841200CA9441
:1019B8001200016E0150D8B402D0CD801200CD9033
:1019C8001200016E0150D8B402D0D58E1200D59EF7
:1019D8001200016E0150D8B402D0F28A1200F29AB5
:1019E800120052EC0BF081EC0BF063EC0BF01200E0
:1019F800F1909CEC09F0010E3EEC0CF01200000E88
:101A08000001C86F000E0001C56F1200000E5D6E68
:101A1800000E5B6E8AEC0CF01200000E0001C86F1D
:101A2800000E0001C56F1200000E5D6E000E5B6EA9
:101A38009EEC0CF01200CDA002D0010E1200000E98
:101A48001200D5AE02D0010E1200000E1200000ED8
:101A5800C4EC0BF012000090405B5B08D39E0300BF
:101A6800120000F0120000F01200C28212000A00F8
:1024000098216810C201B004C201C201C201B00427
:10241000C201B004C201C201C201B004C201C201C2
:10242000C201B004C201C201C201B004C201C201B2
:10243000C201C201C201B004C201C201C201B004A2
:10244000C201C201C201C201C201B004C201C20183
:10245000C201B004C201C201C201C201C201C20173
:10246000C201C201C201B004C201C201C201B00472
:10247000C201C201C201B004C201B004C201B00471
:10248000C201B004C2010000000000000000000012
:10249000000000000000000000000000000000003C
:1024A000000000000000000000000000000000002C
:1024B000000000000000000000000000000000001C
:1024C000000000000000000000000000000000000C
:1024D00000000000000000000000000000000000FC
:1024E00000000000000000000000000000000000EC
:1024F00000000000000000000000000000000000DC
:102500004203150050001600500015004E004F0009
:102510001A0016004E004E001B0015004F004C0024
:10252000190017004F004B001B00150051004B0015
:1025300019001600510016004F0016005000180038
:102540004F004D0019004C001B00150050001500F5
:1025500051001500500016005000160051001600E2
:102560004F00160000000000000000000000000006
:10257000000000000000000000000000000000005B
:10258000000000000000000000000000000000004B
:10259000000000000000000000000000000000003B
:1025A000000000000000000000000000000000002B
:102800000050434220726576420000803F72313FA3
:10281000FE753E58633D951D3CC5AE3A792139940D
:10282000803793A73556153400000000803FF0FF35
:10283000BEE2A93E8376BEAE2B3E3CC3BDD2133D65
:1028400078D3BB00000EF2BE010E0001976F000EA0
:10285000F2BC010E0001986F000E00019C6F000E8B
:1028600000019A6F000E996FF29EF29C5A0E0001C1
:10287000CD19D8A405D05A0E0001CE19D8B40AD06B
:102880005A0E0001CD19D8B40CD05A0E0001CE1941
:10289000D8B407D05B0E0001CD6F5B0E0001CE6F88
:1028A00039D25A0E0001CD19D8A41ED011EC0DF06A
:1028B000000E0001866F250E0001876F000E0001DB
:1028C000886F000E0001896F030E00018A6F000EF1
:1028D00000018C6F800E8B6F000E00018E6F000E5A
:1028E0008D6F35EC05F01DD018EC0DF0000E0001D9
:1028F000866F240E0001876F000E0001886F000EA6
:102900000001896F020E00018A6F000E00018C6FBA
:10291000800E8B6F000E00018E6F000E8D6F35ECF8
:1029200005F0000E0001846F240E856F000E866F87
:10293000000E876F53EC07F0010E00019F6F000E31
:102940000001846F240E0001856F000E0001866F68
:10295000A5EC03F0000E0001806F240E0001816FD2
:10296000000E0001826F000E0001836F020E000155
:10297000846F18EC07F00009D8A407D000019F2B42
:102980000A0E00019F65DBD7B6D1010E00019F6FD3
:10299000400E0001846F240E0001856F000E0001BF
:1029A000866FA5EC03F0400E0001806F240E00013D
:1029B000816F000E0001826F400E0001836F020ED6
:1029C0000001846F18EC07F00009D8A407D00001BB
:1029D0009F2B0A0E00019F65DBD78DD1010E0001F0
:1029E0009F6F800E0001846F240E0001856F000E22
:1029F0000001866FA5EC03F0800E0001806F240EAD
:102A00000001816F000E0001826F800E0001836F54
:102A1000020E0001846F18EC07F00009D8A407D05B
:102A200000019F2B0A0E00019F65DBD764D1010EC8
:102A300000019F6FC00E0001846F240E0001856F9E
:102A4000000E0001866FA5EC03F0C00E0001806F40
:102A5000240E0001816F000E0001826FC00E000184
:102A6000836F020E0001846F18EC07F00009D8A4F0
:102A700007D000019F2B0A0E00019F65DBD73BD1D9
:102A8000010E00019F6F000E0001846F250E0001F2
:102A9000856F000E0001866FA5EC03F0000E0001AB
:102AA000806F250E0001816F000E0001826F000E05
:102AB0000001836F030E0001846F18EC07F000091A
:102AC000D8A407D000019F2B0A0E00019F65DBD719
:102AD00012D1010E00019F6F400E0001846F250E80
:102AE0000001856F000E0001866FA5EC03F0400E1B
:102AF0000001806F250E0001816F000E0001826FC2
:102B0000400E0001836F030E0001846F18EC07F084
:102B10000009D8A407D000019F2B0A0E00019F6571
:102B2000DBD7E9D0010E00019F6F800E0001846F9A
:102B3000250E0001856F000E0001866FA5EC03F0E5
:102B4000800E0001806F250E0001816F000E0001D4
:102B5000826F800E0001836F030E0001846F18ECFA
:102B600007F00009D8A407D000019F2B0A0E00012E
:102B70009F65DBD7C0D0010E00019F6FC00E000122
:102B8000846F250E0001856F000E0001866FA5EC95
:102B900003F0C00E0001806F250E0001816F000E52
:102BA0000001826FC00E0001836F030E0001846F6D
:102BB00018EC07F00009D8A407D000019F2B0A0EDB
:102BC00000019F65DBD797D0080E00019B6F0F0EA9
:102BD00000019B6501D09BD0010E00019F6F000E8C
:102BE00000019E6F000E9D6F00019B510001916FCF
:102BF000926B060ED890000191379237E82EFAD7E3
:102C000000019D510001912700019E510001922376
:102C1000000E000191250001996FFE0E0001922126
:102C200000019A6F000E0001916F260E926F000E48
:102C3000936F00019951000191250001946F0001EB
:102C40009A51000192210001956F000E000193211D
:102C50000001966F000194510001806F00019551B1
:102C60000001816F000196510001826F0001836BAA
:102C700062EC09F0000E00019E6F000E9D6F0001D6
:102C80009E510FE1400E00019D5DD8B00AD0DA0ED2
:102C9000F56E0D0000019D4B9E2B00019E5101E140
:102CA000F1D7A698A684F29E550EA76EAA0EA76E1F
:102CB000A682000E00019E6F000E9D6F00019E51C6
:102CC00023E1400E00019D5DD8B01ED0000E000132
:102CD0009925F66E260E9A21F76EF86A000EF822F4
:102CE0000800F550DA0AD8B408D000019F2B0A0E6C
:102CF00000019F6574D7000E0BD00001994B9A2BF1
:102D000000019D4B9E2BDAD700019B2B60D7010E53
:102D100000019C6F000197510001D8A4F28E0001C0
:102D200098510001D8A4F28C00019C511200000EB1
:102D30002C6E000E2D6E000E2E6E000E2F6E000EED
:102D4000306E000E316E080E0001CF19D8A461D18B
:102D5000000E326E58D13250020D000EF324F66E82
:102D6000240EF420F76EF86A000EF8220900A10E76
:102D7000F55E09000F0EF55AD8A049D03250020D69
:102D8000000EF324F66E240EF420F76EF86A000E9F
:102D9000F8220900F5CF09F00A00F5CF0AF02EEC71
:102DA0000BF009C01BF00AC01CF00BC01DF0330E65
:102DB0001E6E330E1F6E3F0E206ECFEC01F01BC057
:102DC0002CF01CC02DF01DC02EF03250020D000E54
:102DD000F324F66E240EF420F76EF86A000EF82243
:102DE0000900F5CF09F00A00F5CF0AF02EEC0BF040
:102DF00009C01BF00AC01CF00BC01DF0660E1E6E51
:102E0000A60E1F6E3F0E206ECFEC01F0B7D03250F1
:102E1000020D000EF324F66E240EF420F76EF86A0D
:102E2000000EF8220900A10EF55E09000F0EF55AFA
:102E3000D8B05CD03250020D000EF324F66E240E92
:102E4000F420F76EF86A000EF8220900E90EF55E2C
:102E50000900030EF55AD8A049D03250020D000ED9
:102E6000F324F66E240EF420F76EF86A000EF822B2
:102E70000900F5CF09F00A00F5CF0AF02EEC0BF0AF
:102E800009C01BF00AC01CF00BC01DF0000E1E6E26
:102E9000800E1F6E3E0E206ECFEC01F01BC02CF09A
:102EA0001CC02DF01DC02EF03250020D000EF32478
:102EB000F66E240EF420F76EF86A000EF822090070
:102EC000F5CF09F00A00F5CF0AF02EEC0BF009C09F
:102ED0001BF00AC01CF00BC01DF0000E1E6EE00EB1
:102EE0001F6E3F0E206ECFEC01F048D03250020D25
:102EF000000EF324F66E240EF420F76EF86A000E2E
:102F0000F8220900F5CF09F00A00F5CF0AF02EECFF
:102F10000BF009C01BF00AC01CF00BC01DF0CD0E59
:102F20001E6ECC0E1F6EBD0E206ECFEC01F01BC0CE
:102F30002CF01CC02DF01DC02EF03250020D000EE2
:102F4000F324F66E240EF420F76EF86A000EF822D1
:102F50000900F5CF09F00A00F5CF0AF02EEC0BF0CE
:102F600009C01BF00AC01CF00BC01DF0660E1E6EDF
:102F7000060E1F6E400E206ECFEC01F01BC02FF02E
:102F80001CC030F01DC031F03250020D000EF32491
:102F9000D96E020EF420DA6EDECF09F0DDCF0AF032
:102FA0002EEC0BF009C00CF00AC00DF00BC00EF0B7
:102FB0002CC00FF02DC010F02EC011F08AEC06F0DE
:102FC000D8A01ED02FC00CF030C00DF031C00EF0D4
:102FD0003250020D000EF324D96E020EF420DA6E88
:102FE000DECF09F0DDCF0AF02EEC0BF009C00FF0B8
:102FF0000AC010F00BC011F08AEC06F0D8B002D075
:10300000000E1200322A5C50325CD8A0A4D6010E09
:103010001200270E5D6472D0000E326E47D032501F
:10302000020D000EF324D96E020EF420DA6E010EAA
:10303000DB5006E1280EDE5CD8B002D0000E120094
:103040003250020D000EF324D96E020EF420DA6E17
:10305000010EDB5010E1C80EDE5CD8B00CD032504F
:10306000020D000EF324D96E020EF420DA6E5E0E0D
:10307000DE26010E19D03250020D000EF324D96E57
:10308000020EF420DA6E400EDE5C010EDE58D8B07F
:103090000CD03250020D000EF324D96E020EF42033
:1030A000DA6E960EDE26000EDD22322A5D50325C8C
:1030B000D8A0B5D75DC032F07F0E326401D00ED0FB
:1030C0003250020D000EF324D96E020EF420DA6E97
:1030D000000EDE6E000EDD6E322AEED780EC18F0A8
:1030E0000001C26F0001C251D8B405D05DC05CF0D0
:1030F0005A0E0001CD6F080E0001CF6F000E1200B6
:10310000000EF2BE010E186E000EF2BC010E196E1A
:10311000000E1D6E000E1B6E000E1A6EF29EF29CCB
:103120005A0E0001CD19D8A405D05A0E0001CE19AF
:10313000D8B40AD05A0E0001CD19D8B40CD05A0E0A
:103140000001CE19D8B407D05B0E0001CD6F5B0E25
:103150000001CE6FA4D15A0E0001CD19D8A417D00A
:1031600003EC0DF0000E076E250E086E000E096EC2
:10317000000E0A6E030E0B6E000E0D6E800E0C6EAE
:10318000000E0F6E000E0E6EEAEC05F016D00AEC83
:103190000DF0000E076E240E086E000E096E000E74
:1031A0000A6E020E0B6E000E0D6E800E0C6E000E7F
:1031B0000F6E000E0E6EEAEC05F0000E056E240E8A
:1031C000066E000E076E000E086E1BEC08F0010E76
:1031D000206E000E056E240E066E000E076E3EEC8D
:1031E00006F0000E016E240E026E000E036E000E3D
:1031F000046E020E056EEDEC07F00009D8A405D0B0
:10320000202A0A0E2064E5D73FD1010E206E400E21
:10321000056E240E066E000E076E3EEC06F0400EA4
:10322000016E240E026E000E036E400E046E020E3E
:10323000056EEDEC07F00009D8A405D0202A0A0E8F
:103240002064E5D721D1010E206E800E056E240E7C
:10325000066E000E076E3EEC06F0800E016E240E28
:10326000026E000E036E800E046E020E056EEDEC13
:1032700007F00009D8A405D0202A0A0E2064E5D75B
:1032800003D1010E206EC00E056E240E066E000ED8
:10329000076E3EEC06F0C00E016E240E026E000EAC
:1032A000036EC00E046E020E056EEDEC07F0000911
:1032B000D8A405D0202A0A0E2064E5D7E5D0010E57
:1032C000206E000E056E250E066E000E076E3EEC9B
:1032D00006F0000E016E250E026E000E036E000E4B
:1032E000046E030E056EEDEC07F00009D8A405D0BE
:1032F000202A0A0E2064E5D7C7D0010E206E400EAA
:10330000056E250E066E000E076E3EEC06F0400EB2
:10331000016E250E026E000E036E400E046E030E4B
:10332000056EEDEC07F00009D8A405D0202A0A0E9E
:103330002064E5D7A9D0010E206E800E056E250E03
:10334000066E000E076E3EEC06F0800E016E250E36
:10335000026E000E036E800E046E030E056EEDEC21
:1033600007F00009D8A405D0202A0A0E2064E5D76A
:103370008BD0010E206EC00E056E250E066E000E5F
:10338000076E3EEC06F0C00E016E250E026E000EBA
:10339000036EC00E046E030E056EEDEC07F000091F
:1033A000D8A405D0202A0A0E2064E5D76DD0080ED7
:1033B0001C6E0F0E1C6401D070D0010E206E000E2A
:1033C0001F6E000E1E6E1C50126E136A060ED890F1
:1033D00012361336E82EFBD71E5012261F5013222A
:1033E000000E12241A6EFE0E13201B6E000E126EBB
:1033F000260E136E000E146E1A501224156E1B50FA
:103400001320166E000E1420176E1550016E165004
:10341000026E1750036E046A37EC0AF0000E1F6E3E
:10342000000E1E6E1F500CE1400E1E5CD8B008D07E
:10343000DA0EF56E0D001E4A1F2A1F5001E1F4D767
:10344000A698A684F29E550EA76EAA0EA76EA68217
:10345000000E1F6E000E1E6E1F501DE1400E1E5C02
:10346000D8B019D0000E1A24F66E260E1B20F76E67
:10347000F86A000EF8220800F550DA0AD8B406D02F
:10348000202A0A0E20649BD7000E08D01A4A1B2A55
:103490001E4A1F2AE1D71C2A8CD7010E1D6E185018
:1034A000D8A4F28E1950D8A4F28C1D501200000E30
:1034B0000001A26F000E0001A36F000E0001A46FB7
:1034C000000E0001A56F000E0001A66F000E0001A6
:1034D000A76F080E0001CF19D8A4FCD0000E000180
:1034E000A86FF0D00001A8510001D8A451D000016C
:1034F000A851020D000EF324F66E250EF420F76E8F
:10350000F86A000EF8220900F5CF88F00A00F5CF1E
:1035100089F0CDEC0AF088C08BF089C08CF08AC0AD
:103520008DF0E10E00018E6F7A0E00018F6F3F0E5D
:103530000001906F21EC1EF08BC0A2F08CC0A3F0B4
:103540008DC0A4F00001A851020D000EF324F66E08
:10355000250EF420F76EF86A000EF8220900F5CF68
:1035600088F00A00F5CF89F0CDEC0AF088C08BF026
:1035700089C08CF08AC08DF08F0E00018E6F820E94
:1035800000018F6F3F0E0001906F21EC1EF050D0B4
:103590000001A851020D000EF324F66E250EF42052
:1035A000F76EF86A000EF8220900F5CF88F00A00DD
:1035B000F5CF89F0CDEC0AF088C08BF089C08CF093
:1035C0008AC08DF0000E00018E6F000E00018F6F1B
:1035D0003F0E0001906F21EC1EF08BC0A2F08CC05A
:1035E000A3F08DC0A4F00001A851020D000EF32439
:1035F000F66E250EF420F76EF86A000EF822090028
:10360000F5CF88F00A00F5CF89F0CDEC0AF088C03C
:103610008BF089C08CF08AC08DF0000E00018E6F97
:10362000C00E00018F6F3F0E0001906F21EC1EF065
:103630008BC0A5F08CC0A6F08DC0A7F00001A851EA
:10364000020D000EF324D96E030EF420DA6EDECFE5
:1036500088F0DDCF89F0CDEC0AF088C08BF089C00E
:103660008CF08AC08DF0A2C08EF0A3C08FF0A4C0F1
:1036700090F06FEC04F00001D8A020D0A5C08BF032
:10368000A6C08CF0A7C08DF00001A851020D000E5D
:10369000F324D96E030EF420DA6EDECF88F0DDCF8E
:1036A00089F0CDEC0AF088C08EF089C08FF08AC016
:1036B00090F06FEC04F00001D8B002D0000E1200C0
:1036C0000001A82B0001C6510001A85DD8A00AD7AF
:1036D000010E1200130E0001C86545D0000E000156
:1036E000A86F14D00001A851020D000EF324D96E6A
:1036F000030EF420DA6E010EDB5006E1050EDE5CEF
:10370000D8B002D0000E12000001A82B0001C85151
:103710000001A85DD8A0E6D7C8C0A8F07F0E0001C0
:10372000A86501D010D00001A851020D000EF324AD
:10373000D96E030EF420DA6E000EDE6E000EDD6E22
:103740000001A82BEBD722EC14F00001C26F00019E
:10375000C251D8B405D0C8C0C6F05A0E0001CE6F11
:10376000080E0001CF6F000E1200F8EC1FF044ECC1
:1037700009F006EC0AF049EC02F0BEEC02F0000E93
:1037800001018E6F040E8D6F000E0101906F320EDD
:103790008F6F9CEC08F08B98080E0001CF19D8A40D
:1037A000A3D00001C951D8B44ED08B985A0E000155
:1037B000CE19D8A420D00001C205D8A40DD0000E87
:1037C00001018E6F040E8D6F000E0101906F320E9D
:1037D0008F6F9CEC08F00CD0000E01018E6F060E6E
:1037E0008D6F000E0101906F4B0E8F6F9CEC08F0F7
:1037F0005B0E0001CE6F5A0E0001CD19D8A420D067
:103800000001C205D8A40DD0000E01018E6F040E78
:103810008D6F000E0101906F320E8F6F9CEC08F0DF
:103820000CD0000E01018E6F060E8D6F000E01018F
:10383000906F4B0E8F6F9CEC08F05B0E0001CD6F0C
:10384000000E0001C96F0001C751D8A408D00001C3
:10385000C451D8A404D00001C051D8B40DD08B8875
:1038600089EC07F0000E0001C76F000E0001C46F65
:10387000000E0001C06F8B98CAC080F1CBC081F1EF
:10388000CCC082F1000E0101836F600E0101846FD4
:10389000400E0101856F0BEC04F00101D8A014D09B
:1038A000000E0101806FB00E0101816F400E010119
:1038B000826FCAC083F1CBC084F1CCC085F10BEC20
:1038C00004F00101D8B00DD0640E0101846F000E28
:1038D000856F000E866F000E876FBCEC07F0100E30
:1038E0008B1A4FEC0AF02CD00A0E0001CF19D8A485
:1038F00027D0190E0101846F000E856F000E866FB0
:10390000000E876FBCEC07F0100E8B1A0001C75138
:10391000D8B409D0000E0001C76F080E0001CF6FA8
:10392000010E0001C96F0001C451D8B409D0000EC6
:103930000001C46F080E0001CF6F010E0001C96FB6
:103940000001B94BBA2B0001BA5105E10B0E000181
:10395000B95DD8A021D739EC0DF0000E0001BA6F87
:10396000000EB96F19D7E9CFABF0EACFACF0E1CFD9
:10397000ADF0E2CFAEF0D9CFAFF0DACFB0F0F3CF09
:10398000B1F0F4CFB2F0F6CFB3F0F7CFB4F0F8CF98
:10399000B5F0F5CFB6F0000E0001B86F000EB76FAE
:1039A000F0A0F0B201D074D025EC0DF00009D8A43D
:1039B00003D0CCEC0CF069D0D6CFB7F00001B86BD7
:1039C000D7500001B827B8EC0AF00001C551D8A4BF
:1039D00030D0080E0001CF19D8A418D00001BD5175
:1039E0000001B75D0001BE510001B859D8A021D037
:1039F0000001B7510001BB5D0001B8510001BC5985
:103A0000D8A017D0010E0001C56F13D0900E000191
:103A1000B75D010E0001B859D8A00BD0E90E000126
:103A2000B75D030E0001B859D8B003D0010E0001F4
:103A3000C56F0001C551D8B428D0C3EC0CF0800E7E
:103A40000001C86122D00001C851020D000EF3240C
:103A5000D96E030EF420DA6EB7C0DEFFB8C0DDFF0A
:103A60000001C82B0001C6510001C85DD8A00DD0CF
:103A70000001C751D8A404D057EC1AF00001C76F59
:103A8000000E6AEC0CF011EC0DF0F090F0920CD0FE
:103A9000F2A409D0000E6AEC0CF0B8EC0AF011ECBC
:103AA0000DF0F29401D000F0B6C0F5FFB5C0F8FFFC
:103AB000B4C0F7FFB3C0F6FFB2C0F4FFB1C0F3FF6C
:103AC000B0C0DAFFAFC0D9FFAEC0E2FFADC0E1FFCA
:103AD000ACC0EAFFABC0E9FFAAC0FBFFA9C0FAFF78
:103AE000609211008DC191F10101926B936B010104
:103AF0008C350101913701E392810101915101015E
:103B0000946F01019451D8A40AD0000E01018B6F6B
:103B1000000E01018C6F000E01018D6F120090C12B
:103B200091F10101926B936B01018F350101913786
:103B300001E39281010191510101996F01019951B4
:103B4000D8A40AD0000E01018B6F000E01018C6F0A
:103B5000000E01018D6F1200010199517B0F0101CF
:103B600094278DC199F1010190510101991B800E9B
:103B70000101991701018C8F01018F8FFF0E010147
:103B80008E17FF0E01018F17000E01019017000E16
:103B90000101956F000E0101966F000E0101976FF4
:103BA000070E0101986F01018BA10CD001018E510C
:103BB0000101952701018F510101962301019051C7
:103BC000010197230101D8908D338C338B33010190
:103BD000D8908E378F3790370101982FE4D7090E90
:103BE0000101986F01018BA10CD001018E510101DF
:103BF000952701018F510101962301019051010187
:103C000097230101D8908D338C338B330101D890E9
:103C10009733963395330101982FE4D795C180F1FE
:103C200096C181F197C182F194C183F199C184F168
:103C300072EC1FF080C18BF181C18CF182C18DF1DA
:103C400012008DC091F00001926B936B00018C35D6
:103C50000001913701E39281000191510001946FBD
:103C600000019451D8A40AD0000E00018B6F000E01
:103C700000018C6F000E00018D6F120090C091F05A
:103C80000001926B936B00018F350001913701E3C6
:103C90009281000191510001996F00019951D8A4BE
:103CA0000AD0000E00018B6F000E00018C6F000E19
:103CB00000018D6F1200000199517B0F00019427C4
:103CC0008DC099F0000190510001991B800E0001F8
:103CD000991700018C8F00018F8FFF0E00018E1746
:103CE000FF0E00018F17000E00019017000E00015B
:103CF000956F000E0001966F000E0001976F070E82
:103D00000001986F00018BA10CD000018E510001C1
:103D1000952700018F510001962300019051000169
:103D200097230001D8908D338C338B330001D890CA
:103D30008E378F3790370001982FE4D7090E000196
:103D4000986F00018BA10CD000018E5100019527C6
:103D500000018F510001962300019051000197232B
:103D60000001D8908D338C338B330001D89097337A
:103D7000963395330001982FE4D795C080F096C014
:103D800081F097C082F094C083F099C084F049EC30
:103D900001F080C08BF081C08CF082C08DF01200E9
:103DA00082C184F10101856B866B010181350101BE
:103DB000843701E385810101845101018E6F010186
:103DC0008E51D8A40AD0000E0101806F000E816FC1
:103DD000000E826F000E836F1200170E0101846FB8
:103DE00080C185F181C186F182C187F101018429F9
:103DF0000101886F05D00101D89087338633853360
:103E00000101882FF8D7010185510101896F010156
:103E1000818FFF0E01018017FF0E01018117000E37
:103E2000010182170101805101018A6F0101815155
:103E300001018B6F0101825101018C6F01018D6BBA
:103E40008E0E01018E5F01018EAF1AD001018E51DD
:103E5000800A8F0FD8B00AD0000E0101806F000ECB
:103E6000816F000E826F000E836F12000101D890E7
:103E70008D338C338B338A3301018E3FF7D71BD0C0
:103E8000170E01018E6512D0000E0101806F000E29
:103E9000816F000E826F000E836F12000101D890B7
:103EA0008A378B378C378D3701018E0701018E5190
:103EB0000101D8A4F3D7010189510101D8B409D077
:103EC00001018D1F8C1F8B1F8A6D000E8B238C238D
:103ED0008D238AC180F18BC181F18CC182F18DC1AA
:103EE00083F11200010183510101D8B408D001010E
:103EF00080510101811101018211D8A411D0000E5D
:103F00000101806F000E0101816F000E0101826FBF
:103F100012000101832B0101D89082338133803359
:103F2000000E010180150101856F000E0101811550
:103F30000101866FFE0E010182150101876F0101EB
:103F400085510101861101018711D8B411D0E1D743
:103F50000101832B010E01018027000E0101812345
:103F6000000E010182230101D89082338133803316
:103F7000000E010180150101856F000E0101811500
:103F80000101866FFF0E010182150101876F01019A
:103F900085510101861101018711D8B408D0D8D705
:103FA000010183070101D8908037813782370101F1
:103FB00081BF04D0020E01018361F2D7010183B1F8
:103FC00002D00101819F0101D89083330101835107
:103FD00001018213010184510101D8B402D0010111
:103FE000828F80C180F181C181F182C182F1120092
:083FF0009B8CD3B61200FDD733
:063FF800A0F405FFFFF13B
:00000001FF
