:040000004BEF01F0D1
:10000800FACFACF0FBCFADF0E9CFAEF01AEF1DF0B0
:10001800D8CF33F0E8CF34F0E0CF35F0FACF36F070
:10002800FBCF37F0E9CF38F0EACF39F0E1CF3AF03B
:10003800E2CF3BF0D9CF3CF0DACF3DF0F3CF3EF042
:10004800F4CF3FF0F6CF40F0F7CF41F0F8CF42F0D1
:10005800F5CF43F0000E476E000E466EF2A0B1D009
:1000680020EC0BF0456E05EC0BF0446E08EC0EF03E
:100078005950D8B43AD0000E11EC0EF04550D8B40F
:1000880017D0080E0001D219D8A409D0110E5E6E3F
:10009800010E046E900E036E0AEC0DF023D0130EC1
:1000A8005E6E000E046E080E036E0AEC0DF01AD098
:1000B8000A0E0001D219D8B40CD0010E0001C36F8A
:1000C800130E5E6E000E046E080E036E0AEC0DF041
:1000D80009D0120E5E6E010E046EF40E036E0AEC69
:1000E8000DF000D0000E596E6AD05A50D8B465D0C1
:1000F8006FEC0EF00009D8A403D01AEC0EF05AD019
:10010800CECF46F0476ACF50472659EC0CF05B50EB
:10011800D8A423D0080E0001D219D8A40FD051506A
:10012800465C52504758D8A018D046504F5C4750AC
:100138005058D8A012D0010E5B6E0FD0700E465CDE
:10014800170E4758D8A009D0110E465C270E4758FD
:10015800D8B003D0010E5B6E00D05B50D8B42AD063
:10016800E1EC0DF0800E5D6025D05D50020D000EB3
:10017800F324D96E020EF420DA6E46C0DEFF47C0C3
:10018800DDFF5D2A080E0001D219D8A413D05C50F7
:100198005D5CD8A00FD00001C751D8A405D0CCEC25
:1001A80018F00001C76F00D0000E23EC0EF07DECB4
:1001B8000EF000D0000E5A6E02D000F000D0F2907F
:1001C80043D09EA21FD05350555C54505658D8A0C7
:1001D80014D0000E11EC0EF0110E5E18D8A402D047
:1001E8000A0E05D0120E5E18D8A40AD0080E000117
:1001F800D26F010E0001CC6F03D0554A562A00D0A9
:100208009E9222D09EAC04D0E7EC05F09E9C1CD0B8
:100218009EA018D0000E23EC0EF00A0E0001D21991
:10022800D8A408D0270E5D6405D0CCEC18F00001E6
:10023800C76F00D059EC0CF07DEC0EF0CBEC0DF054
:100248009E9002D000F000D043C0F5FF42C0F8FFF6
:1002580041C0F7FF40C0F6FF3FC0F4FF3EC0F3FFC8
:100268003DC0DAFF3CC0D9FF3BC0E2FF3AC0E1FF26
:1002780039C0EAFF38C0E9FF37C0FBFF36C0FAFFD4
:1002880035C0E0FF34C0E8FF33C0D8FF1000E7EF07
:1002980007F0010183510101D8B408D00101805150
:1002A8000101811101018211D8A413D0000E0101AE
:1002B800806F000E0101816F000E0101826F120034
:1002C80008D00101832B0101D89082338133803318
:1002D80000D0000E010180150101856F000E01019B
:1002E80081150101866FFE0E010182150101876FDC
:1002F800010185510101861101018711D8B413D07C
:10030800E0D711D00101832B010E01018027000ED7
:1003180001018123000E010182230101D89082335B
:100328008133803300D0000E010180150101856FF3
:10033800000E010181150101866FFF0E0101821572
:100348000101876F010185510101861101018711A2
:10035800D8B40AD0D7D708D0010183070101D890B3
:1003680080378137823700D0010181BF05D0020E66
:1003780001018361F1D700D0010183B103D00101EC
:10038800819F00D00101D89083330101835101017D
:100398008213010184510101D8B403D00101828F75
:1003A80000D080C180F181C181F182C182F1120047
:1003B8001200000183510001D8B408D00001805117
:1003C8000001811100018211D8A413D0000E000190
:1003D800806F000E0001816F000E0001826F120015
:1003E80008D00001832B0001D890823381338033F9
:1003F80000D0000E000180150001856F000E00017D
:1004080081150001866FFE0E000182150001876FBD
:10041800000185510001861100018711D8B413D05D
:10042800E0D711D00001832B010E00018027000EB8
:1004380000018123000E000182230001D89082333D
:100448008133803300D0000E000180150001856FD4
:10045800000E000181150001866FFF0E0001821554
:100468000001876F00018551000186110001871185
:10047800D8B40AD0D7D708D0000183070001D89094
:1004880080378137823700D0000181BF05D0020E46
:1004980000018361F1D700D0000183B103D00001CE
:1004A800819F00D00001D89083330001835100015F
:1004B8008213000184510001D8B403D00001828F57
:1004C80000D080C080F081C081F082C082F012002C
:1004D80012001DC021F0226A236A1C34213601E370
:1004E80022802150246E2450D8A407D0000E1B6E01
:1004F800000E1C6E000E1D6E120020C021F0226A34
:10050800236A1F34213601E322802150296E2950A5
:10051800D8A407D0000E1B6E000E1C6E000E1D6EB8
:10052800120029507B0F24261DC029F02050291ABB
:10053800800E29161C8E1F8EFF0E1E16FF0E1F160C
:10054800000E2016000E256E000E266E000E276E79
:10055800070E286E00D01BA007D01E5025261F505E
:1005680026222050272200D0D8901D321C321B3260
:10057800D8901E361F362036282EEDD700D0090E0B
:10058800286E00D01BA007D01E5025261F502622FB
:100598002050272200D0D8901D321C321B32D89010
:1005A800273226322532282EEDD700D025C001F07B
:1005B80026C002F027C003F024C004F029C005F0CB
:1005C8004AEC06F001C01BF002C01CF003C01DF08D
:1005D800120012000EC012F0136A146A0D3412369B
:1005E80001E313801250196E1950D8A407D0000ED9
:1005F8000C6E000E0D6E000E0E6E120011C012F081
:10060800136A146A1034123601E3138012501A6EFA
:100618001A50D8A407D0000E0C6E000E0D6E000EF6
:100628000E6E1200000E166E000E176E000E186E7B
:100638001A50890F195E0EC01AF011501A1A800E3E
:100648001A160D8EFF0E0C16FF0E0D16000E0E1646
:10065800108EFF0E0F16FF0E1016000E1116180E34
:10066800156E00D0D8901636173618360F500C5C19
:1006780010500D5811500E58D8A007D00F500C5ECE
:1006880010500D5A11500E5A1680D8900C360D364F
:100698000E36152EE7D700D016C001F017C002F0AD
:1006A80018C003F019C004F01AC005F04AEC06F0AF
:1006B80001C00CF002C00DF003C00EF012001200D1
:1006C800000E01019A6F000E01019B6F000E0101DF
:1006D8009C6F000E01019D6F000E01019E6F000EC0
:1006E80001019F6F000EF66E250EF76E0900F5CF1B
:1006F80088F10A00F5CF89F1C5EC0BF088C18BF1C0
:1007080089C18CF18AC18DF1E10E01018E6F7A0EDB
:1007180001018F6F3F0E0101906FDAEC1DF08BC164
:100728009AF18CC19BF18DC19CF1000EF66E250EDD
:10073800F76E0900F5CF88F10A00F5CF89F1C5EC0D
:100748000BF088C18BF189C18CF18AC18DF18F0EB4
:1007580001018E6F820E01018F6F3F0E0101906FB4
:10076800DAEC1DF08BC19DF18CC19EF18DC19FF11A
:100778009AC180F19BC181F19CC182F146EC1FF0C6
:1007880080C1C0F081C1C1F09DC180F19EC181F1DD
:100798009FC182F146EC1FF080C1BEF081C1BFF05D
:1007A8000EEC0AF00001C96F1200000E01019A6FE9
:1007B800000E01019B6F000E01019C6F000E0101EC
:1007C8009D6F000E01019E6F000E01019F6F000ECC
:1007D800F66E240EF76E0900F5CF88F10A00F5CF02
:1007E80089F1C5EC0BF088C18BF189C18CF18AC104
:1007F8008DF1330E01018E6F330E01018F6F3F0EA5
:100808000101906FDAEC1DF08BC19AF18CC19BF15C
:100818008DC19CF1000EF66E240EF76E0900F5CF1F
:1008280088F10A00F5CF89F1C5EC0BF088C18BF18E
:1008380089C18CF18AC18DF1660E01018E6FA60EF9
:1008480001018F6F3F0E0101906FDAEC1DF08BC133
:100858009DF18CC19EF18DC19FF19AC180F19BC120
:1008680081F19CC182F146EC1FF080C151F081C139
:1008780052F09DC180F19EC181F19FC182F146EC89
:100888001FF080C14FF081C150F031EC0AF05C6E6E
:100898001200000184510001806F000185510001A0
:1008A800816F000186510001826F0001836B50EC5B
:1008B8000EF0000E00018C6F45D048D000018C511D
:1008C800020DF350000184250001876FF4500001E8
:1008D80085210001886F000E000186210001896FC3
:1008E80087C0F6FF88C0F7FF89C0F8FF0900F5CF79
:1008F8008AF00900F5CF8BF08BC08AF000018B6B72
:1009080000018A51F56E0D0000018C51020DF35063
:10091800000184250001876FF45000018521000142
:10092800886F000E000186210001896F87C0F6FFDD
:1009380088C0F7FF89C0F8FF0800F5CFF5FF0D0064
:1009480000018C2B1F0E00018C65B8D7A696A684D3
:10095800A698A3EC0EF0A68200D0A6B6FED7A69461
:100968001200010182AF1ED080C186F181C187F1DA
:1009780082C188F10101861F871F881F862B000E00
:1009880087238823000E010186250101806F000E50
:10099800010187210101816F800E01018821010178
:1009A800826F00D0010185AF1ED083C186F184C15A
:1009B80087F185C188F10101861F871F881F862B53
:1009C800000E87238823000E010186250101836F0D
:1009D800000E010187210101846F800E0101882129
:1009E8000101856F00D0000E0101801B000E01017E
:1009F800811B800E0101821B000E0101831B000E6A
:100A08000101841B800E0101851B01018351010135
:100A1800805D010184510101815901018551010164
:100A28008259D8B002D0D8901200D8801200120093
:100A380000018DAF1ED08BC091F08CC092F08DC09C
:100A480093F00001911F921F931F912B000E922388
:100A58009323000E0001912500018B6F000E000109
:100A6800922100018C6F800E0001932100018D6F8F
:100A780000D0000190AF1ED08EC091F08FC092F0D0
:100A880090C093F00001911F921F931F912B000EAD
:100A980092239323000E0001912500018E6F000E12
:100AA8000001922100018F6F800E00019321000147
:100AB800906F00D0000E00018B1B000E00018C1BF4
:100AC800800E00018D1B000E00018E1B000E000120
:100AD8008F1B800E0001901B00018E5100018B5D61
:100AE80000018F5100018C590001905100018D596E
:100AF800D8B002D0D8901200D88012001200000E90
:100B08000001906F000E8F6F89C080F08AC081F05D
:100B18008BC082F08CC083F096EC09F08DC08FF00A
:100B28008EC090F000018F5100019011D8B436D0DA
:100B380001D034D089C0D9FF8AC0DAFF200EDE6E1A
:100B4800000EDD6E020E00018927000E8A230001C7
:100B58008F07D8A09007E6D721D086C0F6FF87C0B8
:100B6800F7FF88C0F8FF89C0D9FF8AC0DAFF0900FB
:100B7800F5CFDEFF0800F5CFDDFF0001020E862766
:100B8800000E8723000E8823020E00018927000E1D
:100B98008A2300018B07D8A08C0700D086C0F6FFF7
:100BA80087C0F7FF88C0F8FF0900F5500900F51065
:100BB800D8B4120000018B5100018C11D8B4120076
:100BC800CCD712001200C4CF2AF02B6A2A502B6E01
:100BD8002A6AC3502A26000E2B22000E0F6E800EA2
:100BE800106E440E116E2AC009F02BC00AF06CEC8E
:100BF8000CF009C00CF00AC00DF00BC00EF0EEECC2
:100C080002F00CC01BF00DC01CF00EC01DF0330E1E
:100C18001E6E530E1F6E400E206E6DEC02F01BC050
:100C28002CF01CC02DF01DC02EF00A0E5F18D8A4A1
:100C380023D0E60E1E6E2A0E1F6E490E206E2CC0A3
:100C48001BF02DC01CF02EC01DF06DEC02F01BC077
:100C58000CF01CC00DF01DC00EF0500E0F6E430EB0
:100C6800106E480E116EEEEC02F00CC0CDF00DC007
:100C7800CEF00EC0CFF007D02CC04CF02DC04DF0F8
:100C88002EC04EF000D07FEC0CF012000450D8B407
:100C980005D0015002100310D8A40ED0000E016E2A
:100CA800000E026E000E036E120006D0042AD890C1
:100CB80003320232013200D0000E0114066E000E1B
:100CC8000214076EFE0E0314086E06500710081073
:100CD800D8B40ED0EBD70CD0042A010E0126000E92
:100CE8000222000E0322D89003320232013200D0D1
:100CF800000E0114066E000E0214076EFF0E031498
:100D0800086E065007100810D8B408D0E5D706D0EA
:100D18000406D89001360236033600D002BE04D04D
:100D2800020E0460F5D700D004B002D0029E00D0B5
:100D3800D8900432045003120550D8B402D0038E60
:100D480000D001C001F002C002F003C003F012009D
:100D58001200000E116E000E106E0AC001F00BC0DA
:100D680002F00CC003F00DC004F054EC0AF00EC001
:100D780010F00FC011F010501110D8B431D001D0BC
:100D88002FD00AC0D9FF0BC0DAFF200EDE6E000E8E
:100D9800DD6E020E0A26000E0B221006D8A01106E0
:100DA800EAD71ED007C0F6FF08C0F7FF09C0F8FF52
:100DB8000AC0D9FF0BC0DAFF0900F5CFDEFF080033
:100DC800F5CFDDFF020E0726000E0822000E0922CD
:100DD800020E0A26000E0B220C06D8A00D0600D023
:100DE80007C0F6FF08C0F7FF09C0F8FF0900F55073
:100DF8000900F510D8B412000C500D10D8B4120028
:100E0800D1D7120012000550016E0650026E07502D
:100E1800036E046A59EC0EF0000E0D6E34D036D015
:100E28000D50020DF3500524086EF4500620096E8B
:100E3800000E07200A6E08C0F6FF09C0F7FF0AC0B7
:100E4800F8FF0900F5CF0BF00900F5CF0CF00CC046
:100E58000BF00C6A0B50F56E0D000D50020DF3509F
:100E68000524086EF4500620096E000E07200A6E4D
:100E780008C0F6FF09C0F7FF0AC0F8FF0800F5CF61
:100E8800F5FF0D000D2A1F0E0D64CAD7A696A6847D
:100E9800A6989EEC0EF0A68200D0A6B6FED7A69421
:100EA80012000EAE17D00CC012F00DC013F00EC019
:100EB80014F0121E131E141E122A000E13221422DE
:100EC800000E12240C6E000E13200D6E800E1420DE
:100ED8000E6E00D011AE17D00FC012F010C013F074
:100EE80011C014F0121E131E141E122A000E132213
:100EF8001422000E12240F6E000E1320106E800EA6
:100F08001420116E00D0000E0C1A000E0D1A800E5F
:100F18000E1A000E0F1A000E101A800E111A0F501A
:100F28000C5C10500D5811500E58D8B002D0D89003
:100F38001200D88012001200000EF2BE010E00014D
:100F4800916F000EF2BC010E0001926FF29EF29CAE
:100F580000D08DC080F08EC081F08FC082F090C02C
:100F680083F050EC0EF0010E0001936FA696A68454
:100F7800A688A3EC0EF0A68200F000F0F40E0001A3
:100F8800846F010E856F000E866F000E876F0AEC66
:100F980009F0A694A6A608D00001932B0A0E00011A
:100FA800936102D0D6D700D0000191510001D8B486
:100FB80002D0F28E00D0000192510001D8B4120084
:100FC800F28C1200120003EE00F011EE00F0EE6A4F
:100FD800E550E150FCE1E250FAE102EE00F011EEDA
:100FE80000F0EE6AE550E150FCE1E250FAE101EE72
:100FF80000F0800EEE6AE806FDE100EEBCF0110E8E
:10100800EE6AE806FDE100EE48F0170EEE6AE80623
:10101800FDE1580EF66E1D0EF76E000EF86E00EE2E
:10102800CDF010EE06F00900F5CFEEFFE550E150E7
:10103800FAE1700EF66E1D0EF76E000EF86E0900DE
:10104800F5CF5FF0000EF86E000111EF1CF0000EF6
:10105800F2BE010E126E000EF2BC010E136EF29E6D
:10106800F29C00D00EC001F00FC002F010C003F0D7
:1010780011C004F059EC0EF0010E146EA696A68469
:10108800A6889EEC0EF0A68200F000F0F40E056E25
:10109800010E066E000E076E000E086EE9EC09F0F0
:1010A800A694A6A606D0142A0A0E146002D0DAD78F
:1010B80000D01250D8B402D0F28E00D01350D8B459
:1010C8001200F28C12001200000E00018A6F1F0E2F
:1010D80000018A6501D031D000018A51020DF35018
:1010E80000018325D96EF45000018421DA6E0001D5
:1010F8008A51020DF350000180250001876FF450DA
:10110800000181210001886F000E00018221000189
:10111800896F87C0F6FF88C0F7FF89C0F8FFDE50E7
:101128000900F51805E1DE500900F518D8B402D019
:10113800000E120000018A2BCAD7010E12001200FD
:101148000001C4510001D8A413D0000E23EC0DF007
:10115800010E17EC0DF0640E0101846F000E856F0F
:10116800000E866F000E876FD8EC08F0010E12D0C3
:10117800010E23EC0DF0000E17EC0DF0640E0101CA
:10118800846F000E856F000E866F000E876FD8EC97
:1011980008F0000E0001C46F00D0000E23EC0DF023
:1011A800000E17EC0DF01200000E0101896F000E01
:1011B8008A6F000E8B6F000E8C6F0FD0010E01012D
:1011C800816FD20E806F83EC0BF0010E010189272D
:1011D800000E8A238B238C2300D001018451010146
:1011E800895D0101855101018A5901018651010179
:1011F8008B5901018C51800A0101886F01018751C7
:10120800800A01018859D8A0D9D71200000E000120
:10121800896F000E8A6F000E8B6F000E8C6F0FD0D7
:10122800010E0001816FD20E806F07EC0CF0010EE9
:1012380000018927000E8A238B238C2300D000010C
:1012480084510001895D0001855100018A5900011E
:10125800865100018B5900018C51800A0001886F6A
:1012680000018751800A00018859D8A0D9D71200F7
:10127800000E0B6E1F0E0B6401D026D00B50020D12
:10128800F3500424D96EF4500520DA6E0B50020D89
:10129800F3500124086EF4500220096E000E03205A
:1012A8000A6E08C0F6FF09C0F7FF0AC0F8FFDE5053
:1012B8000900F51805E1DE500900F518D8B402D088
:1012C800000E12000B2AD6D7010E12001200000ED3
:1012D8000101856F000E846F000E0101856F000EFD
:1012E800846F15D0D89001018435D96E01018535F8
:1012F800DA6E01018051D92601018151DA22000EEE
:10130800DE6E000EDD6E0101844B852B00D00101DD
:1013180082510101845D0101835101018559D8A0E1
:10132800E1D71200000E0001856F000E846F000ED9
:101338000001856F000E846F15D0D89000018435A8
:10134800D96E00018535DA6E00018051D926000179
:101358008151DA22000EDE6E000EDD6E0001844B34
:10136800852B00D0000182510001845D000183516A
:1013780000018559D8A0E1D71200000E0101946F31
:10138800000E936F0FD08FC184F190C185F10101D8
:10139800866B876BD8EC08F0100E8B1A0101934B03
:1013A800942B00D08DC191F18EC192F1D89001019A
:1013B80091379237010191510101935D01019251D9
:1013C80001019459D8A0DFD71200000E0A6E000E52
:1013D8000B6E000E0C6E000E0D6E0DD0010E026E1F
:1013E800D20E016EB3EC0CF0010E0A26000E0B2291
:1013F8000C220D2200D005500A5C06500B580750ED
:101408000C580D50800A096E0850800A0958D8A057
:10141800E5D71200000E0101806F7F0E0101806583
:1014280001D018D001018051020D000EF324F66E90
:10143800250EF420F76EF86A000EF8220900F55020
:101448000900F510D8A403D0010180511200010150
:10145800802BE3D7800E12001200000E0101806F6E
:101468007F0E0101806501D018D001018051020D65
:10147800000EF324F66E240EF420F76EF86A000EC0
:10148800F8220900F5500900F510D8A403D001018D
:10149800805112000101802BE3D7800E1200120048
:1014A800000E066E000E056E000E066E000E056E2E
:1014B80010D0D8900534D96E0634DA6E0150D9268A
:1014C8000250DA22000EDE6E000EDD6E054A062A94
:1014D80000D00350055C04500658D8A0EAD7120083
:1014E800010E83EC0DF0020EB0EC0AF0000E0101C3
:1014F800806F030E0101816F000E0101836F800E62
:10150800826F6BEC09F0010E77EC0DF0F08CF08E29
:10151800F18AF198010EE0EC0CF01200000E896ED1
:10152800000E8A6E000E8B6EC150F00B0D09C16E55
:1015380094809482928092829294929A93829384D5
:10154800939694949486948A949893809388938A93
:101558009286949C949E12000101806F0101805133
:101568000101D8A403D08B9C8B9E12000101800539
:10157800D8A403D08B8C8B9E1200020E0101801917
:10158800D8A403D08B9C8B8E12008B8C8B8E120070
:10159800120081CF80F1010180BB0BD00001C25144
:1015A800D8A402D0010E596E010E0001C26F010EBF
:1015B80012000001C205D8A402D0010E596E000E17
:1015C8000001C26F000E1200120081CF80F10101EC
:1015D80080A90BD00001C651D8A402D0010E5A6EC2
:1015E800010E0001C66F010E12000001C605D8A445
:1015F80002D0010E5A6E000E0001C66F000E1200D6
:10160800120081CF01F001A80BD00001C651D8A467
:1016180002D0010E5A6E010E0001C66F010E1200B3
:101628000001C605D8A402D0010E5A6E000E0001B2
:10163800C66F000E1200120081CF01F001BA0BD064
:101648000001C251D8A402D0010E596E010E00014A
:10165800C26F010E12000001C205D8A402D0010E0B
:10166800596E000E0001C26F000E1200120061ECEC
:101678000EF074EC0AF068EC0EF0EEEC0CF0A8EC4E
:101688000EF0B2EC0EF0B4EC0EF032EC0CF0CDEC47
:101698000AF0E9EC0AF0F290D08EF28EF28C120089
:1016A8000101826F000E53EC0DF00F0E010182193B
:1016B800D8A406D0CF0ECD16010EA3EC0CF006D0A0
:1016C800300ECD12000EA3EC0CF000D099EC0BF00C
:1016D80012004B504A1006E1E90E485C030E4958C7
:1016E800D8A005D0FFEC0DF0AFEC0EF01200010E03
:1016F8004826000E49224A224B2212001200000EF0
:101708000101836F000E826F05D000F00101824B4A
:10171800832B00D0010180510101825D01018151BB
:1017280001018359D8A0F1D71200000ECDB0010EE7
:101738000101816F000E53EC0DF0000ECF6E020E0A
:10174800CE6E010181510101D8B41200010E53EC93
:101758000DF012001200000ED5BE010E0101816FBE
:10176800000E6BEC0DF0000ED76E020ED66E010166
:1017780081510101D8B41200010E6BEC0DF012007A
:10178800120088C180F189C181F10101826B8E0E3E
:101798000101836F000E0101846F4DEC01F080C1DF
:1017A80088F181C189F182C18AF112001200000E0C
:1017B800D5BE010E0001816F000EB3EC0DF0000ED6
:1017C800D76E020ED66E000181510001D8B4120006
:1017D800010EB3EC0DF01200120088C080F089C031
:1017E80081F00001826B8E0E0001836F000E0001F4
:1017F800846FDDEC01F080C088F081C089F082C080
:101808008AF012001200000E0001836F000E826F32
:1018180005D000F00001824B832B00D000018051DD
:101828000001825D0001815100018359D8A0F1D7E0
:101838001200000ECAB4010E026E000E11EC0EF07A
:10184800000E566E000E556E000ECC6E0250D8B4C7
:101858001200010E11EC0EF012001200C19AC1988C
:10186800C08EC086C088C08AC050F80B0609C06EFA
:101878009F9C46EC0CF0010EA7EC0DF0010E9BECC2
:101888000DF012000A0E5F18D8A407D00B0E5F6E79
:10189800C250C30B0409C26E12000A0E5F6EC294D6
:1018A800C296C298C29A12001200000ECDB0010E64
:1018B800026E000E23EC0EF0000ECF6E020ECE6EFE
:1018C8000250D8B41200010E23EC0EF012001200E0
:1018D80009C001F00AC002F0036A8E0E046E000E01
:1018E800056E4AEC06F001C009F002C00AF003C018
:1018F8000BF0120012000A0E5F18D8A407D00B0EC6
:101908005F6EC250C30B0409C26E12000A0E5F6EEE
:10191800C294C296C298C29A12001200000E6BECD2
:101928000DF0AFEC0BF0D59CD59AD596D550F80BA9
:101938000509D56EF184010E5FEC0DF0120001016E
:10194800806F010180510101D8B404D0CD8CCD86BF
:10195800CD821200CD9CCD96CD9212001200000EC1
:10196800046E000E036E04D000F0034A042A00D06F
:101978000150035C02500458D8A0F6D71200000E9C
:101988003BEC0DF0CA86CA88CA8ACA8C030ECA12F2
:101998009F92CB68010E2FEC0DF01200000E53EC55
:1019A8000DF099EC0BF0CD8E100E54EC0BF09F90CF
:1019B800010E47EC0DF012000101806F010180510A
:1019C8000101D8B403D0F086F0881200F096F098A0
:1019D80012001200000E0101806F020E0101816FDA
:1019E800000E0101836F800E826F6BEC09F012000C
:1019F8000001806F000180510001D8B403D0F08647
:101A0800F0881200F096F09812001200000E11EC07
:101A18000EF003C053F004C054F01DEC0CF0010E9E
:101A280011EC0EF012000101806F010180510101DB
:101A3800D8B402D08B8412008B94120012000101DA
:101A4800806F010180510101D8B402D08A8612004A
:101A58008A96120012000101806F01018051010174
:101A6800D8B402D09D8212009D921200120001018A
:101A7800806F010180510101D8B402D0CA841200DC
:101A8800CA94120012000101806F01018051010106
:101A9800D8B402D09D8012009D901200120001015E
:101AA800806F010180510101D8B402D0CD801200AD
:101AB800CD90120012000101806F010180510101D7
:101AC800D8B402D0F28A1200F29A12001200010170
:101AD800806F010180510101D8B402D0D58E120067
:101AE800D59E120012000101806F01018051010191
:101AF800D8A402D0898A1200899A12001200010122
:101B0800806F010180510101D8A402D0898412009C
:101B18008994120012000101806F010180510101B6
:101B2800D8B402D0F2861200F29612001200010117
:101B3800806F010180510101D8B402D0C280120027
:101B4800C290120012000101806F01018051010151
:101B5800D8B402D09D8C12009D9C12001200000186
:101B6800806F000180510001D8B402D0D58E1200D8
:101B7800D59E120012000001806F00018051000103
:101B8800D8B402D0F28A1200F29A12001200000EA3
:101B9800016E020E026E000E046E800E036E54EC8F
:101BA8000AF01200016E0150D8B403D0F086F08814
:101BB8001200F096F09812001200000ED6EC0DF00C
:101BC800000E35EC0EF0000E2CEC0EF01200F0902A
:101BD800F092F294010ED6EC0DF0010E35EC0EF0F9
:101BE8001200F090F092F294010EFCEC0CF0010E51
:101BF800BFEC0DF01200000E486E000E496E000E8C
:101C08004A6E000E4B6E1200000E486E000E496EB2
:101C1800000E4A6E000E4B6E1200016E0150D8B4D1
:101C280002D0CA841200CA9412001200000E23ECDB
:101C38000EF059EC0CF0010E23EC0EF01200016EC0
:101C48000150D8B402D0CD801200CD9012001200FD
:101C5800016E0150D8B402D0D58E1200D59E120064
:101C68001200016E0150D8B402D0F28A1200F29A22
:101C780012001200000E486E000E496E000E4A6EE9
:101C8800000E4B6E1200000EB3EC0DF0DBEC0BF007
:101C9800010EB3EC0DF01200000182512F0BF86E0B
:101CA80081C0F7FF80C0F6FF120003502F0BF86EBB
:101CB80002C0F7FF01C0F6FF120092EC0CF0D2EC64
:101CC8000CF0C3EC0CF01200F190CDEC0AF0010E10
:101CD8008FEC0DF01200CDA002D0010E1200000E04
:101CE80012001200000E0001CB6F000E0001C86F39
:101CF8001200000E5D6E000E5B6EEBEC0DF0120034
:101D0800D5AE02D0010E1200000E12001200000E15
:101D18000001CB6F000E0001C86F1200000E5D6E4F
:101D2800000E5B6EF5EC0DF012009B8C00D0D3A674
:101D3800FED71200550EA76EAA0EA76E1200550EFA
:101D4800A76EAA0EA76E1200000EEFEC1FF012008D
:101D58000090405B5B08D39E0300120000F0120065
:0A1D680000F01200C28212000A000F
:1024000098216810C201B004C201C201C201B00427
:10241000C201B004C201C201C201B004C201C201C2
:10242000C201B004C201C201C201B004C201C201B2
:10243000C201C201C201B004C201C201C201B004A2
:10244000C201C201C201C201C201B004C201C20183
:10245000C201B004C201C201C201C201C201C20173
:10246000C201C201C201B004C201C201C201B00472
:10247000C201C201C201B004C201B004C201B00471
:10248000C201B004C2010000000000000000000012
:10249000000000000000000000000000000000003C
:1024A000000000000000000000000000000000002C
:1024B000000000000000000000000000000000001C
:1024C000000000000000000000000000000000000C
:1024D00000000000000000000000000000000000FC
:1024E00000000000000000000000000000000000EC
:1024F00000000000000000000000000000000000DC
:102500004203150050001600500015004E004F0009
:102510001A0016004E004E001B0015004F004C0024
:10252000190017004F004B001B00150051004B0015
:1025300019001600510016004F0016005000180038
:102540004F004D0019004C001B00150050001500F5
:1025500051001500500016005000160051001600E2
:102560004F00160000000000000000000000000006
:10257000000000000000000000000000000000005B
:10258000000000000000000000000000000000004B
:10259000000000000000000000000000000000003B
:1025A000000000000000000000000000000000002B
:102800000050434220726576420000803F72313FA3
:10281000FE753E58633D951D3CC5AE3A792139940D
:10282000803793A73556153400000000803FF0FF35
:10283000BEE2A93E8376BEAE2B3E3CC3BDD2133D65
:1028400078D3BB00000EF2BE010E00019A6F000E9D
:10285000F2BC010E00019B6F000E00019F6F000E85
:1028600000019D6F000E9C6FF29EF29C5A0E0001BB
:10287000D019D8A407D05A0E0001D119D8A402D07B
:102880000BD012D05A0E0001D019D8B40DD05A0E68
:102890000001D119D8B408D05B0E0001D06F5B0ED7
:1028A0000001D16F61D200D05A0E0001D019D8A416
:1028B0001ED08BEC0EF0000E0001866F250E00017D
:1028C000876F000E0001886F000E0001896F030EF4
:1028D00000018A6F000E00018C6F800E8B6F000E5E
:1028E00000018E6F000E8D6F83EC05F01ED092EC10
:1028F0000EF0000E0001866F240E0001876F000E9F
:102900000001886F000E0001896F020E00018A6FBE
:10291000000E00018C6F800E8B6F000E00018E6F19
:10292000000E8D6F83EC05F000D0000E00018D6F5E
:10293000240E8E6F000E8F6F000E906FA0EC07F0CC
:10294000010E0001A26F00D0000E0001846F240E62
:102950000001856F000E0001866F4DEC04F0000E43
:102960000001806F240E0001816F000E0001826F54
:10297000000E0001836F020E0001846F68EC08F006
:102980000009D8A40AD00001A22B0A0E0001A265FA
:10299000DBD7D7D102D0D8D700D0010E0001A26F6B
:1029A00000D0400E0001846F240E0001856F000EE0
:1029B0000001866F4DEC04F0400E0001806F240E84
:1029C0000001816F000E0001826F400E0001836FD5
:1029D000020E0001846F68EC08F00009D8A40AD048
:1029E0000001A22B0A0E0001A265DBD7AAD102D0FA
:1029F000D8D700D0010E0001A26F00D0800E0001D8
:102A0000846F240E0001856F000E0001866F4DEC6F
:102A100004F0800E0001806F240E0001816F000E13
:102A20000001826F800E0001836F020E0001846F2F
:102A300068EC08F00009D8A40AD00001A22B0A0E05
:102A40000001A265DBD77DD102D0D8D700D0010E1E
:102A50000001A26F00D0C00E0001846F240E00019F
:102A6000856F000E0001866F4DEC04F0C00E000172
:102A7000806F240E0001816F000E0001826FC00E76
:102A80000001836F020E0001846F68EC08F00009FA
:102A9000D8A40AD00001A22B0A0E0001A265DBD740
:102AA00050D102D0D8D700D0010E0001A26F00D0C3
:102AB000000E0001846F250E0001856F000E0001DD
:102AC000866F4DEC04F0000E0001806F250E0001B2
:102AD000816F000E0001826F000E0001836F030EF4
:102AE0000001846F68EC08F00009D8A40AD0000146
:102AF000A22B0A0E0001A265DBD723D102D0D8D7C2
:102B000000D0010E0001A26F00D0400E0001846FC2
:102B1000250E0001856F000E0001866F4DEC04F05C
:102B2000400E0001806F250E0001816F000E000134
:102B3000826F400E0001836F030E0001846F68EC0A
:102B400008F00009D8A40AD00001A22B0A0E000147
:102B5000A265DBD7F6D002D0D8D700D0010E000195
:102B6000A26F00D0800E0001846F250E0001856FDA
:102B7000000E0001866F4DEC04F0800E0001806FA6
:102B8000250E0001816F000E0001826F800E000192
:102B9000836F030E0001846F68EC08F00009D8A46D
:102BA0000AD00001A22B0A0E0001A265DBD7C9D012
:102BB00002D0D8D700D0010E0001A26F00D0C00E05
:102BC0000001846F250E0001856F000E0001866FE5
:102BD0004DEC04F0C00E0001806F250E0001816FE6
:102BE000000E0001826FC00E0001836F030E000112
:102BF000846F68EC08F00009D8A40AD00001A22B69
:102C00000A0E0001A265DBD79CD002D0D8D700D035
:102C1000080E00019E6F0F0E00019E6501D0A1D02D
:102C2000010E0001A26F000E0001A16F000EA06F47
:102C300000019E510001946F956B060ED890000123
:102C400094379537E82EFAD70001A0510001942758
:102C50000001A15100019523000E000194250001FF
:102C60009C6FFE0E0001952100019D6F000E00017A
:102C7000946F260E956F000E966F00019C51000117
:102C800094250001976F00019D51000195210001DD
:102C9000986F000E000196210001996F0001975175
:102CA0000001806F000198510001816F000199516E
:102CB0000001826F0001836B50EC0EF0000E0001EA
:102CC000A16F000EA06F0001A15111E1400E0001A3
:102CD000A05DD8B00CD001D00AD0DA0EF56E0D0090
:102CE0000001A04BA12B0001A15101E1EFD7A68467
:102CF000A698A3EC0EF0A682A684000E0001A16F98
:102D0000000EA06F0001A15129E1400E0001A05D5D
:102D1000D8B024D001D022D0000E00019C25F66E40
:102D2000260E9D21F76EF86A000EF8220800F55075
:102D3000DA0AD8B40BD00001A22B0A0E0001A2655A
:102D400072D7000E0FD002D06ED700D000019C4B7E
:102D50009D2B0001A04BA12BD5D700D000019E2BAD
:102D60005AD7010E00019F6F00019A510001D8B49B
:102D700002D0F28E00D000019B510001D8B402D0E5
:102D8000F28C00D000019F5112001200000EF2BE22
:102D9000010E1B6E000EF2BC010E1C6E000E206EAA
:102DA000000E1E6E000E1D6EF29EF29C5A0E000169
:102DB000D019D8A407D05A0E0001D119D8A402D036
:102DC0000BD012D05A0E0001D019D8B40DD05A0E23
:102DD0000001D119D8B408D05B0E0001D06F5B0E92
:102DE0000001D16FCCD100D05A0E0001D019D8A467
:102DF00017D076EC0EF0000E076E250E086E000E52
:102E0000096E000E0A6E030E0B6E000E0D6E800E24
:102E10000C6E000E0F6E000E0E6EADEC06F017D0AD
:102E20007DEC0EF0000E076E240E086E000E096E8B
:102E3000000E0A6E020E0B6E000E0D6E800E0C6EF2
:102E4000000E0F6E000E0E6EADEC06F000D0000E00
:102E50000E6E240E0F6E000E106E000E116E2BEC17
:102E600008F0010E236E00D0000E056E240E066ED3
:102E7000000E076E07EC07F0000E016E240E026EC6
:102E8000000E036E000E046E020E056E3CEC09F09F
:102E90000009D8A408D0232A0A0E2364E5D760D1FC
:102EA00002D0E2D700D0010E236E00D0400E056E96
:102EB000240E066E000E076E07EC07F0400E016E42
:102EC000240E026E000E036E400E046E020E056E9E
:102ED0003CEC09F00009D8A408D0232A0A0E236488
:102EE000E5D73ED102D0E2D700D0010E236E00D04C
:102EF000800E056E240E066E000E076E07EC07F0BE
:102F0000800E016E240E026E000E036E800E046EA3
:102F1000020E056E3CEC09F00009D8A408D0232A63
:102F20000A0E2364E5D71CD102D0E2D700D0010EEF
:102F3000236E00D0C00E056E240E066E000E076EC6
:102F400007EC07F0C00E016E240E026E000E036E39
:102F5000C00E046E020E056E3CEC09F00009D8A408
:102F600008D0232A0A0E2364E5D7FAD002D0E2D78C
:102F700000D0010E236E00D0000E056E250E066EE9
:102F8000000E076E07EC07F0000E016E250E026EB4
:102F9000000E036E000E046E030E056E3CEC09F08D
:102FA0000009D8A408D0232A0A0E2364E5D7D8D074
:102FB00002D0E2D700D0010E236E00D0400E056E85
:102FC000250E066E000E076E07EC07F0400E016E30
:102FD000250E026E000E036E400E046E030E056E8B
:102FE0003CEC09F00009D8A408D0232A0A0E236477
:102FF000E5D7B6D002D0E2D700D0010E236E00D0C4
:10300000800E056E250E066E000E076E07EC07F0AB
:10301000800E016E250E026E000E036E800E046E91
:10302000030E056E3CEC09F00009D8A408D0232A51
:103030000A0E2364E5D794D002D0E2D700D0010E67
:10304000236E00D0C00E056E250E066E000E076EB4
:1030500007EC07F0C00E016E250E026E000E036E27
:10306000C00E046E030E056E3CEC09F00009D8A4F6
:1030700008D0232A0A0E2364E5D772D002D0E2D703
:1030800000D0080E1F6E0F0E1F6401D076D0010E07
:10309000236E000E226E000E216E1F50156E166AF2
:1030A000060ED89015361636E82EFBD72150152679
:1030B00022501622000E15241D6EFE0E16201E6EC6
:1030C000000E156E260E166E000E176E1D5015247E
:1030D000186E1E501620196E000E17201A6E18500A
:1030E000016E1950026E1A50036E046A59EC0EF00C
:1030F000000E226E000E216E22500EE1400E215C69
:10310000D8B00AD001D008D0DA0EF56E0D00214AF1
:10311000222A225001E1F2D7A684A6989EEC0EF056
:10312000A682A684000E226E000E216E225023E19C
:10313000400E215CD8B01FD001D01DD0000E1D2440
:10314000F66E260E1E20F76EF86A000EF8220800B2
:10315000F550DA0AD8B409D0232A0A0E236499D785
:10316000000E0CD002D095D700D01D4A1E2A214A4D
:10317000222ADCD700D01F2A86D7010E206E1B50D2
:10318000D8B402D0F28E00D01C50D8B402D0F28C49
:1031900000D0205012001200000E2C6E000E2D6E7A
:1031A000000E2E6E000E2F6E000E306E000E316E71
:1031B000080E0001D219D8A463D1000E326E5AD184
:1031C0003250020D000EF324F66E240EF420F76E3A
:1031D000F86A000EF8220900A10EF55E09000F0E34
:1031E000F55AD8A049D03250020D000EF324F66EE5
:1031F000240EF420F76EF86A000EF8220900F5CFCD
:1032000009F00A00F5CF0AF06CEC0CF009C01BF0D5
:103210000AC01CF00BC01DF0330E1E6E330E1F6E65
:103220003F0E206E6DEC02F01BC02CF01CC02DF088
:103230001DC02EF03250020D000EF324F66E240E47
:10324000F420F76EF86A000EF8220900F5CF09F0B5
:103250000A00F5CF0AF06CEC0CF009C01BF00AC0B4
:103260001CF00BC01DF0660E1E6EA60E1F6E3F0EEC
:10327000206E6DEC02F0B7D03250020D000EF32438
:10328000F66E240EF420F76EF86A000EF82209009C
:10329000A10EF55E09000F0EF55AD8B05CD0325081
:1032A000020D000EF324F66E240EF420F76EF86A79
:1032B000000EF8220900E90EF55E0900030EF55A2A
:1032C000D8A049D03250020D000EF324F66E240E21
:1032D000F420F76EF86A000EF8220900F5CF09F025
:1032E0000A00F5CF0AF06CEC0CF009C01BF00AC024
:1032F0001CF00BC01DF0000E1E6E800E1F6E3E0EE9
:10330000206E6DEC02F01BC02CF01CC02DF01DC017
:103310002EF03250020D000EF324F66E240EF4202F
:10332000F76EF86A000EF8220900F5CF09F00A00DE
:10333000F5CF0AF06CEC0CF009C01BF00AC01CF0D1
:103340000BC01DF0000E1E6EE00E1F6E3F0E206EB5
:103350006DEC02F048D03250020D000EF324F66EF0
:10336000240EF420F76EF86A000EF8220900F5CF5B
:1033700009F00A00F5CF0AF06CEC0CF009C01BF064
:103380000AC01CF00BC01DF0CD0E1E6ECC0E1F6EC1
:10339000BD0E206E6DEC02F01BC02CF01CC02DF099
:1033A0001DC02EF03250020D000EF324F66E240ED6
:1033B000F420F76EF86A000EF8220900F5CF09F044
:1033C0000A00F5CF0AF06CEC0CF009C01BF00AC043
:1033D0001CF00BC01DF0660E1E6E060E1F6E400E1A
:1033E000206E6DEC02F01BC02FF01CC030F01DC031
:1033F00031F000D03250020D000EF324D96E020ECF
:10340000F420DA6EDECF09F0DDCF0AF06CEC0CF0C0
:1034100009C00CF00AC00DF00BC00EF02CC00FF06C
:103420002DC010F02EC011F055EC07F0D8A01ED022
:103430002FC00CF030C00DF031C00EF03250020D34
:10344000000EF324D96E020EF420DA6EDECF09F0FE
:10345000DDCF0AF06CEC0CF009C00FF00AC010F0E0
:103460000BC011F055EC07F0D8B002D0000E1200DE
:10347000322A00D05C50325CD8A0A2D6010E1200D5
:10348000270E5D646FD0000E326E4AD03250020DAE
:10349000000EF324D96E020EF420DA6E010EDB501A
:1034A00007E1280EDE5CD8B003D0000E120036D043
:1034B0003250020D000EF324D96E020EF420DA6EA3
:1034C000010EDB5010E1C80EDE5CD8B00CD03250DB
:1034D000020D000EF324D96E020EF420DA6E5E0E99
:1034E000DE26010E19D03250020D000EF324D96EE3
:1034F000020EF420DA6E400EDE5C010EDE58D8B00B
:103500000DD03250020D000EF324D96E020EF420BD
:10351000DA6E960EDE26000EDD2200D0322A00D0B2
:103520005D50325CD8A0B2D75DC032F00ED010D062
:103530003250020D000EF324D96E020EF420DA6E22
:10354000000EDE6E000EDD6E322A7F0E3264F0D782
:103550005DC05CF05A0E0001D06FC6EC16F00001A1
:10356000C56F00D0000E12001200000E0001A56F02
:10357000000E0001A66F000E0001A76F000E0001F3
:10358000A86F000E0001A96F000E0001AA6F080EBF
:103590000001D219D8A4FED0000E0001AB6FF2D00A
:1035A0000001AB510001D8A451D00001AB51020D74
:1035B000000EF324F66E250EF420F76EF86A000E66
:1035C000F8220900F5CF88F00A00F5CF89F0F1EC78
:1035D0000BF088C08BF089C08CF08AC08DF0E10EB2
:1035E00000018E6F7A0E00018F6F3F0E0001906F09
:1035F00090EC1EF08BC0A5F08CC0A6F08DC0A7F09B
:103600000001AB51020D000EF324F66E250EF420DE
:10361000F76EF86A000EF8220900F5CF88F00A006C
:10362000F5CF89F0F1EC0BF088C08BF089C08CF0FD
:103630008AC08DF08F0E00018E6F820E00018F6F99
:103640003F0E0001906F90EC1EF050D00001AB5186
:10365000020D000EF324F66E250EF420F76EF86AC4
:10366000000EF8220900F5CF88F00A00F5CF89F0A6
:10367000F1EC0BF088C08BF089C08CF08AC08DF023
:10368000000E00018E6F000E00018F6F3F0E0001D3
:10369000906F90EC1EF08BC0A5F08CC0A6F08DC092
:1036A000A7F00001AB51020D000EF324F66E250EBB
:1036B000F420F76EF86A000EF8220900F5CF88F0C2
:1036C0000A00F5CF89F0F1EC0BF088C08BF089C0CF
:1036D0008CF08AC08DF0000E00018E6FC00E0001CC
:1036E0008F6F3F0E0001906F90EC1EF08BC0A8F022
:1036F0008CC0A9F08DC0AAF000D00001AB51020D22
:10370000000EF324D96E030EF420DA6EDECF88F0BB
:10371000DDCF89F0F1EC0BF088C08BF089C08CF024
:103720008AC08DF0A5C08EF0A6C08FF0A7C090F023
:103730001CEC05F00001D8A020D0A8C08BF0A9C0D7
:103740008CF0AAC08DF00001AB51020D000EF324E5
:10375000D96E030EF420DA6EDECF88F0DDCF89F06B
:10376000F1EC0BF088C08EF089C08FF08AC090F029
:103770001CEC05F00001D8B002D0000E12000001D0
:10378000AB2B00D00001C9510001AB5DD8A008D718
:10379000010E1200130E0001CB6540D0000E000197
:1037A000AB6F15D00001AB51020D000EF324D96EA2
:1037B000030EF420DA6E010EDB5006E1050EDE5C2E
:1037C000D8B002D0000E12000001AB2B00D00001D7
:1037D000CB510001AB5DD8A0E5D7CBC0ABF010D08A
:1037E00013D00001AB51020D000EF324D96E030E6D
:1037F000F420DA6E000EDE6E000EDD6E0001AB2BE3
:103800007F0E0001AB65EDD7CBC0C9F05A0E0001A9
:10381000D16F22EC14F00001C56F00D0000E120031
:10382000120099EC0EF092EC0AF03BEC0BF064EC19
:1038300003F0D9EC03F0000E01018E6F040E8D6FC2
:10384000000E0101906F320E8F6FC1EC09F08B9862
:1038500000D0080E0001D219D8A4AAD00001CC5182
:10386000D8B453D08B985A0E0001D119D8A422D0C5
:103870000001C505D8A40DD0000E01018E6F040E05
:103880008D6F000E0101906F320E8F6FC1EC09F049
:103890000DD0000E01018E6F060E8D6F000E01011E
:1038A000906F4B0E8F6FC1EC09F000D05B0E0001E2
:1038B000D16F00D05A0E0001D019D8A422D0000137
:1038C000C505D8A40DD0000E01018E6F040E8D6FBA
:1038D000000E0101906F320E8F6FC1EC09F00DD018
:1038E000000E01018E6F060E8D6F000E0101906FAC
:1038F0004B0E8F6FC1EC09F000D05B0E0001D06F52
:1039000000D0000E0001CC6F00D00001CA51D8A435
:1039100008D00001C751D8A404D00001C351D8B4C5
:103920000ED08B88A4EC08F0000E0001CA6F000EC8
:103930000001C76F000E0001C36F8B9800D0CDC08F
:1039400080F1CEC081F1CFC082F1000E0101836F02
:10395000600E0101846F400E0101856FB5EC04F02B
:103960000101D8A014D0000E0101806FB00E01013A
:10397000816F400E0101826FCDC083F1CEC084F112
:10398000CFC085F1B5EC04F00101D8B00ED0640EC3
:103990000101846F000E856F000E866F000E876F29
:1039A000D8EC08F0100E8B1A00D06DEC0BF02DD077
:1039B0000A0E0001D219D8A428D0190E0101846F73
:1039C000000E856F000E866F000E876FD8EC08F032
:1039D000100E8B1A0001CA51D8B409D0000E000194
:1039E000CA6F080E0001D26F010E0001CC6F0001FA
:1039F000C751D8B40AD0000E0001C76F080E0001ED
:103A0000D26F010E0001CC6F00D00001BC4BBD2B6A
:103A10000001BD5105E10B0E0001BC5DD8A019D716
:103A2000B6EC0EF0000E0001BD6F000EBC6F11D79A
:103A30004BEF01F0EACFAFF0E1CFB0F0E2CFB1F061
:103A4000D9CFB2F0DACFB3F0F3CFB4F0F4CFB5F012
:103A5000F6CFB6F0F7CFB7F0F8CFB8F0F5CFB9F0B2
:103A6000000E0001BB6F000EBA6FF0B002D0F0A2E2
:103A700077D084EC0EF00009D8A403D047EC0EF008
:103A80006CD0D6CFBAF00001BB6BD7500001BB277A
:103A9000DBEC0BF00001C851D8A431D0080E0001B6
:103AA000D219D8A418D00001C0510001BA5D00019C
:103AB000C1510001BB59D8A022D00001BA51000168
:103AC000BE5D0001BB510001BF59D8A018D0010E46
:103AD0000001C86F14D0900E0001BA5D010E000104
:103AE000BB59D8A00CD0E90E0001BA5D030E00014D
:103AF000BB59D8B004D0010E0001C86F00D000013E
:103B0000C851D8B42AD03EEC0EF0800E0001CB6133
:103B100024D00001CB51020D000EF324D96E030E08
:103B2000F420DA6EBAC0DEFFBBC0DDFF0001CB2B94
:103B30000001C9510001CB5DD8A00FD00001CA51CE
:103B4000D8A405D0B5EC1AF00001CA6F00D0000E61
:103B5000B3EC0DF08BEC0EF000D0F090F0920DD0A5
:103B6000F2A409D0000EB3EC0DF0DBEC0BF08BEC03
:103B70000EF0F29402D000F000D0B9C0F5FFB8C04A
:103B8000F8FFB7C0F7FFB6C0F6FFB5C0F4FFB4C08A
:103B9000F3FFB3C0DAFFB2C0D9FFB1C0E2FFB0C0DB
:103BA000E1FFAFC0EAFFAEC0E9FFADC0FBFFACC0B4
:103BB000FAFF11008DC191F10101926B936B01012C
:103BC0008C350101913701E392810101915101018D
:103BD000946F01019451D8A40AD0000E01018B6F9B
:103BE000000E01018C6F000E01018D6F120090C15B
:103BF00091F10101926B936B01018F3501019137B6
:103C000001E39281010191510101996F01019951E3
:103C1000D8A40AD0000E01018B6F000E01018C6F39
:103C2000000E01018D6F1200010199517B0F0101FE
:103C300094278DC199F1010190510101991B800ECA
:103C40000101991701018C8F01018F8FFF0E010176
:103C50008E17FF0E01018F17000E01019017000E45
:103C60000101956F000E0101966F000E0101976F23
:103C7000070E0101986F00D001018BA10DD0010149
:103C80008E510101952701018F51010196230101F8
:103C900090510101972300D00101D8908D338C33CE
:103CA0008B330101D8908E378F3790370101982FD1
:103CB000E3D700D0090E0101986F00D001018BA15C
:103CC0000DD001018E510101952701018F51010194
:103CD0009623010190510101972300D00101D89052
:103CE0008D338C338B330101D890973396339533D2
:103CF0000101982FE3D700D095C180F196C181F1E1
:103D000097C182F194C183F199C184F14DEC01F026
:103D100080C18BF181C18CF182C18DF11200120042
:103D20008DC091F00001926B936B00018C35000106
:103D3000913701E39281000191510001946F0001DC
:103D40009451D8A40AD0000E00018B6F000E000120
:103D50008C6F000E00018D6F120090C091F0000179
:103D6000926B936B00018F350001913701E39281D3
:103D7000000191510001996F00019951D8A40AD016
:103D8000000E00018B6F000E00018C6F000E000111
:103D90008D6F1200000199517B0F000194278DC097
:103DA00099F0000190510001991B800E00019917B4
:103DB00000018C8F00018F8FFF0E00018E17FF0E08
:103DC00000018F17000E00019017000E0001956F83
:103DD000000E0001966F000E0001976F070E0001A4
:103DE000986F00D000018BA10DD000018E51000111
:103DF000952700018F510001962300019051000189
:103E0000972300D00001D8908D338C338B33000181
:103E1000D8908E378F3790370001982FE3D700D096
:103E2000090E0001986F00D000018BA10DD0000198
:103E30008E510001952700018F510001962300014A
:103E400090510001972300D00001D8908D338C331E
:103E50008B330001D8909733963395330001982F18
:103E6000E3D700D095C080F096C081F097C082F073
:103E700094C083F099C084F0DDEC01F080C08BF039
:103E800081C08CF082C08DF01200120082C184F1DA
:103E90000101856B866B010181350101843701E3E6
:103EA00085810101845101018E6F01018E51D8A4D9
:103EB0000AD0000E0101806F000E816F000E826F2C
:103EC000000E836F1200170E0101846F80C185F10F
:103ED00081C186F182C187F1010184290101886FC6
:103EE00005D00101D8908733863385330101882FAF
:103EF000F8D7010185510101896F0101818FFF0E02
:103F000001018017FF0E01018117000E01018217C8
:103F10000101805101018A6F0101815101018B6F03
:103F20000101825101018C6F01018D6B8E0E010127
:103F30008E5F01018EAF1BD001018E51800A8F0F61
:103F4000D8B00BD0000E0101806F000E816F000E03
:103F5000826F000E836F120000D00101D8908D3364
:103F60008C338B338A3301018E3FF7D71FD0170E66
:103F700001018E6514D0000E0101806F000E816F6B
:103F8000000E826F000E836F120009D00101D890DD
:103F90008A378B378C378D3701018E0700D00101AE
:103FA0008E510101D8B402D0F1D700D0010189515E
:103FB0000101D8B40AD001018D1F8C1F8B1F8A6D9F
:103FC000000E8B238C238D2300D08AC180F18BC1FE
:103FD00081F18CC182F18DC183F1120012000101C7
:103FE000806F010180510101D8B403D0949A8B9A5B
:083FF0001200948A1200120075
:063FF800A0F405FFFFF13B
:00000001FF
