:0400000047EF01F0D5
:0E0008006682FACFA9F0FBCFAAF012EF1DF02E
:100018006680D8CF39F0E8CF3AF0E0CF3BF0FACF9E
:100028003CF0FBCF3DF0E9CF3EF0EACF3FF0E1CF27
:1000380040F0E2CF41F0D9CF42F0DACF43F0F3CF2E
:1000480044F0F4CF45F0F6CF46F0F7CF47F0F8CFBD
:1000580048F0F5CF49F0000E4D6E000E4C6EF2A040
:10006800ACD075EC0CF04B6E5BEC0CF04A6E48ECC7
:100078000FF05F50D8B439D0000E6CEC0FF04B5035
:10008800D8B417D0080E0001CF19D8A409D0110E82
:10009800646E010E046E900E036E41EC0EF022D0D9
:1000A800130E646E000E046E080E036E41EC0EF023
:1000B80019D00A0E0001CF19D8B40CD0010E0001D6
:1000C800C06F130E646E000E046E080E036E41ECD2
:1000D8000EF008D0120E646E010E046EF40E036E5C
:1000E80041EC0EF0000E5F6E66D06050D8B462D05E
:1000F800B6EC0FF00009D8A403D051EC0FF057D09C
:10010800CECF4CF04D6ACF504D26A5EC0DF0615086
:10011800D8A422D0080E0001CF19D8A40FD0575068
:100128004C5C58504D58D8A017D04C50555C4D5089
:100138005658D8A011D0010E616E0ED0700E4C5CCE
:10014800170E4D58D8A008D0110E4C5C270E4D58EC
:10015800D8B002D0010E616E6150D8B428D017EC27
:100168000FF0800E636023D06350020D000EF3245D
:10017800D96E020EF420DA6E4CC0DEFF4DC0DDFFF2
:10018800632A080E0001CF19D8A411D06250635C0D
:10019800D8A00DD00001C451D8A404D0BEEC18F0EA
:1001A8000001C46F000E74EC0FF0A1EC0FF0000E0C
:1001B800606E01D000F0F29042D09EA220D059503B
:1001C8005B5C5A505C58D8A014D0000E6CEC0FF051
:1001D800110E6418D8A402D00A0E05D0120E6418A5
:1001E800D8A40BD0080E0001CF6F010E0001C96F13
:1001F80004D048EC0FF05B4A5C2A9E9220D09EAC5B
:1002080004D0ECEC06F09E9C1AD09EA017D0000EED
:1002180074EC0FF00A0E0001CF19D8A407D0270EEE
:10022800636404D0BEEC18F00001C46FA5EC0DF0B7
:10023800A1EC0FF0F6EC0EF09E9001D000F049C052
:10024800F5FF48C0F8FF47C0F7FF46C0F6FF45C0B6
:10025800F4FF44C0F3FF43C0DAFF42C0D9FF41C0F6
:10026800E2FF40C0E1FF3FC0EAFF3EC0E9FF3DC0FA
:10027800FBFF3CC0FAFF3BC0E0FF3AC0E8FF39C0D3
:10028800D8FF669010003BEF09F082C084F00001AF
:10029800856B866B000181350001843701E3858118
:1002A8000001845100018E6F00018E51D8A40AD03C
:1002B800000E0001806F000E816F000E826F000E2D
:1002C800836F1200170E0001846F80C085F081C013
:1002D80086F082C087F0000184290001886F05D06C
:1002E8000001D8908733863385330001882FF8D7EB
:1002F800000185510001896F0001818FFF0E000107
:100308008017FF0E00018117000E000182170001FF
:10031800805100018A6F0001815100018B6F00013B
:10032800825100018C6F00018D6B8E0E00018E5F73
:1003380000018EAF1AD000018E51800A8F0FD8B0FD
:100348000AD0000E0001806F000E816F000E826FD0
:10035800000E836F12000001D8908D338C338B33DD
:100368008A3300018E3FF7D71BD0170E00018E6528
:1003780012D0000E0001806F000E816F000E826F98
:10038800000E836F12000001D8908A378B378C37A4
:100398008D3700018E0700018E510001D8A4F3D7D4
:1003A800000189510001D8B409D000018D1F8C1FAC
:1003B8008B1F8A6D000E8B238C238D238AC080F0BF
:1003C8008BC081F08CC082F08DC083F012000101D7
:1003D80083510101D8B408D0010180510101811174
:1003E80001018211D8A411D0000E0101806F000E06
:1003F8000101816F000E0101826F12000101832B40
:100408000101D890823381338033000E01018015B9
:100418000101856F000E010181150101866FFE0E35
:10042800010182150101876F0101855101018611C2
:1004380001018711D8B411D0E1D70101832B010E36
:1004480001018027000E01018123000E0101822392
:100458000101D890823381338033000E0101801569
:100468000101856F000E010181150101866FFF0EE4
:10047800010182150101876F010185510101861172
:1004880001018711D8B408D0D8D701018307010129
:10049800D890803781378237010181BF04D0020E9E
:1004A80001018361F2D7010183B102D00101819F6B
:1004B8000101D890833301018351010182130101A5
:1004C80084510101D8B402D00101828F80C180F12A
:1004D80081C181F182C182F11200000183510001C2
:1004E800D8B408D0000180510001811100018211A7
:1004F800D8A411D0000E0001806F000E0001816F9A
:10050800000E0001826F12000001832B0001D890B9
:10051800823381338033000E000180150001856F1E
:10052800000E000181150001866FFE0E0001821584
:100538000001876F000185510001861100018711B4
:10054800D8B411D0E1D70001832B010E0001802718
:10055800000E00018123000E000182230001D890C3
:10056800823381338033000E000180150001856FCE
:10057800000E000181150001866FFF0E0001821533
:100588000001876F00018551000186110001871164
:10059800D8B408D0D8D7000183070001D890803795
:1005A80081378237000181BF04D0020E00018361C8
:1005B800F2D7000183B102D00001819F0001D890D9
:1005C800833300018351000182130001845100012B
:1005D800D8B402D00001828F80C080F081C081F041
:1005E80082C082F0120003C005F0066A076A02346E
:1005F800053601E3068005500F6E0F50D8A409D0C8
:10060800000E016E000E026E000E036E000E046EE8
:100618001200170E056E01C006F002C007F003C0F5
:1006280008F00528096E04D0D8900832073206323F
:10063800092EFAD706500A6E028EFF0E0116FF0E1B
:100648000216000E031601500B6E02500C6E03507A
:100658000D6E0E6A8E0E0F5E0FAE16D00F50800A0A
:100668008F0FD8B009D0000E016E000E026E000E7A
:10067800036E000E046E1200D8900E320D320C324A
:100688000B320F3EF9D715D0170E0F640FD0000E9E
:10069800016E000E026E000E036E000E046E120054
:1006A800D8900B360C360D360E360F060F50D8A4E0
:1006B800F7D70A50D8B408D00E1E0D1E0C1E0B6CAE
:1006C800000E0C220D220E220BC001F00CC002F00D
:1006D8000DC003F00EC004F012001DC021F0226A04
:1006E800236A1C34213601E322802150246E2450D1
:1006F800D8A407D0000E1B6E000E1C6E000E1D6ED7
:10070800120020C021F0226A236A1F34213601E337
:1007180022802150296E2950D8A407D0000E1B6EC4
:10072800000E1C6E000E1D6E120029507B0F242631
:100738001DC029F02050291A800E29161C8E1F8EE4
:10074800FF0E1E16FF0E1F16000E2016000E256E39
:10075800000E266E000E276E070E286E1BA006D010
:100768001E5025261F50262220502722D8901D32A1
:100778001C321B32D8901E361F362036282EEED754
:10078800090E286E1BA006D01E5025261F502622B3
:1007980020502722D8901D321C321B32D890273285
:1007A80026322532282EEED725C001F026C002F0C9
:1007B80027C003F024C004F029C005F0ACEC07F012
:1007C80001C01BF002C01CF003C01DF01200000E97
:1007D80001019A6F000E01019B6F000E01019C6FD1
:1007E800000E01019D6F000E01019E6F000E0101B8
:1007F8009F6F000EF66E250EF76E0900F5CF88F193
:100808000A00F5CF89F12CEC0DF088C18BF189C174
:100818008CF18AC18DF1E10E01018E6F7A0E010112
:100828008F6F3F0E0101906FD1EC1DF08BC19AF1D3
:100838008CC19BF18DC19CF1000EF66E250EF76EF2
:100848000900F5CF88F10A00F5CF89F12CEC0DF0FD
:1008580088C18BF189C18CF18AC18DF18F0E01019C
:100868008E6F820E01018F6F3F0E0101906FD1ECE8
:100878001DF08BC19DF18CC19EF18DC19FF19AC174
:1008880080F19BC181F19CC182F12FEC1FF080C1E6
:10089800BDF081C1BEF09DC180F19EC181F19FC1B3
:1008A80082F12FEC1FF080C1BBF081C1BCF00DECD0
:1008B8000BF00001C66F1200000E00019A6F000EC7
:1008C80000019B6F000E00019C6F000E00019D6FE0
:1008D800000E00019E6F000E00019F6F000EF66E65
:1008E800250EF76E0900F5CF88F00A00F5CF89F0DC
:1008F80056EC0DF088C08BF089C08CF08AC08DF062
:10090800E10E00018E6F7A0E00018F6F3F0E00011D
:10091800906F80EC1EF08BC09AF08CC09BF08DC05D
:100928009CF0000EF66E250EF76E0900F5CF88F0E4
:100938000A00F5CF89F056EC0DF088C08BF089C01D
:100948008CF08AC08DF08F0E00018E6F820E000130
:100958008F6F3F0E0001906F80EC1EF08BC09DF0F2
:100968008CC09EF08DC09FF09AC080F09BC081F033
:100978009CC082F049EC01F080C0BDF081C0BEF09F
:100988009DC080F09EC081F09FC082F049EC01F0CC
:1009980080C0BBF081C0BCF051EC0BF00001C66F09
:1009A8001200000E01019A6F000E01019B6F000EEC
:1009B80001019C6F000E01019D6F000E01019E6FE9
:1009C800000E01019F6F000EF66E240EF76E0900EF
:1009D800F5CF88F10A00F5CF89F12CEC0DF088C12C
:1009E8008BF189C18CF18AC18DF1330E01018E6FB3
:1009F800330E01018F6F3F0E0101906FD1EC1DF096
:100A08008BC19AF18CC19BF18DC19CF1000EF66EE1
:100A1800240EF76E0900F5CF88F10A00F5CF89F1A9
:100A28002CEC0DF088C18BF189C18CF18AC18DF154
:100A3800660E01018E6FA60E01018F6F3F0E010138
:100A4800906FD1EC1DF08BC19DF18CC19EF18DC1D1
:100A58009FF19AC180F19BC181F19CC182F12FEC79
:100A68001FF080C157F081C158F09DC180F19EC12F
:100A780081F19FC182F12FEC1FF080C155F081C137
:100A880056F02FEC0BF0626E12000EC012F0136AD3
:100A9800146A0D34123601E313801250196E19507E
:100AA800D8A407D0000E0C6E000E0D6E000E0E6E50
:100AB800120011C012F0136A146A1034123601E3DE
:100AC800138012501A6E1A50D8A407D0000E0C6E5C
:100AD800000E0D6E000E0E6E1200000E166E000E49
:100AE800176E000E186E1A50890F195E0EC01AF094
:100AF80011501A1A800E1A160D8EFF0E0C16FF0EC4
:100B08000D16000E0E16108EFF0E0F16FF0E101685
:100B1800000E1116180E156ED890163617361836A0
:100B28000F500C5C10500D5811500E58D8A007D01B
:100B38000F500C5E10500D5A11500E5A1680D89056
:100B48000C360D360E36152EE7D716C001F017C035
:100B580002F018C003F019C004F01AC005F0ACEC9C
:100B680007F001C00CF002C00DF003C00EF0120037
:100B7800000E2A6E000E2B6E000E2C6E000E2D6ECF
:100B8800000E2E6E000E2F6E000EF66E240EF76EFF
:100B98000900F5CF09F00A00F5CF0AF0B7EC0DF01F
:100BA80009C01BF00AC01CF00BC01DF0330E1E6EEE
:100BB800330E1F6E3F0E206E71EC03F01BC02AF03F
:100BC8001CC02BF01DC02CF0000EF66E240EF76E24
:100BD8000900F5CF09F00A00F5CF0AF0B7EC0DF0DF
:100BE80009C01BF00AC01CF00BC01DF0660E1E6E7B
:100BF800A60E1F6E3F0E206E71EC03F01BC02DF089
:100C08001CC02EF01DC02FF02AC001F02BC002F02E
:100C18002CC003F0F7EC02F001C057F002C058F006
:100C28002DC001F02EC002F02FC003F0F7EC02F047
:100C380001C055F002C056F0ECEC0BF0626E1200E9
:100C4800010182AF1DD080C186F181C187F182C1C7
:100C580088F10101861F871F881F862B000E8723B6
:100C68008823000E010186250101806F000E010115
:100C780087210101816F800E010188210101826FA6
:100C8800010185AF1DD083C186F184C187F185C17B
:100C980088F10101861F871F881F862B000E872376
:100CA8008823000E010186250101836F000E0101D2
:100CB80087210101846F800E010188210101856F60
:100CC800000E0101801B000E0101811B800E010135
:100CD800821B000E0101831B000E0101841B800E84
:100CE8000101851B010183510101805D01018451CE
:100CF800010181590101855101018259D8B002D001
:100D0800D8901200D880120000018DAF1DD08BC082
:100D180091F08CC092F08DC093F00001911F921F4A
:100D2800931F912B000E92239323000E000191250F
:100D380000018B6F000E0001922100018C6F800E64
:100D48000001932100018D6F000190AF1DD08EC06E
:100D580091F08FC092F090C093F00001911F921F04
:100D6800931F912B000E92239323000E00019125CF
:100D780000018E6F000E0001922100018F6F800E1E
:100D8800000193210001906F000E00018B1B000EE3
:100D980000018C1B800E00018D1B000E00018E1BB4
:100DA800000E00018F1B800E0001901B00018E5168
:100DB80000018B5D00018F5100018C590001905199
:100DC80000018D59D8B002D0D8901200D8801200F6
:100DD800C4CF2AF02B6A2A502B6E2A6AC3502A26BF
:100DE800000E2B22000E0F6E800E106E440E116E38
:100DF8002AC009F02BC00AF0B7EC0DF009C00CF0BE
:100E08000AC00DF00BC00EF049EC05F00CC01BF049
:100E18000DC01CF00EC01DF0330E1E6E530E1F6E5B
:100E2800400E206E71EC03F01BC02CF01CC02DF09E
:100E38001DC02EF00A0E6518D8A423D0E60E1E6E2B
:100E48002A0E1F6E490E206E2CC01BF02DC01CF000
:100E58002EC01DF071EC03F01BC00CF01CC00DF08F
:100E68001DC00EF0500E0F6E430E106E480E116E20
:100E780049EC05F00CC0CAF00DC0CBF00EC0CCF0A8
:100E880006D02CC052F02DC053F02EC054F0C9EC3F
:100E98000DF01200000E0001906F000E8F6F89C0D8
:100EA80080F08AC081F08BC082F08CC083F0BCECEB
:100EB8000AF08DC08FF08EC090F000018F510001B4
:100EC8009011D8B432D089C0D9FF8AC0DAFF200E79
:100ED800DE6E000EDD6E020E00018927000E8A23E9
:100EE80000018F07D8A09007E8D786C0F6FF87C013
:100EF800F7FF88C0F8FF89C0D9FF8AC0DAFF090068
:100F0800F5CFDEFF0800F5CFDDFF0001020E8627D2
:100F1800000E8723000E8823020E00018927000E89
:100F28008A2300018B07D8A08C0786C0F6FF87C0EC
:100F3800F7FF88C0F8FF0900F5500900F510D8B48C
:100F4800120000018B5100018C11D8B41200CDD7CA
:100F58000450D8B405D0015002100310D8A40CD006
:100F6800000E016E000E026E000E036E1200042ABF
:100F7800D890033202320132000E0114066E000EC0
:100F88000214076EFE0E0314086E065007100810B0
:100F9800D8B40CD0ECD7042A010E0126000E022288
:100FA800000E0322D890033202320132000E0114DF
:100FB800066E000E0214076EFF0E0314086E06502C
:100FC80007100810D8B406D0E6D70406D890013622
:100FD8000236033602BE03D0020E0460F6D704A020
:100FE800029ED8900432045003120550D8A4038EF0
:100FF80001C001F002C002F003C003F01200000EAD
:10100800116E000E106E0AC001F00BC002F00CC089
:1010180003F00DC004F073EC0BF00EC010F00FC01D
:1010280011F010501110D8B42DD00AC0D9FF0BC040
:10103800DAFF200EDE6E000EDD6E020E0A26000EAE
:101048000B221006D8A01106ECD707C0F6FF08C07F
:10105800F7FF09C0F8FF0AC0D9FF0BC0DAFF090083
:10106800F5CFDEFF0800F5CFDDFF020E0726000EE4
:101078000822000E0922020E0A26000E0B220C0678
:10108800D8A00D0607C0F6FF08C0F7FF09C0F8FF93
:101098000900F5500900F510D8B412000C500D10D5
:1010A800D8B41200D2D7000184510001806F00012A
:1010B80085510001816F000186510001826F000196
:1010C800836BCEEC0BF0000E00018B6F1F0E00013E
:1010D8008B6501D01FD087C0D9FF88C0DAFFDF50E9
:1010E800F56E0D0087C0D9FF88C0DAFFDECF89F022
:1010F800DDCF8AF08AC089F000018A6B000189512E
:10110800F56E0D00020E00018727000E88230001EE
:101118008B2BDCD7000184510001806F00018551C1
:101128000001816F000186510001826F0001836B0D
:10113800CEEC0BF0A696A698A684F29E550EA76E46
:10114800AA0EA76EA6821200000E00018A6F000E7A
:1011580000018B6F1F0E00018B6501D037D0000195
:101168008B51020DF350000180250001856FF4506A
:10117800000181210001866F000E0001822100011B
:10118800876F85C0F6FF86C0F7FF87C0F8FF0900A4
:10119800F5CF88F00A00F5CF89F000018B51020DD8
:1011A800F35000018325D96EF45000018421DA6ED2
:1011B80000018851DE1805E100018951DE18D8B414
:1011C80002D000018A2B00018B2BC4D700018A5161
:1011D8000001D8B402D0000E1200010E12000EAEAB
:1011E80016D00CC012F00DC013F00EC014F0121E71
:1011F800131E141E122A000E13221422000E12248B
:101208000C6E000E13200D6E800E14200E6E11AEA3
:1012180016D00FC012F010C013F011C014F0121E37
:10122800131E141E122A000E13221422000E12245A
:101238000F6E000E1320106E800E1420116E000E1B
:101248000C1A000E0D1A800E0E1A000E0F1A000E40
:10125800101A800E111A0F500C5C10500D581150B6
:101268000E58D8B002D0D8901200D880120003EEE1
:1012780000F011EE00F0EE6AE550E150FCE1E250BA
:10128800FAE102EE00F011EE00F0EE6AE550E150EE
:10129800FCE1E250FAE101EE00F0800EEE6AE806A9
:1012A800FDE100EEB9F0110EEE6AE806FDE100EE90
:1012B8004EF0170EEE6AE806FDE1940EF66E1F0E6C
:1012C800F76E000EF86E00EECAF010EE06F0090098
:1012D800F5CFEEFFE550E150FAE1F60EF66E3F0E5F
:1012E800F76E000EF86E0900F5CF65F0669066920D
:1012F800000EF86E000103EF1CF00550016E065059
:10130800026E0750036E046AC0EC0CF0000E0C6EFF
:101318001F0E0C6401D01BD008C0D9FF09C0DAFF2A
:10132800DF50F56E0D0008C0D9FF09C0DAFFDECF27
:101338000AF0DDCF0BF00BC00AF00B6A0A50F56E0D
:101348000D00020E0826000E09220C2AE1D70550CE
:10135800016E0650026E0750036E046AC0EC0CF072
:10136800A696A698A684F29E550EA76EAA0EA76EFC
:10137800A6821200000E0B6E000E0C6E1F0E0C647F
:1013880001D028D00C50020DF3500124066EF45001
:101398000220076E000E0320086E06C0F6FF07C085
:1013A800F7FF08C0F8FF0900F5CF09F00A00F5CFEC
:1013B8000AF00C50020DF3500424D96EF4500520A5
:1013C800DA6E0950DE1803E10A50DE18D8A40B2A99
:1013D8000C2AD4D70B50D8B402D0000E1200010E3C
:1013E8001200000EF2BE010E0001886F000EF2BC62
:1013F800010E0001896FF29EF29C84C080F085C0C6
:1014080081F086C082F087C083F0CEEC0BF0010E2D
:1014180000018A6FA684A688F29E550EA76EAA0EB2
:10142800A76EA682A6A607D000018A2B0A0E000185
:101438008A6101D0E2D7000188510001D8A4F28E58
:10144800000189510001D8B41200F28C1200000189
:10145800C1510001D8A413D0000E72EC0EF0010E99
:1014680067EC0EF0640E0101846F000E856F000EAC
:10147800866F000E876F5EEC0AF0010E12D0010E27
:1014880072EC0EF0000E67EC0EF0640E0101846F32
:10149800000E856F000E866F000E876F5EEC0AF0F7
:1014A800000E0001C16F000E72EC0EF0000E67EC2A
:1014B8000EF01200000E0101896F000E8A6F000EF7
:1014C8008B6F000E8C6F0ED0010E0101816FD20E52
:1014D800806FEDEC0CF0010E01018927000E8A23C4
:1014E8008B238C23010184510101895D0101855100
:1014F80001018A590101865101018B5901018C5161
:10150800800A0101886F01018751800A0101885909
:10151800D8B01200D9D7000EF2BE010E096E000E27
:10152800F2BC010E0A6EF29EF29C05C001F006C0E4
:1015380002F007C003F008C004F0C0EC0CF0010E84
:101548000B6EA684A688F29E550EA76EAA0EA76EED
:10155800A682A6A605D00B2A0A0E0B6001D0E5D7F5
:101568000950D8A4F28E0A50D8B41200F28C120096
:10157800000E0001856F000E846F000E0001856F5C
:10158800000E846F14D0D89000018435D96E000104
:101598008535DA6E00018051D92600018151DA22A1
:1015A800000EDE6E000EDD6E0001844B852B0001FF
:1015B80082510001845D0001835100018559D8B032
:1015C8001200E1D7000E0101946F000E936F0ED048
:1015D8008FC184F190C185F10101866B876B5EEC48
:1015E8000AF0100E8B1A0101934B942B8DC191F1C7
:1015F8008EC192F1D8900101913792370101915132
:101608000101935D0101925101019459D8B0120072
:10161800DFD7000E0101806F7F0E0101806501D0C8
:1016280018D001018051020D000EF324F66E250E2C
:10163800F420F76EF86A000EF8220900F550090048
:10164800F510D8A403D00101805112000101802BAC
:10165800E3D7800E1200000E0101806F7F0E01019A
:10166800806501D018D001018051020D000EF324CD
:10167800F66E240EF420F76EF86A000EF8220900C0
:10168800F5500900F510D8A403D0010180511200CB
:101698000101802BE3D7800E1200000E0001806F3D
:1016A8007F0E0001806501D018D000018051020D25
:1016B800000EF324F66E250EF420F76EF86A000E7D
:1016C800F8220900F5500900F510D8A403D000014C
:1016D800805112000001802BE3D7800E1200000E0B
:1016E800066E000E056E000E066E000E056E0FD01B
:1016F800D8900534D96E0634DA6E0150D9260250D6
:10170800DA22000EDE6E000EDD6E054A062A035050
:10171800055C04500658D8B01200EAD7010ECAEC8E
:101728000EF0020E09EC0CF0000E0101806F030EA2
:101738000101816F000E0101836F800E826FD1EC71
:101748001FF0010EBFEC0EF0F08CF08EF18AF198CC
:10175800010E34EC0EF01200000E896E000E8A6E37
:10176800000E8B6EC150F00B0D09C16E94809482EF
:10177800928092829294929A93829384939694946C
:101788009486948A949893809388938A9286949C5A
:10179800949E1200000183510001821107E10001AB
:1017A8008005360E00018159D8A009D0000E00012D
:1017B800806F360E816F000E826F000E836F0001FE
:1017C80082512F0BF86E81C0F7FF80C0F6FF120020
:1017D800000E016E7F0E016401D015D00150020D7C
:1017E800000EF324F66E240EF420F76EF86A000E4D
:1017F800F8220900F5500900F510D8A402D00150CC
:101808001200012AE7D7800E12000101806F010142
:1018180080510101D8A403D08B9C8B9E120001013A
:101828008005D8A403D08B8C8B9E1200020E010178
:101838008019D8A403D08B9C8B8E12008B8C8B8E36
:10184800120081CF80F1010180BB0BD00001BF5194
:10185800D8A402D0010E5F6E010E0001BF6F010E09
:1018680012000001BF05D8A402D0010E5F6E000E61
:101878000001BF6F000E120081CF80F1010180A925
:101888000BD00001C351D8A402D0010E606E010E26
:101898000001C36F010E12000001C305D8A402D0D5
:1018A800010E606E000E0001C36F000E120081CFA2
:1018B80001F001A80BD00001C351D8A402D0010E39
:1018C800606E010E0001C36F010E12000001C30516
:1018D800D8A402D0010E606E000E0001C36F000E86
:1018E800120081CF01F001BA0BD00001BF51D8A47A
:1018F80002D0010E5F6E010E0001BF6F010E1200D3
:101908000001BF05D8A402D0010E5F6E000E0001D1
:10191800BF6F000E12008CEC0FF092EC0BF093EC02
:101928000FF026EC0EF0C6EC0FF0D3EC0FF0D5EC70
:101938000FF06BEC0DF025EC0CF040EC0CF0F29095
:10194800D08EF28EF28C12000101826F000E9EEC96
:101958000EF00F0E01018219D8A406D0CF0ECD16B5
:10196800010EFBEC0DF005D0300ECD12000EFBEC95
:101978000DF002EC0DF012000450031005E1010413
:10198800360E0258D8A008D0000E016E360E026E30
:10199800000E036E000E046E03502F0BF86E02C08B
:1019A800F7FF01C0F6FF12005150501006E1E90E92
:1019B8004E5C030E4F58D8A005D03FEC0FF0D0EC8A
:1019C8000FF01200010E4E26000E4F225022512217
:1019D8001200000E0101836F000E826F04D000F028
:1019E8000101824B832B010180510101825D0101BC
:1019F800815101018359D8B01200F1D7000ECDB042
:101A0800010E0101816F000E9EEC0EF0000ECF6EEC
:101A1800020ECE6E010181510101D8B41200010EEF
:101A28009EEC0EF01200000ED5BE010E0101816F72
:101A3800000EB4EC0EF0000ED76E020ED66E010149
:101A480081510101D8B41200010EB4EC0EF012005D
:101A580088C180F189C181F10101826B8E0E01017B
:101A6800836F000E0101846FEBEC01F080C188F1F7
:101A780081C189F182C18AF11200000ED5BE010E22
:101A88000001816F000E01EC0FF0000ED76E020E00
:101A9800D66E000181510001D8B41200010E01EC8C
:101AA8000FF0120088C080F089C081F00001826BBD
:101AB8008E0E0001836F000E0001846F71EC02F03E
:101AC80080C088F081C089F082C08AF01200C19A73
:101AD800C198C08EC086C088C08AC050F80B06095D
:101AE800C06E9F9C93EC0DF0010EEBEC0EF0010E16
:101AF800E0EC0EF01200000ECAB4010E026E000EE9
:101B08006CEC0FF0000E5C6E000E5B6E000ECC6E7F
:101B18000250D8B41200010E6CEC0FF012000A0E3D
:101B28006518D8A407D00B0E656EC250C30B040904
:101B3800C26E12000A0E656EC294C296C298C29A0C
:101B48001200000ECDB0010E026E000E74EC0FF004
:101B5800000ECF6E020ECE6E0250D8B41200010EE7
:101B680074EC0FF0120009C001F00AC002F0036A19
:101B78008E0E046E000E056EACEC07F001C009F085
:101B880002C00AF003C00BF012000A0E6518D8A4B0
:101B980007D00B0E656EC250C30B0409C26E12004B
:101BA8000A0E656EC294C296C298C29A1200000EBE
:101BB800B4EC0EF017EC0DF0D59CD59AD596D5500F
:101BC800F80B0509D56EF184010EA9EC0EF0120090
:101BD800000E88EC0EF0CA86CA88CA8ACA8C030E20
:101BE800CA129F92CB68010E7DEC0EF01200010123
:101BF800806F010180510101D8B404D0CD8CCD860D
:101C0800CD821200CD9CCD96CD921200F090F0922C
:101C1800F29440EC0CF025EC0CF0F2909E929E9C15
:101C28009E90F28EF28C1200000E9EEC0EF002ECEA
:101C38000DF0CD8E100EA8EC0CF09F90010E93ECD9
:101C48000EF01200000E0101806F020E0101816F7B
:101C5800000E0101836F800E826FD1EC1FF012001D
:101C68000101806F010180510101D8B403D0F086D1
:101C7800F0881200F096F0981200000E6CEC0FF04D
:101C880003C059F004C05AF07FEC0DF0010E6CEC63
:101C98000FF012000001806F000180510001D8B4DC
:101CA80003D0F086F0881200F096F0981200010137
:101CB800806F010180510101D8B403D0949A8B9AA6
:101CC8001200948A12000101806F01018051010104
:101CD800D8B402D08B8412008B9412000101806F5B
:101CE800010180510101D8B402D08A8612008A9677
:101CF80012000101806F010180510101D8B402D0A6
:101D08009D8212009D9212000101806F0101805195
:101D18000101D8B402D0CA841200CA941200010189
:101D2800806F010180510101D8B402D09D8012005A
:101D38009D9012000101806F010180510101D8B40A
:101D480002D0CD801200CD9012000101806F0101F8
:101D580080510101D8B402D0F28A1200F29A12001E
:101D68000101806F010180510101D8B402D0D58EE4
:101D78001200D59E12000101806F010180510101FE
:101D8800D8A402D0898A1200899A12000101806FB2
:101D9800010180510101D8A402D0898412008994DC
:101DA80012000101806F010180510101D8B402D0F5
:101DB800F2861200F29612000101806F0101805133
:101DC8000101D8B402D0C2801200C29012000101F1
:101DD800806F010180510101D8B402D09D8C12009E
:101DE8009D9C1200000E016E020E026E000E046E23
:101DF800800E036E73EC0BF012000001806F00017F
:101E080080510001D8B402D0D58E1200D59E1200A0
:101E18000001806F000180510001D8B402D0F28A1D
:101E28001200F29A1200000E2BEC0FF0000E84EC58
:101E38000FF0000E7CEC0FF01200F090F092F2948C
:101E4800010E2BEC0FF0010E84EC0FF01200016E66
:101E58000150D8B403D0F086F0881200F096F098BC
:101E68001200F090F092F294010E4EEC0EF0010E7A
:101E78000CEC0FF01200000E4E6E000E4F6E000EAE
:101E8800506E000E516E1200000E4E6E000E4F6E18
:101E9800000E506E000E516E1200000E74EC0FF022
:101EA800A5EC0DF0010E74EC0FF01200000E4E6E52
:101EB800000E4F6E000E506E000E516E1200000E96
:101EC80001EC0FF041EC0DF0010E01EC0FF01200E7
:101ED800016E0150D8B402D0CA841200CA9412000C
:101EE800016E0150D8B402D0CD801200CD901200FE
:101EF800016E0150D8B402D0D58E1200D59E1200C2
:101F0800016E0150D8B402D0F28A1200F29A12007F
:101F1800DBEC0DF018EC0EF0ECEC0DF01200F1908B
:101F280025EC0CF0010ED5EC0EF01200000E0001AD
:101F3800C86F000E0001C56F1200000E636E000E20
:101F4800616E21EC0FF01200000E0001C86F000E48
:101F58000001C56F1200000E636E000E616E35EC55
:101F68000FF01200CDA002D0010E1200000E1200D8
:101F7800D5AE02D0010E1200000E12009B8CD3B613
:101F88001200FDD7000E5BEC0EF012000090405BD3
:101F98005B08F29EF29C1200D39E0300120000F030
:0A1FA800120000F01200C2821200C5
:1024000098216810C201B004C201C201C201B00427
:10241000C201B004C201C201C201B004C201C201C2
:10242000C201B004C201C201C201B004C201C201B2
:10243000C201C201C201B004C201C201C201B004A2
:10244000C201C201C201C201C201B004C201C20183
:10245000C201B004C201C201C201C201C201C20173
:10246000C201C201C201B004C201C201C201B00472
:10247000C201C201C201B004C201B004C201B00471
:10248000C201B004C2010000000000000000000012
:10249000000000000000000000000000000000003C
:1024A000000000000000000000000000000000002C
:1024B000000000000000000000000000000000001C
:1024C000000000000000000000000000000000000C
:1024D00000000000000000000000000000000000FC
:1024E00000000000000000000000000000000000EC
:1024F00000000000000000000000000000000000DC
:102500004203150050001600500015004E004F0009
:102510001A0016004E004E001B0015004F004C0024
:10252000190017004F004B001B00150051004B0015
:1025300019001600510016004F0016005000180038
:102540004F004D0019004C001B00150050001500F5
:1025500051001500500016005000160051001600E2
:102560004F00160000000000000000000000000006
:10257000000000000000000000000000000000005B
:10258000000000000000000000000000000000004B
:10259000000000000000000000000000000000003B
:1025A000000000000000000000000000000000002B
:102800000050434220726576420000803F72313FA3
:10281000FE753E58633D951D3CC5AE3A792139940D
:10282000803793A73556153400000000803FF0FF35
:10283000BEE2A93E8376BEAE2B3E3CC3BDD2133D65
:1028400078D3BB00000E00019C6F000E00019A6F50
:10285000000E996F000EF2BE010E0001976F000E80
:10286000F2BC010E0001986FF29EF29C5A0E00011C
:10287000CD19D8A405D05A0E0001CE19D8B40AD06B
:102880005A0E0001CD19D8B40CD05A0E0001CE1941
:10289000D8B407D05B0E0001CD6F5B0E0001CE6F88
:1028A00069D25A0E0001CD19D8A41ED0A8EC0FF0A1
:1028B000000E0001866F250E0001876F000E0001DB
:1028C000886F000E0001896F030E00018A6F000EF1
:1028D00000018C6F800E8B6F000E00018E6F000E5A
:1028E0008D6F4EEC07F01DD0AFEC0FF0000E000125
:1028F000866F240E0001876F000E0001886F000EA6
:102900000001896F020E00018A6F000E00018C6FBA
:10291000800E8B6F000E00018E6F000E8D6F4EECDF
:1029200007F0000E0001846F240E856F000E866F85
:10293000000E876FF5EC09F0010E00019F6F000E8D
:102940000001846F240E0001856F000E0001866F68
:10295000000E0001876F020E0001886F57EC08F02F
:10296000000E0001806F240E0001816F000E000137
:10297000826F000E0001836F020E0001846FA8ECCD
:1029800008F00009D8A407D000019F2B0A0E00010F
:102990009F65D5D7E0D1010E00019F6F400E000169
:1029A000846F240E0001856F000E0001866F400EBB
:1029B0000001876F020E0001886F57EC08F0400E8F
:1029C0000001806F240E0001816F000E0001826FF4
:1029D000400E0001836F020E0001846FA8EC08F026
:1029E0000009D8A407D000019F2B0A0E00019F65A3
:1029F000D5D7B1D1010E00019F6F800E0001846F09
:102A0000240E0001856F000E0001866F800E00010C
:102A1000876F020E0001886F57EC08F0800E0001EE
:102A2000806F240E0001816F000E0001826F800E06
:102A30000001836F020E0001846FA8EC08F000090A
:102A4000D8A407D000019F2B0A0E00019F65D5D79F
:102A500082D1010E00019F6FC00E0001846F240E11
:102A60000001856F000E0001866FC00E0001876FA8
:102A7000020E0001886F57EC08F0C00E0001806F55
:102A8000240E0001816F000E0001826FC00E000154
:102A9000836F020E0001846FA8EC08F00009D8A42F
:102AA00007D000019F2B0A0E00019F65D5D753D197
:102AB000010E00019F6F000E0001846F250E0001C2
:102AC000856F000E0001866F000E0001876F030EF8
:102AD0000001886F57EC08F0000E0001806F250E92
:102AE0000001816F000E0001826F000E0001836FF4
:102AF000030E0001846FA8EC08F00009D8A407D0E9
:102B000000019F2B0A0E00019F65D5D724D1010E2D
:102B100000019F6F400E0001846F250E0001856F3C
:102B2000000E0001866F400E0001876F030E00014A
:102B3000886F57EC08F0400E0001806F250E0001F1
:102B4000816F000E0001826F400E0001836F030E43
:102B50000001846FA8EC08F00009D8A407D0000198
:102B60009F2B0A0E00019F65D5D7F5D0010E0001FD
:102B70009F6F800E0001846F250E0001856F000E8F
:102B80000001866F800E0001876F030E0001886FC1
:102B900057EC08F0800E0001806F250E0001816F58
:102BA000000E0001826F800E0001836F030E000192
:102BB000846FA8EC08F00009D8A407D000019F2B6F
:102BC0000A0E00019F65D5D7C6D0010E00019F6F88
:102BD000C00E0001846F250E0001856F000E0001FC
:102BE000866FC00E0001876F030E0001886F57ECDF
:102BF00008F0C00E0001806F250E0001816F000EED
:102C00000001826FC00E0001836F030E0001846F0C
:102C1000A8EC08F00009D8A407D000019F2B0A0EE9
:102C200000019F65D5D797D0080E00019B6F0F0E4E
:102C300000019B6501D09BD0010E00019F6F000E2B
:102C400000019E6F000E9D6F00019B510001916F6E
:102C5000926B060ED890000191379237E82EFAD782
:102C600000019D510001912700019E510001922316
:102C7000000E000191250001996FFE0E00019221C6
:102C800000019A6F000E0001916F260E926F000EE8
:102C9000936F00019951000191250001946F00018B
:102CA0009A51000192210001956F000E00019321BD
:102CB0000001966F000194510001806F0001955151
:102CC0000001816F000196510001826F0001836B4A
:102CD000CEEC0BF0000E00019E6F000E9D6F000108
:102CE0009E510FE1400E00019D5DD8B00AD0DA0E72
:102CF000F56E0D0000019D4B9E2B00019E5101E1E0
:102D0000F1D7A698A684F29E550EA76EAA0EA76EBE
:102D1000A682000E00019E6F000E9D6F00019E5165
:102D200023E1400E00019D5DD8B01ED0000E0001D1
:102D30009925F66E260E9A21F76EF86A000EF82293
:102D40000800F550DA0AD8B408D000019F2B0A0E0B
:102D500000019F6574D7000E0BD00001994B9A2B90
:102D600000019D4B9E2BDAD700019B2B60D7010EF3
:102D700000019C6F000197510001D8A4F28E000160
:102D800098510001D8A4F28C00019C511200000E51
:102D90001D6E000E1B6E000E1A6E000EF2BE010EAE
:102DA000186E000EF2BC010E196EF29EF29C5A0EC5
:102DB0000001CD19D8A405D05A0E0001CE19D8B4FF
:102DC0000AD05A0E0001CD19D8B40CD05A0E000109
:102DD000CE19D8B407D05B0E0001CD6F5B0E000199
:102DE000CE6FC4D15A0E0001CD19D8A417D09AECD9
:102DF0000FF0000E076E250E086E000E096E000E15
:102E00000A6E030E0B6E000E0D6E800E0C6E000E21
:102E10000F6E000E0E6E03EC08F016D0A1EC0FF052
:102E2000000E076E240E086E000E096E000E0A6E6C
:102E3000020E0B6E000E0D6E800E0C6E000E0F6EED
:102E4000000E0E6E03EC08F0000E056E240E066EEA
:102E5000000E076E000E086E8FEC0AF0010E206E59
:102E6000000E056E240E066E000E076E000E086E34
:102E7000020E096E81EC09F0000E016E240E026E46
:102E8000000E036E000E046E020E056EBEEC09F01D
:102E90000009D8A405D0202A0A0E2064E1D75BD10E
:102EA000010E206E400E056E240E066E000E076E9B
:102EB000400E086E020E096E81EC09F0400E016EA4
:102EC000240E026E000E036E400E046E020E056E9E
:102ED000BEEC09F00009D8A405D0202A0A0E20640F
:102EE000E1D739D1010E206E800E056E240E066EDC
:102EF000000E076E800E086E020E096E81EC09F05E
:102F0000800E016E240E026E000E036E800E046EA3
:102F1000020E056EBEEC09F00009D8A405D0202AE7
:102F20000A0E2064E1D717D1010E206EC00E056E87
:102F3000240E066E000E076EC00E086E020E096E9D
:102F400081EC09F0C00E016E240E026E000E036EBD
:102F5000C00E046E020E056EBEEC09F00009D8A486
:102F600005D0202A0A0E2064E1D7F5D0010E206E8C
:102F7000000E056E250E066E000E076E000E086E22
:102F8000030E096E81EC09F0000E016E250E026E33
:102F9000000E036E000E046E030E056EBEEC09F00B
:102FA0000009D8A405D0202A0A0E2064E1D7D3D086
:102FB000010E206E400E056E250E066E000E076E89
:102FC000400E086E030E096E81EC09F0400E016E92
:102FD000250E026E000E036E400E046E030E056E8B
:102FE000BEEC09F00009D8A405D0202A0A0E2064FE
:102FF000E1D7B1D0010E206E800E056E250E066E53
:10300000000E076E800E086E030E096E81EC09F04B
:10301000800E016E250E026E000E036E800E046E91
:10302000030E056EBEEC09F00009D8A405D0202AD5
:103030000A0E2064E1D78FD0010E206EC00E056EFF
:10304000250E066E000E076EC00E086E030E096E8A
:1030500081EC09F0C00E016E250E026E000E036EAB
:10306000C00E046E030E056EBEEC09F00009D8A474
:1030700005D0202A0A0E2064E1D76DD0080E1C6E00
:103080000F0E1C6401D070D0010E206E000E1F6E5A
:10309000000E1E6E1C50126E136A060ED890123669
:1030A0001336E82EFBD71E5012261F501322000E97
:1030B00012241A6EFE0E13201B6E000E126E260EC8
:1030C000136E000E146E1A501224156E1B5013202E
:1030D000166E000E1420176E1550016E1650026EFB
:1030E0001750036E046AC0EC0CF0000E1F6E000E49
:1030F0001E6E1F500CE1400E1E5CD8B008D0DA0ED8
:10310000F56E0D001E4A1F2A1F5001E1F4D7A69844
:10311000A684F29E550EA76EAA0EA76EA682000E7A
:103120001F6E000E1E6E1F501DE1400E1E5CD8B0BB
:1031300019D0000E1A24F66E260E1B20F76EF86AC0
:10314000000EF8220800F550DA0AD8B406D0202A7A
:103150000A0E20649BD7000E08D01A4A1B2A1E4A6A
:103160001F2AE1D71C2A8CD7010E1D6E1850D8A437
:10317000F28E1950D8A4F28C1D501200000E326E3F
:10318000000E336E000E346E000E356E000E366E7D
:10319000000E376E080E0001CF19D8A461D1000EC1
:1031A000386E58D13850020D000EF324F66E240EFE
:1031B000F420F76EF86A000EF8220900A10EF55E01
:1031C00009000F0EF55AD8A049D03850020D000E54
:1031D000F324F66E240EF420F76EF86A000EF8223F
:1031E0000900F5CF09F00A00F5CF0AF0B7EC0DF0B1
:1031F00009C01BF00AC01CF00BC01DF0330E1E6E80
:10320000330E1F6E3F0E206E71EC03F01BC032F0C8
:103210001CC033F01DC034F03850020D000EF324F2
:10322000F66E240EF420F76EF86A000EF8220900FC
:10323000F5CF09F00A00F5CF0AF0B7EC0DF009C0A0
:103240001BF00AC01CF00BC01DF0660E1E6EA60E11
:103250001F6E3F0E206E71EC03F0B7D03850020D98
:10326000000EF324F66E240EF420F76EF86A000EBA
:10327000F8220900A10EF55E09000F0EF55AD8B02C
:103280005CD03850020D000EF324F66E240EF420AC
:10329000F76EF86A000EF8220900E90EF55E0900E3
:1032A000030EF55AD8A049D03850020D000EF32471
:1032B000F66E240EF420F76EF86A000EF82209006C
:1032C000F5CF09F00A00F5CF0AF0B7EC0DF009C010
:1032D0001BF00AC01CF00BC01DF0000E1E6E800E0D
:1032E0001F6E3E0E206E71EC03F01BC032F01CC04E
:1032F00033F01DC034F03850020D000EF324F66E8A
:10330000240EF420F76EF86A000EF8220900F5CFBB
:1033100009F00A00F5CF0AF0B7EC0DF009C01BF078
:103320000AC01CF00BC01DF0000E1E6EE00E1F6EDA
:103330003F0E206E71EC03F048D03850020D000EA5
:10334000F324F66E240EF420F76EF86A000EF822CD
:103350000900F5CF09F00A00F5CF0AF0B7EC0DF03F
:1033600009C01BF00AC01CF00BC01DF0CD0E1E6E74
:10337000CC0E1F6EBD0E206E71EC03F01BC032F040
:103380001CC033F01DC034F03850020D000EF32481
:10339000F66E240EF420F76EF86A000EF82209008B
:1033A000F5CF09F00A00F5CF0AF0B7EC0DF009C02F
:1033B0001BF00AC01CF00BC01DF0660E1E6E060E40
:1033C0001F6E400E206E71EC03F01BC035F01CC068
:1033D00036F01DC037F03850020D000EF324D96EC0
:1033E000020EF420DA6EDECF09F0DDCF0AF0B7EC82
:1033F0000DF009C00CF00AC00DF00BC00EF032C089
:103400000FF033C010F034C011F0F3EC08F0D8A086
:103410001ED035C00CF036C00DF037C00EF038505D
:10342000020D000EF324D96E020EF420DA6EDECF08
:1034300009F0DDCF0AF0B7EC0DF009C00FF00AC0BB
:1034400010F00BC011F0F3EC08F0D8B002D0000E71
:103450001200382A6250385CD8A0A4D6010E12009F
:10346000270E636471D0000E386E47D03850020DBD
:10347000000EF324D96E020EF420DA6E010EDB503A
:1034800006E1280EDE5CD8B002D0000E12003850E3
:10349000020D000EF324D96E020EF420DA6E010E36
:1034A000DB5010E1C80EDE5CD8B00CD03850020DF5
:1034B000000EF324D96E020EF420DA6E5E0EDE26C4
:1034C000010E19D03850020D000EF324D96E020EF1
:1034D000F420DA6E400EDE5C010EDE58D8B00CD05F
:1034E0003850020D000EF324D96E020EF420DA6E6D
:1034F000960EDE26000EDD22382A6350385CD8A0F6
:10350000B5D763C038F07F0E386401D00ED0385084
:10351000020D000EF324D96E020EF420DA6E000EB6
:10352000DE6E000EDD6E382AEED75A0E0001CD6F2A
:10353000C7EC16F00001C26F0001C251D8A4BCEC68
:1035400005F0080E0001CF6F000E1200000E000102
:10355000A26F000E0001A36F000E0001A46F000E09
:103560000001A56F000E0001A66F000E0001A76FFD
:10357000080E0001CF19D8A4FCD0000E0001A86FDE
:10358000F0D00001A8510001D8A451D00001A851E9
:10359000020D000EF324F66E250EF420F76EF86A85
:1035A000000EF8220900F5CF88F00A00F5CF89F067
:1035B00056EC0DF088C08BF089C08CF08AC08DF07D
:1035C000E10E00018E6F7A0E00018F6F3F0E000139
:1035D000906F80EC1EF08BC0A2F08CC0A3F08DC069
:1035E000A4F00001A851020D000EF324F66E250E82
:1035F000F420F76EF86A000EF8220900F5CF88F083
:103600000A00F5CF89F056EC0DF088C08BF089C028
:103610008CF08AC08DF08F0E00018E6F820E00013B
:103620008F6F3F0E0001906F80EC1EF050D00001B4
:10363000A851020D000EF324F66E250EF420F76E4D
:10364000F86A000EF8220900F5CF88F00A00F5CFDD
:1036500089F056EC0DF088C08BF089C08CF08AC0E0
:103660008DF0000E00018E6F000E00018F6F3F0E77
:103670000001906F80EC1EF08BC0A2F08CC0A3F014
:103680008DC0A4F00001A851020D000EF324F66EC7
:10369000250EF420F76EF86A000EF8220900F5CF27
:1036A00088F00A00F5CF89F056EC0DF088C08BF059
:1036B00089C08CF08AC08DF0000E00018E6FC00EA4
:1036C00000018F6F3F0E0001906F80EC1EF08BC0E9
:1036D000A5F08CC0A6F08DC0A7F00001A851020D86
:1036E000000EF324D96E030EF420DA6EDECF88F0DC
:1036F000DDCF89F056EC0DF088C08BF089C08CF0DE
:103700008AC08DF0A2C08EF0A3C08FF0A4C090F04C
:1037100088EC06F00001D8A020D0A5C08BF0A6C090
:103720008CF0A7C08DF00001A851020D000EF3240B
:10373000D96E030EF420DA6EDECF88F0DDCF89F08B
:1037400056EC0DF088C08EF089C08FF08AC090F0E2
:1037500088EC06F00001D8B002D0000E1200000183
:10376000A82B0001C6510001A85DD8A00AD7010E00
:103770001200130E0001C86544D0000E0001A86FAE
:1037800014D00001A851020D000EF324D96E030ECF
:10379000F420DA6E010EDB5006E1050EDE5CD8B0D7
:1037A00002D0000E12000001A82B0001C851000138
:1037B000A85DD8A0E6D7C8C0A8F07F0E0001A86514
:1037C00001D010D00001A851020D000EF324D96ED3
:1037D000030EF420DA6E000EDE6E000EDD6E0001C8
:1037E000A82BEBD75A0E0001CE6F22EC14F000018B
:1037F000C26F0001C251D8A460EC04F0080E0001B1
:10380000CF6F000E1200C2EC0FF0B0EC0BF08FEC9B
:103810000CF0EBEC03F0D5EC04F0000E01018E6F20
:10382000040E8D6F000E0101906F320E8F6FE6EC6B
:103830000AF08B98080E0001CF19D8A4B4D000016B
:10384000C951D8B450D08B985A0E0001CE19D8A4C3
:1038500021D00001C205D8A40DD0000E01018E6F49
:10386000040E8D6F000E0101906F320E8F6FE6EC2B
:103870000AF00CD0000E01018E6F060E8D6F000E47
:103880000101906F4B0E8F6FE6EC0AF08B985B0E88
:103890000001CE6F5A0E0001CD19D8A421D000012D
:1038A000C205D8A40DD0000E01018E6F040E8D6FDD
:1038B000000E0101906F320E8F6FE6EC0AF00CD013
:1038C000000E01018E6F060E8D6F000E0101906FCC
:1038D0004B0E8F6FE6EC0AF08B985B0E0001CD6FFC
:1038E000000E0001C96F0001C751D8A408D0000123
:1038F000C451D8A404D00001C051D8B41CD08B88C6
:10390000CDEC0FF02BEC0AF0C80E0101846F000E15
:10391000856F000E866F000E876F5EEC0AF00AEC72
:103920000EF0000E0001C76F000E0001C46F000E04
:103930000001C06F8B98CAC080F1CBC081F1CCC0B0
:1039400082F1000E0101836F600E0101846F400E51
:103950000101856F24EC06F00101D8A014D0000EFF
:103960000101806FB00E0101816F400E0101826F75
:10397000CAC083F1CBC084F1CCC085F124EC06F041
:103980000101D8B00DD0640E0101846F000E856F67
:10399000000E866F000E876F5EEC0AF0100E8B1A19
:1039A000D8EC0CF02CD00A0E0001CF19D8A427D0E7
:1039B000190E0101846F000E856F000E866F000ED8
:1039C000876F5EEC0AF0100E8B1A0001C751D8B455
:1039D00009D0000E0001C76F080E0001CF6F010E65
:1039E0000001C96F0001C451D8B409D0000E000114
:1039F000C46F080E0001CF6F010E0001C96F0001F6
:103A0000B94BBA2B0001BA5105E10B0E0001B95DAB
:103A1000D8A010D7D7EC0FF0000E0001BA6F000E3F
:103A2000B96F08D7E9CFABF0EACFACF0E1CFADF09A
:103A3000E2CFAEF0D9CFAFF0DACFB0F0F3CFB1F044
:103A4000F4CFB2F0F6CFB3F0F7CFB4F0F8CFB5F0D3
:103A5000F5CFB6F0000E0001B86F000EB76FF0A002
:103A6000F0B201D074D0BCEC0FF00009D8A403D0A0
:103A700063EC0FF069D0D6CFB7F00001B86BD75028
:103A80000001B82741EC0DF00001C551D8A430D099
:103A9000080E0001CF19D8A418D00001BD510001B3
:103AA000B75D0001BE510001B859D8A021D0000176
:103AB000B7510001BB5D0001B8510001BC59D8A04D
:103AC00017D0010E0001C56F13D0900E0001B75D35
:103AD000010E0001B859D8A00BD0E90E0001B75D66
:103AE000030E0001B859D8B003D0010E0001C56F14
:103AF0000001C551D8B428D05AEC0FF0800E000157
:103B0000C86122D00001C851020D000EF324D96E05
:103B1000030EF420DA6EB7C0DEFFB8C0DDFF00018F
:103B2000C82B0001C6510001C85DD8A00DD000010E
:103B3000C751D8A404D0A6EC1AF00001C76F000E3C
:103B400001EC0FF0A8EC0FF0F090F0920CD0F2A482
:103B500009D0000E01EC0FF041EC0DF0A8EC0FF0D5
:103B6000F29401D000F0B6C0F5FFB5C0F8FFB4C0C4
:103B7000F7FFB3C0F6FFB2C0F4FFB1C0F3FFB0C0AF
:103B8000DAFFAFC0D9FFAEC0E2FFADC0E1FFACC00D
:103B9000EAFFABC0E9FFAAC0FBFFA9C0FAFF66922B
:103BA00011008DC191F10101926B936B01018C3574
:103BB0000101913701E39281010191510101946F5B
:103BC00001019451D8A40AD0000E01018B6F000EA0
:103BD00001018C6F000E01018D6F120090C191F1F7
:103BE0000101926B936B01018F350101913701E364
:103BF0009281010191510101996F01019951D8A45C
:103C00000AD0000E01018B6F000E01018C6F000EB7
:103C100001018D6F1200010199517B0F0101942761
:103C20008DC199F1010190510101991B800E010193
:103C3000991701018C8F01018F8FFF0E01018E17E3
:103C4000FF0E01018F17000E01019017000E0101F8
:103C5000956F000E0101966F000E0101976F070E20
:103C60000101986F01018BA10CD001018E5101015E
:103C7000952701018F510101962301019051010106
:103C800097230101D8908D338C338B330101D89069
:103C90008E378F3790370101982FE4D7090E010135
:103CA000986F01018BA10CD001018E510101952764
:103CB00001018F51010196230101905101019723C8
:103CC0000101D8908D338C338B330101D890973319
:103CD000963395330101982FE4D795C180F196C1B1
:103CE00081F197C182F194C183F199C184F1EBEC28
:103CF00001F080C18BF181C18CF182C18DF1120084
:103D00008DC091F00001926B936B00018C35000126
:103D1000913701E39281000191510001946F0001FC
:103D20009451D8A40AD0000E00018B6F000E000140
:103D30008C6F000E00018D6F120090C091F0000199
:103D4000926B936B00018F350001913701E39281F3
:103D5000000191510001996F00019951D8A40AD036
:103D6000000E00018B6F000E00018C6F000E000131
:103D70008D6F1200000199517B0F000194278DC0B7
:103D800099F0000190510001991B800E00019917D4
:103D900000018C8F00018F8FFF0E00018E17FF0E28
:103DA00000018F17000E00019017000E0001956FA3
:103DB000000E0001966F000E0001976F070E0001C4
:103DC000986F00018BA10CD000018E510001952746
:103DD00000018F51000196230001905100019723AB
:103DE0000001D8908D338C338B330001D8908E37FF
:103DF0008F3790370001982FE4D7090E0001986F94
:103E000000018BA10CD000018E510001952700010B
:103E10008F5100019623000190510001972300016A
:103E2000D8908D338C338B330001D89097339633F1
:103E300095330001982FE4D795C080F096C081F0AB
:103E400097C082F094C083F099C084F071EC02F0C6
:103E500080C08BF081C08CF082C08DF0120082C1D6
:103E600084F10101856B866B010181350101843785
:103E700001E385810101845101018E6F01018E51A1
:103E8000D8A40AD0000E0101806F000E816F000ED1
:103E9000826F000E836F1200170E0101846F80C1C4
:103EA00085F181C186F182C187F101018429010177
:103EB000886F05D00101D89087338633853301019F
:103EC000882FF8D7010185510101896F0101818F88
:103ED000FF0E01018017FF0E01018117000E010185
:103EE00082170101805101018A6F01018151010195
:103EF0008B6F0101825101018C6F01018D6B8E0E60
:103F000001018E5F01018EAF1AD001018E51800A2E
:103F10008F0FD8B00AD0000E0101806F000E816FA4
:103F2000000E826F000E836F12000101D8908D3356
:103F30008C338B338A3301018E3FF7D71BD0170E9A
:103F400001018E6512D0000E0101806F000E816F9D
:103F5000000E826F000E836F12000101D8908A3725
:103F60008B378C378D3701018E0701018E5101018E
:103F7000D8A4F3D7010189510101D8B409D00101B6
:103F80008D1F8C1F8B1F8A6D000E8B238C238D231E
:103F90008AC180F18BC181F18CC182F18DC183F125
:103FA0001200000E0101856F000E846F000E0101EA
:103FB000856F000E846F14D0D89001018435D96EBE
:103FC00001018535DA6E01018051D9260101815147
:103FD000DA22000EDE6E000EDD6E0101844B852BB1
:103FE000010182510101845D010183510101855963
:083FF000D8B01200E1D70A006D
:063FF800A0F405FFFFF13B
:00000001FF
