:040000005AEF01F0C2
:10000800FACFA1F0FBCFA2F0E9CFA3F0E4EF04F020
:10001800D8CF33F0E8CF34F0E0CF35F0FACF36F070
:10002800FBCF37F0E9CF38F0EACF39F0E1CF3AF03B
:10003800E2CF3BF0D9CF3CF0DACF3DF0F3CF3EF042
:10004800F4CF3FF0F6CF40F0F7CF41F0F8CF42F0D1
:10005800F5CF43F0000E476E000E466EF2A0BCD0FE
:1000680012EC0EF0456EF7EC0DF0446E5550D8B416
:100078003DD0000E88EC10F0000E91EC10F04550C9
:10008800D8B417D0080E0001CE19D8A409D0110E83
:100098005A6E010E046E900E036EA9EC0FF023D079
:1000A800130E5A6E000E046E080E036EA9EC0FF0C4
:1000B8001AD00A0E0001CE19D8B40CD0010E0001D6
:1000C800C06F130E5A6E000E046E080E036EA9EC74
:1000D8000FF009D0120E5A6E010E046EF40E036E64
:1000E800A9EC0FF000D0000E556E74D05650D8B45D
:1000F8006FD0D5EC10F00009D8A403D09AEC10F01A
:1001080060D0CECF46F0476ACF50472609EC0FF0B3
:100118005750D8A423D0080E0001CE19D8A40FD068
:100128004D50465C4E504758D8A018D046504B5CAE
:1001380047504C58D8A012D0010E576E0FD0D00E91
:10014800465C070E4758D8A009D0810E465C3E0E83
:100158004758D8B003D0010E576E00D05750D8B4C6
:1001680030D074EC10F0500E596025D05950020D63
:10017800000EF324D96E030EF420DA6E46C0DEFFBB
:1001880047C0DDFF592A080E0001CE19D8A419D09E
:100198005850595CD8A015D00001C351D8A405D037
:1001A8005CEC01F00001C36F00D0000EA3EC10F06E
:1001B800DCEC10F006D0000EA3EC10F0DCEC10F034
:1001C80000D0000E566EF7EC0DF0F7EC0DF002D0F3
:1001D80000F000D0F29047D09EA223D04F50515C3F
:1001E80050505258D8A018D0000E91EC10F0110EB3
:1001F8005A18D8A402D00A0E05D0120E5A18D8A43C
:1002080007D0080E0001CE6F010E0001C86F07D09D
:10021800010E88EC10F003D0514A522A00D09E9269
:1002280022D09EAC04D05CEC09F09E9C1CD09EA011
:1002380018D0000EA3EC10F00A0E0001CE19D8A4B5
:1002480008D0270E596405D05CEC01F00001C36F9B
:1002580000D009EC0FF0DCEC10F069EC10F09E9087
:1002680002D000F000D043C0F5FF42C0F8FF41C003
:10027800F7FF40C0F6FF3FC0F4FF3EC0F3FF3DC0AC
:10028800DAFF3CC0D9FF3BC0E2FF3AC0E1FF39C00A
:10029800EAFF38C0E9FF37C0FBFF36C0FAFF35C0B8
:1002A800E0FF34C0E8FF33C0D8FF100024EF0CF0A3
:1002B800000E2C6E000E2D6E000E2E6E000E2F6E90
:1002C800000E306E000E316E080E0001CE19D8A453
:1002D80036D1000E326E2DD13250020D000EF324AD
:1002E800D96E010EF420DA6EA10EDE5C0F0EDE5818
:1002F800D8A03FD03250020D000EF324D96E010E63
:10030800F420DA6EDECF09F0DDCF0AF02FEC0FF023
:1003180009C01BF00AC01CF00BC01DF0CD0E1E6EEC
:100328004C0E1F6E3F0E206E97EC07F01BC02CF092
:100338001CC02DF01DC02EF03250020D000EF3240B
:10034800D96E010EF420DA6EDECF09F0DDCF0AF0A7
:100358002FEC0FF009C01BF00AC01CF00BC01DF0F9
:100368009A0E1E6E990E1F6E3F0E206E97EC07F0C8
:1003780099D03250020D000EF324D96E010EF420EC
:10038800DA6EA10EDE5C0F0EDE58D8B04DD03250BA
:10039800020D000EF324D96E010EF420DA6EE90E78
:1003A800DE5C030EDE58D8A03FD03250020D000E9E
:1003B800F324D96E010EF420DA6EDECF09F0DDCF1A
:1003C8000AF02FEC0FF009C01BF00AC01CF00BC09C
:1003D8001DF0000E1E6E800E1F6E3E0E206E97ECF6
:1003E80007F01BC02CF01CC02DF01DC02EF03250A1
:1003F800020D000EF324D96E010EF420DA6EDECF62
:1004080009F0DDCF0AF02FEC0FF009C01BF00AC08D
:100418001CF00BC01DF0000E1E6EE00E1F6E3F0E8E
:10042800206E97EC07F03ED03250020D000EF324F8
:10043800D96E010EF420DA6EDECF09F0DDCF0AF0B6
:100448002FEC0FF009C01BF00AC01CF00BC01DF008
:10045800CD0E1E6ECC0E1F6EBD0E206E97EC07F0F3
:100468001BC02CF01CC02DF01DC02EF03250020D08
:10047800000EF324D96E010EF420DA6EDECF09F0F7
:10048800DDCF0AF02FEC0FF009C01BF00AC01CF0FA
:100498000BC01DF0660E1E6E060E1F6E400E206EFF
:1004A80097EC07F01BC02FF01CC030F01DC031F0D6
:1004B80000D03250020D000EF324D96E030EF42042
:1004C800DA6EDECF09F0DDCF0AF02FEC0FF009C0AD
:1004D8000CF00AC00DF00BC00EF02CC00FF02DC0B0
:1004E80010F02EC011F0D9EC0BF0D8A01ED02FC000
:1004F8000CF030C00DF031C00EF03250020D000E7D
:10050800F324D96E030EF420DA6EDECF09F0DDCFC6
:100518000AF02FEC0FF009C00FF00AC010F00BC062
:1005280011F0D9EC0BF0D8B002D0000E1200322A2C
:1005380000D05850325CD8A0CFD6010E1200270E3A
:10054800596416D0000E076E030E086E000E096E71
:10055800010E0A6E000E0C6E500E0B6E000E0E6E23
:10056800000E0D6E89EC0BF05A0E0001CC6F00D016
:10057800010E12001200000E00019A6F000E000119
:100588009B6F000E00019C6F000E00019D6F000E16
:1005980000019E6F000E00019F6F080E0001CE192A
:1005A800D8A4E9D0000E0001A06FDDD00001A05151
:1005B8000001D8A447D00001A051020D780EF32401
:1005C800D96E020EF420DA6EDECF88F0DDCF89F026
:1005D800B7EC0EF088C08BF089C08CF08AC08DF023
:1005E800330E00018E6F730E00018F6F3F0E0001F6
:1005F800906FA8EC05F08BC09AF08CC09BF08DC072
:100608009CF00001A051020D780EF324D96E020E61
:10061800F420DA6EDECF88F0DDCF89F0B7EC0EF08B
:1006280088C08BF089C08CF08AC08DF0660E0001FE
:100638008E6F860E00018F6F3F0E0001906FA8EC41
:1006480005F046D00001A051020D780EF324D96EB2
:10065800020EF420DA6EDECF88F0DDCF89F0B7EC39
:100668000EF088C08BF089C08CF08AC08DF0000E27
:1006780000018E6F000E00018F6F3F0E0001906F1A
:10068800A8EC05F08BC09AF08CC09BF08DC09CF054
:100698000001A051020D780EF324D96E020EF42049
:1006A800DA6EDECF88F0DDCF89F0B7EC0EF088C0C7
:1006B8008BF089C08CF08AC08DF0000E00018E6F1F
:1006C800C00E00018F6F3F0E0001906FA8EC05F07F
:1006D8008BC09DF08CC09EF08DC09FF00001A05192
:1006E800020D000EF324D96E020EF420DA6EDECF6E
:1006F80088F0DDCF89F0B7EC0EF088C08BF089C0A8
:100708008CF08AC08DF09AC08EF09BC08FF09CC090
:1007180090F0F5EC08F00001D8A020D09DC08BF037
:100728009EC08CF09FC08DF00001A051020D000EFC
:10073800F324D96E020EF420DA6EDECF88F0DDCF16
:1007480089F0B7EC0EF088C08EF089C08FF08AC0AF
:1007580090F0F5EC08F00001D8B002D0000E1200BD
:100768000001A02B00D00001C5510001A05DD8A058
:100778001DD7010E1200130E0001C7651CD0000E14
:100788000001866F020E0001876F780E0001886FE6
:10079800020E0001896F000E00018B6F3C0E8A6FFC
:1007A800000E00018D6F000E8C6F80EC0AF05A0E5F
:1007B8000001CD6F00D0010E12001200F1EC10F014
:1007C80084EC0DF02DEC0EF05C0E0001CD19D8A4D0
:1007D8000AD0DAEC0AF0000E0101A66F0A0EA56F26
:1007E8001CEC0DF008D0000E0101A66F040EA56FD9
:1007F8001CEC0DF000D08B98E80E0001B56F030ECD
:10080800B66F000EB76F000EB86F94EC0CF05C0E6C
:100818000001CC19D8A40AD032EC0BF0000E01016B
:10082800A66F0A0EA56F1CEC0DF008D0000E010192
:10083800A66F040EA56F1CEC0DF000D08B9800D0AD
:10084800080E0001CE19D8A479D00001C851D8B437
:1008580025D08B985A0E0001CD19D8A40BD0000EC4
:100868000101A66F040EA56F1CEC0DF05B0E0001D4
:10087800CD6F00D05A0E0001CC19D8A40BD0000EB1
:100888000101A66F040EA56F1CEC0DF05B0E0001B4
:10089800CC6F00D0000E0001C86F00D00001C65117
:1008A800D8A408D00001C351D8A404D00001C05175
:1008B800D8B40ED08B8860EC0CF0000E0001C66F27
:1008C800000E0001C36F000E0001C06F8B9800D0AE
:1008D800C9C0B1F0CAC0B2F0CBC0B3F0000E00017D
:1008E800B46F600E0001B56F400E0001B66F8EEC5C
:1008F80008F00001D8A014D0000E0001B16FB00EAE
:100908000001B26F400E0001B36FC9C0B4F0CAC095
:10091800B5F0CBC0B6F08EEC08F00001D8B03BD0F3
:10092800640E0001B56F000EB66F000EB76F000EB3
:10093800B86F94EC0CF0100E8B1A2DD00A0E000133
:10094800CE19D8A428D0190E0001B56F000EB66FC5
:10095800000EB76F000EB86F94EC0CF0100E8B1AE7
:100968000001C651D8B409D0000E0001C66F080EA8
:100978000001CE6F010E0001C86F0001C351D8B449
:100988000AD0000E0001C36F080E0001CE6F010EE1
:100998000001C86F00D00001B94BBA2B0001BA5151
:1009A80005E10B0E0001B95DD8A04AD7FFEC10F0A5
:1009B800000E0001BA6F000EB96F42D75AEF01F06E
:1009C800EACFA4F0E1CFA5F0E2CFA6F0D9CFA7F007
:1009D800DACFA8F0F3CFA9F0F4CFAAF0F6CFABF0B6
:1009E800F7CFACF0F8CFADF0F5CFAEF0000E0001C8
:1009F800B06F000EAF6FF0B002D0F0A27BD0E3EC86
:100A080010F00009D8A403D0BEEC10F070D0D6CFF7
:100A1800AFF00001B06BD7500001B027A1EC0EF089
:100A28000001C451D8A431D0080E0001CE19D8A4B1
:100A380018D00001BD510001AF5D0001BE51000199
:100A4800B059D8A022D00001AF510001BB5D000110
:100A5800B0510001BC59D8A018D0010E0001C46FD4
:100A680014D0900E0001AF5D010E0001B059D8A05E
:100A78000CD0E90E0001AF5D030E0001B059D8B0EB
:100A880004D0010E0001C46F00D00001C451D8B4D5
:100A98002ED03C0E0001C76124D00001C751020DC1
:100AA800000EF324D96E020EF420DA6EAFC0DEFF1A
:100AB800B0C0DDFF0001C72B0001C5510001C75DB3
:100AC800D8A015D00001C651D8A405D0BFEC02F0BB
:100AD8000001C66F00D0000E52EC10F0EAEC10F0E6
:100AE80006D0000E52EC10F0EAEC10F000D0F090B6
:100AF800F0920DD0F2A409D0000E52EC10F0A1EC47
:100B08000EF0EAEC10F0F29402D000F000D0AEC083
:100B1800F5FFADC0F8FFACC0F7FFABC0F6FFAAC049
:100B2800F4FFA9C0F3FFA8C0DAFFA7C0D9FFA6C089
:100B3800E2FFA5C0E1FFA4C0EAFFA3C0E9FFA2C08D
:100B4800FBFFA1C0FAFF11008DC091F00001926B6C
:100B5800936B00018C350001913701E3928100010C
:100B680091510001946F00019451D8A40AD0000E4D
:100B780000018B6F000E00018C6F000E00018D6F5D
:100B8800120090C091F00001926B936B00018F35B9
:100B98000001913701E39281000191510001996FA1
:100BA80000019951D8A40AD0000E00018B6F000EE5
:100BB80000018C6F000E00018D6F12000001995129
:100BC8007B0F000194278DC099F00001905100011E
:100BD800991B800E0001991700018C8F00018F8FDF
:100BE800FF0E00018E17FF0E00018F17000E000187
:100BF8009017000E0001956F000E0001966F000E11
:100C08000001976F070E0001986F00D000018BA1BB
:100C18000DD000018E510001952700018F51000170
:100C28009623000190510001972300D00001D8902D
:100C38008D338C338B330001D8908E378F379037B4
:100C48000001982FE3D700D0090E0001986F00D05B
:100C580000018BA10DD000018E51000195270001E4
:100C68008F5100019623000190510001972300D075
:100C78000001D8908D338C338B330001D890973393
:100C8800963395330001982FE3D700D095C080F0B4
:100C980096C081F097C082F094C083F099C084F028
:100CA80007EC07F080C08BF081C08CF082C08DF01B
:100CB80012001200B3C0A0F10101A16BA26B0001E8
:100CC800B2350101A03701E3A1810101A051010161
:100CD800AA6F0101AA51D8A40AD0000E0001B16F71
:100CE800000EB26F000EB36F000EB46F1200170E35
:100CF8000101A06FB1C0A1F1B2C0A2F1B3C0A3F1CC
:100D08000101A0290101A46F05D00101D890A333E6
:100D1800A233A1330101A42FF8D70101A151010188
:100D2800A56F0001B28FFF0E0001B117FF0E000181
:100D3800B217000E0001B3170001B1510101A66FEF
:100D48000001B2510101A76F0001B3510101A86F61
:100D58000101A96B8E0E0101AA5F0101AAAF1BD088
:100D68000101AA51800A8F0FD8B00BD0000E0001E4
:100D7800B16F000EB26F000EB36F000EB46F1200A9
:100D880000D00101D890A933A833A733A6330101B5
:100D9800AA3FF7D71FD0170E0101AA6514D0000E7D
:100DA8000001B16F000EB26F000EB36F000EB46F8A
:100DB800120009D00101D890A637A737A837A9375C
:100DC8000101AA0700D00101AA510101D8B402D03B
:100DD800F1D700D00101A5510101D8B40AD0010111
:100DE800A91FA81FA71FA66D000EA723A823A92324
:100DF80000D0A6C1B1F0A7C1B2F0A8C1B3F0A9C193
:100E0800B4F012001200000183510001D8B408D0D8
:100E1800000180510001811100018211D8A413D072
:100E2800000E0001806F000E0001816F000E0001AE
:100E3800826F120008D00001832B0001D890823302
:100E48008133803300D0000E000180150001856FCA
:100E5800000E000181150001866FFE0E000182154B
:100E68000001876F0001855100018611000187117B
:100E7800D8B413D0E0D711D00001832B010E0001A4
:100E88008027000E00018123000E0001822300014B
:100E9800D89082338133803300D0000E0001801552
:100EA8000001856F000E000181150001866FFF0E9D
:100EB800000182150001876F00018551000186112C
:100EC80000018711D8B40AD0D7D708D0000183070A
:100ED8000001D89080378137823700D0000181BF68
:100EE80005D0020E00018361F1D700D0000183B163
:100EF80003D00001819F00D00001D8908333000106
:100F0800835100018213000184510001D8B403D039
:100F18000001828F00D080C080F081C081F082C043
:100F280082F0120012001DC021F0226A236A1C34CC
:100F3800213601E322802150246E2450D8A407D002
:100F4800000E1B6E000E1C6E000E1D6E120020C0DF
:100F580021F0226A236A1F34213601E322802150BE
:100F6800296E2950D8A407D0000E1B6E000E1C6EE7
:100F7800000E1D6E120029507B0F24261DC029F07B
:100F88002050291A800E29161C8E1F8EFF0E1E1641
:100F9800FF0E1F16000E2016000E256E000E266E80
:100FA800000E276E070E286E00D01BA007D01E501B
:100FB80025261F5026222050272200D0D8901D32E7
:100FC8001C321B32D8901E361F362036282EEDD7FD
:100FD80000D0090E286E00D01BA007D01E50252671
:100FE8001F5026222050272200D0D8901D321C32B4
:100FF8001B32D890273226322532282EEDD700D042
:1010080025C001F026C002F027C003F024C004F078
:1010180029C005F0BFEC09F001C01BF002C01CF0AC
:1010280003C01DF0120012000EC012F0136A146AF9
:101038000D34123601E313801250196E1950D8A4DA
:1010480007D0000E0C6E000E0D6E000E0E6E120014
:1010580011C012F0136A146A1034123601E31380B7
:1010680012501A6E1A50D8A407D0000E0C6E000E3B
:101078000D6E000E0E6E1200000E166E000E176E2C
:10108800000E186E1A50890F195E0EC01AF0115012
:101098001A1A800E1A160D8EFF0E0C16FF0E0D165C
:1010A800000E0E16108EFF0E0F16FF0E1016000EF5
:1010B8001116180E156E00D0D89016361736183639
:1010C8000F500C5C10500D5811500E58D8A007D076
:1010D8000F500C5E10500D5A11500E5A1680D890B1
:1010E8000C360D360E36152EE7D700D016C001F097
:1010F80017C002F018C003F019C004F01AC005F0B8
:10110800BFEC09F001C00CF002C00DF003C00EF0F6
:10111800120012000001B3AF1ED0B1C0A0F1B2C0DE
:10112800A1F1B3C0A2F10101A01FA11FA21FA02B12
:10113800000EA123A223000E0101A0250001B16F1A
:10114800000E0101A1210001B26F800E0101A22150
:101158000001B36F00D00001B6AF1ED0B4C0A0F13B
:10116800B5C0A1F1B6C0A2F10101A01FA11FA21F25
:10117800A02B000EA123A223000E0101A02500012F
:10118800B46F000E0101A1210001B56F800E0101AD
:10119800A2210001B66F00D0000E0001B11B000EA5
:1011A8000001B21B800E0001B31B000E0001B41B2E
:1011B800000E0001B51B800E0001B61B0001B451E2
:1011C8000001B15D0001B5510001B2590001B651ED
:1011D8000001B359D8B002D0D8901200D8801200BC
:1011E800120000018DAF1ED08BC091F08CC092F020
:1011F8008DC093F00001911F921F931F912B000E39
:1012080092239323000E0001912500018B6F000E9D
:101218000001922100018C6F800E000193210001D2
:101228008D6F00D0000190AF1ED08EC091F08FC09E
:1012380092F090C093F00001911F921F931F912B81
:10124800000E92239323000E0001912500018E6F5A
:10125800000E0001922100018F6F800E0001932182
:101268000001906F00D0000E00018B1B000E0001E2
:101278008C1B800E00018D1B000E00018E1B000EC2
:1012880000018F1B800E0001901B00018E51000190
:101298008B5D00018F5100018C59000190510001B4
:1012A8008D59D8B002D0D8901200D8801200120000
:1012B800C4CF2AF02B6A2A502B6E2A6AC3502A26DA
:1012C800000E2B22000E0F6E800E106E440E116E53
:1012D8002AC009F02BC00AF02FEC0FF009C00CF05F
:1012E8000AC00DF00BC00EF018EC08F00CC01BF093
:1012F8000DC01CF00EC01DF0330E1E6E530E1F6E77
:10130800400E206E97EC07F01BC02CF01CC02DF08F
:101318001DC02EF00A0E5B18D8A423D0E60E1E6E50
:101328002A0E1F6E490E206E2CC01BF02DC01CF01B
:101338002EC01DF097EC07F01BC00CF01CC00DF080
:101348001DC00EF0500E0F6E430E106E480E116E3B
:1013580018EC08F00CC0C9F00DC0CAF00EC0CBF0F4
:1013680007D02CC048F02DC049F02EC04AF000D05C
:101378001CEC0FF012000450D8B405D00150021034
:101388000310D8A40ED0000E016E000E026E000EDF
:10139800036E120006D0042AD890033202320132BA
:1013A80000D0000E0114066E000E0214076EFE0E29
:1013B8000314086E065007100810D8B40ED0EBD7E7
:1013C8000CD0042A010E0126000E0222000E032270
:1013D800D89003320232013200D0000E0114066E9A
:1013E800000E0214076EFF0E0314086E0650071055
:1013F8000810D8B408D0E5D706D00406D89001362E
:101408000236033600D002BE04D0020E0460F5D7BF
:1014180000D004B002D0029E00D0D890043204500C
:1014280003120550D8B402D0038E00D001C001F0D9
:1014380002C002F003C003F012001200000E000107
:10144800B86F000EB76FA2C1B1F0A3C1B2F0A4C1CA
:10145800B3F0A5C1B4F0C6EC0CF0A6C1B7F0A7C1B3
:10146800B8F00001B7510001B811D8B432D001D09A
:1014780030D0A2C1D9FFA3C1DAFF200EDE6E000E64
:10148800DD6E020E0101A227000EA3230001B7079B
:10149800D8A0B807E6D71DD0A0C1F6FFA1C1F7FFB5
:1014A800A2C1D9FFA3C1DAFF0900F5CFDEFF08000A
:1014B800F5CFDDFF020E0101A027000EA123020EC9
:1014C8000101A227000EA3230101A407D8A0A507A4
:1014D80000D0A0C1F6FFA1C1F7FF0900F55009002F
:1014E800F510D8B412000101A4510101A511D8B416
:1014F8001200D2D712001200000E0001916F000EE8
:10150800906F88C080F089C081F08AC082F08BC05B
:1015180083F0F1EC0CF08CC090F08DC091F00001DC
:10152800905100019111D8B430D001D02ED088C08C
:10153800D9FF89C0DAFF200EDE6E000EDD6E020EC6
:1015480000018827000E892300019007D8A0910781
:10155800E6D71BD086C0D9FF87C0DAFF88C0E1FF75
:1015680089C0E2FFDECFE6FFDDCFE5FF020E000116
:101578008627000E8723020E00018827000E892384
:1015880000018A07D8A08B0700D086C0D9FF87C082
:10159800DAFFDE50DE10D8B4120000018A510001D3
:1015A8008B11D8B41200D6D712001200000E010118
:1015B800AB6F000E0101AC6F000E0101AD6F000EA4
:1015C8000101AE6F000E0101AF6F000E0101B06F97
:1015D800E00E0101AB6F490E0101AC6F440E010131
:1015E800AD6F200E0101AE6F5F0E0101AF6F440EAB
:1015F8000101B06FABC1B1F0ACC1B2F0ADC1B3F095
:101608005EEC06F0B1C0BDF0B2C0BEF0AEC1B1F044
:10161800AFC1B2F0B0C1B3F05EEC06F0B1C0BBF040
:10162800B2C0BCF05A0E0101A06F3F0E0101A16FBC
:10163800780E0101A26F020E0101A36F000E0101D5
:10164800A56F320EA46F000E0101A76F000EA66FE2
:1016580022EC0AF0320E0001C56F1200000E0101E3
:10166800AB6F000E0101AC6F000E0101AD6F000EF3
:101678000101AE6F000E0101AF6F000E0101B06FE6
:10168800000E0101AB6FDC0E0101AC6F450E0101CC
:10169800AD6F000E0101AE6F250E0101AF6F460E52
:1016A8000101B06FABC1B1F0ACC1B2F0ADC1B3F0E4
:1016B8005EEC06F0B1C04DF0B2C04EF0AEC1B1F074
:1016C800AFC1B2F0B0C1B3F05EEC06F0B1C04BF000
:1016D800B2C04CF0D40E0101A06F3E0E0101A16F03
:1016E800000E0101A26F010E0101A36F000E01019E
:1016F800A56F430EA46F000E0101A76F000EA66F21
:1017080022EC0AF0430E586E1200000E126E000E04
:10171800116E09C001F00AC002F00BC003F00CC042
:1017280004F046EC0DF00DC011F00EC012F011508F
:101738001210D8B42BD001D029D009C0D9FF0AC0C3
:10174800DAFF200EDE6E000EDD6E020E0926000E98
:101758000A221106D8A01206EAD718D007C0D9FF66
:1017680008C0DAFF09C0E1FF0AC0E2FFDECFE6FFEA
:10177800DDCFE5FF020E0726000E0822020E09261D
:10178800000E0A220B06D8A00C0600D007C0D9FF0D
:1017980008C0DAFFDE50DE10D8B412000B500C106F
:1017A800D8B41200DBD7120012000EAE17D00CC04E
:1017B80012F00DC013F00EC014F0121E131E141EEA
:1017C800122A000E13221422000E12240C6E000E90
:1017D80013200D6E800E14200E6E00D011AE17D09F
:1017E8000FC012F010C013F011C014F0121E131E17
:1017F800141E122A000E13221422000E12240F6E39
:10180800000E1320106E800E1420116E00D0000EF2
:101818000C1A000E0D1A800E0E1A000E0F1A000E6A
:10182800101A800E111A0F500C5C10500D581150E0
:101838000E58D8B002D0D8901200D88012001200EA
:1018480003EE00F0A00EEE6AE806FDE102EE00F0FD
:10185800F00EEE6AE806FDE101EE00F0A00EEE6A79
:10186800E806FDE100EEB9F0100EEE6AE806FDE1CB
:1018780000EE48F0130EEE6AE806FDE1F40EF66E8F
:10188800210EF76E000EF86E00EEC9F010EE06F0AD
:101898000900F5CFEEFFE550E150FAE1040EF66ECF
:1018A800220EF76E000EF86E0900F5CF5BF0000E01
:1018B800F86E0001E2EF03F00001C1510001D8A465
:1018C80013D0000EC2EC0FF0010EB6EC0FF0640E50
:1018D8000001B56F000EB66F000EB76F000EB86F3F
:1018E80094EC0CF0010E12D0010EC2EC0FF0000EB9
:1018F800B6EC0FF0640E0001B56F000EB66F000E67
:10190800B76F000EB86F94EC0CF0000E0001C16FB9
:1019180000D0000EC2EC0FF0000EB6EC0FF0120073
:10192800000E0101A16F000EA26F000EA36F000E42
:10193800A46F0FD0010E0001B26FD20EB16F5FEC31
:101948000EF0010E0101A127000EA223A323A42358
:1019580000D00001B5510101A15D0001B65101019E
:10196800A2590001B7510101A3590101A451800AEC
:101978000101A06F0001B851800A0101A059D8A047
:10198800D9D71200000E0001B66F000EB56F000E19
:101998000001B66F000EB56F15D0D8900001B535AF
:1019A800D96E0001B635DA6E0001B151D9260001B1
:1019B800B251DA22000EDE6E000EDD6E0001B54B6C
:1019C800B62B00D00001B3510001B55D0001B45140
:1019D8000001B659D8A0E1D71200000E0001856FAA
:1019E800000E846F000E0001856F000E846F15D005
:1019F800D89000018435D96E00018535DA6E000172
:101A08008051D92600018151DA22000EDE6E000EC7
:101A1800DD6E0001844B852B00D00001825100014E
:101A2800845D0001835100018559D8A0E1D71200D7
:101A3800000E0101AA6F000EA96F11D0320E00012D
:101A4800B56F000EB66F000EB76F000EB86F94EC4E
:101A58000CF0100E8B1A0101A94BAA2B00D0A5C1BE
:101A6800A7F1A6C1A8F1D8900101A737A8370101AD
:101A7800A7510101A95D0101A8510101AA59D8A0E6
:101A8800DDD71200000E066E000E056E000E066E03
:101A9800000E056E10D0D8900534D96E0634DA6E73
:101AA8000150D9260250DA22000EDE6E000EDD6EDD
:101AB800054A062A00D00350055C04500658D8A0F1
:101AC800EAD71200010E22EC10F0020EA2EC0DF083
:101AD800000E0001B16F020E0001B26F000E00018E
:101AE800B46F3C0EB36FC6EC0CF0010E16EC10F0A0
:101AF800F08CF08EF18AF198010E80EC0FF0120054
:101B0800000E896E000E8A6E000E8B6EC150F00BAF
:101B18000D09C16E94809482928092829294929AD6
:101B280093829384939694949486948A94989380B9
:101B38009388938A9286949C949E12000001B16FB8
:101B48000001B1510001D8A403D08B9C8B9E1200D8
:101B58000001B105D8A403D08B8C8B9E1200020E15
:101B68000001B119D8A403D08B9C8B8E12008B8CEA
:101B78008B8E1200120081CFB1F00001B1BB0BD0E7
:101B88000001BF51D8A402D0010E556E010E00010C
:101B9800BF6F010E12000001BF05D8A402D0010ECC
:101BA800556E000E0001BF6F000E1200120081CFAB
:101BB800B1F00001B1A90BD00001C251D8A402D0E4
:101BC800010E566E010E0001C26F010E12000001D7
:101BD800C205D8A402D0010E566E000E0001C26FD5
:101BE800000E1200120081CF01F001A80BD00001F5
:101BF800C251D8A402D0010E566E010E0001C26F68
:101C0800010E12000001C205D8A402D0010E566EC2
:101C1800000E0001C26F000E1200120081CF01F009
:101C280001BA0BD00001BF51D8A402D0010E556EE5
:101C3800010E0001BF6F010E12000001BF05D8A4FC
:101C480002D0010E556E000E0001BF6F000E12008B
:101C58001200C7EC10F066EC0DF0CEEC10F08EEC34
:101C68000FF0F6EC10F0FDEC10F001EC11F0E2ECE6
:101C78000EF0BFEC0DF0DBEC0DF0F290D08EF28E92
:101C8800F28C12000001B36F000EF2EC0FF00F0E91
:101C98000001B319D8A406D0CF0ECD16010E53EC0F
:101CA8000FF006D0300ECD12000E53EC0FF000D01E
:101CB80075EC0EF01200000E0001B46F000EB36F49
:101CC80005D000F00001B34BB42B00D00001B15196
:101CD8000001B35D0001B2510001B459D8A0F1D799
:101CE8001200000ECDB0010E0001B26F000EF2EC32
:101CF8000FF0000ECF6E020ECE6E0001B251000141
:101D0800D8B41200010EF2EC0FF012001200000E0F
:101D1800D5BE010E0001B26F000E0AEC10F0000EE5
:101D2800D76E020ED66E0001B2510001D8B412006F
:101D3800010E0AEC10F012001200000ED5BE010EC2
:101D48000001816F000E52EC10F0000ED76E020EEB
:101D5800D66E000181510001D8B41200010E52EC78
:101D680010F01200120088C080F089C081F00001D4
:101D7800826B8E0E0001836F000E0001846F07ECEA
:101D880007F080C088F081C089F082C08AF0120014
:101D98001200000ECAB4010E026E000E91EC10F093
:101DA800000E526E000E516E000ECC6E0250D8B46A
:101DB8001200010E91EC10F012001200C19AC198A5
:101DC800C08EC086C088C08AC050F80B0609C06E95
:101DD8009F9CF6EC0EF0010E46EC10F0010E3AEC6A
:101DE80010F012000A0E5B18D8A407D00B0E5B6E19
:101DF800C250C30B0409C26E12000A0E5B6EC29475
:101E0800C296C298C29A12001200000ECDB0010EFE
:101E1800026E000EA3EC10F0000ECF6E020ECE6E16
:101E28000250D8B41200010EA3EC10F012001200F8
:101E38000A0E5B18D8A407D00B0E5B6EC250C30BFA
:101E48000409C26E12000A0E5B6EC294C296C29852
:101E5800C29A1200120009C001F00AC002F0036A17
:101E68008E0E046E000E056EBFEC09F001C009F07D
:101E780002C00AF003C00BF012001200000E0AECB8
:101E880010F08BEC0EF0D59CD59AD596D550F80B62
:101E98000509D56EF184010EFEEC0FF01200000169
:101EA800B16F0001B1510001D8B404D0CD8CCD86FA
:101EB800CD821200CD9CCD96CD9212001200000E5C
:101EC800DAEC0FF0CA86CA88CA8ACA8C030ECA120C
:101ED8009F92CB68010ECEEC0FF01200000EF2ECD0
:101EE8000FF075EC0EF0CD8E100E46EC0EF09F90B4
:101EF800010EE6EC0FF012000001B16F0001B151C4
:101F08000001D8B403D0F086F0881200F096F0985B
:101F180012001200000E0001B16F030E0001B26F33
:101F2800000E0001B46F500EB36FC6EC0CF0120037
:101F38000001B16F0001B1510001D8B403D0949AE7
:101F48008B9A1200948A12001200000E91EC10F085
:101F580003C04FF004C050F0CDEC0EF0010E91EC30
:101F680010F012000001B16F0001B1510001D8B4A6
:101F780002D08B8412008B94120012000001B16F02
:101F88000001B1510001D8B402D08A8612008A96A5
:101F9800120012000001B16F0001B1510001D8B464
:101FA80002D09D8212009D92120012000001B16FB2
:101FB8000001B1510001D8B402D0CA841200CA94F9
:101FC800120012000001B16F0001B1510001D8B434
:101FD80002D09D8012009D90120012000001B16F86
:101FE8000001B1510001D8B402D0CD801200CD90CB
:101FF800120012000001B16F0001B1510001D8B404
:1020080002D0F28A1200F29A120012000001B16F97
:102018000001B1510001D8B402D0D58E1200D59E6E
:10202800120012000001B16F0001B1510001D8A4E3
:1020380002D0898A1200899A120012000001B16F39
:102048000001B1510001D8A402D0898412008994FA
:10205800120012000001B16F0001B1510001D8B4A3
:1020680002D0F2861200F296120012000001B16F3F
:102078000001B1510001D8B402D0C2801200C29050
:10208800120012000001B16F0001B1510001D8B473
:1020980002D09D8C12009D9C120012000001806FDE
:1020A800000180510001D8B402D0D58E1200D59E0F
:1020B80012001200016E0150D8B403D0F086F088E7
:1020C8001200F096F09812001200000E016E030E36
:1020D800026E000E046E500E036E46EC0DF01200F8
:1020E800000E5EEC10F0000EB5EC10F0000EACEC3B
:1020F80010F01200F090F092F294010E5EEC10F0E5
:10210800010EB5EC10F01200016E0150D8B402D0E7
:10211800F2861200F29612001200016E0150D8B435
:1021280002D0CA841200CA9412001200000EA3EC56
:1021380010F009EC0FF0010EA3EC10F01200016E84
:102148000150D8B402D0CD801200CD9012001200F8
:10215800016E0150D8B402D0D58E1200D59E12005F
:102168001200016E0150D8B402D0F28A1200F29A1D
:1021780012001200000E52EC10F0A1EC0EF0010E4D
:1021880052EC10F0120042EC0FF072EC0FF063EC1E
:102198000FF01200F190BFEC0DF0010E2EEC10F0D4
:1021A8001200CDA002D0010E1200000E1200120083
:1021B800000E596E000E576E7EEC10F01200D5AE70
:1021C80002D0010E1200000E12001200000E0001D3
:1021D800C76F000E0001C46F12009B8C00D0D3A6FD
:1021E800FED71200000E9CEC0FF012000090405C2D
:0E21F8005C0800F01200C282120012000A0001
:103ECA000050434220726576410098216810C20171
:103EDA00B004C201C201C201B004C201B004C201ED
:103EEA00C201C201B004C201C201C201B004C201CE
:103EFA00C201C201B004C201C201C201C201C201AF
:103F0A00B004C201C201C201B004C201C201C201AD
:103F1A00C201C201B004C201C201C201B004C2019D
:103F2A00C201C201C201C201C201C201C201C2016F
:103F3A00B004C201C201C201B004C201C201C2017D
:103F4A00B004C201B004C201B004C201B004C2018B
:103F5A004203150050001600500015004E004F0095
:103F6A001A0016004E004E001B0015004F004C00B0
:103F7A00190017004F004B001B00150051004B00A1
:103F8A0019001600510016004F00160050001800C4
:103F9A004F004D0019004C001B0015005000150081
:103FAA00510015005000160050001600510016006E
:103FBA004F00160000803F72313FFE753E58633D48
:103FCA00951D3CC5AE3A79213994803793A7355669
:103FDA00153400000000803FF0FFBEE2A93E837660
:0E3FEA00BEAE2B3E3CC3BDD2133D78D3BB0010
:063FF800A0F405FFFFF13B
:00000001FF
