:0400000096EF00F087
:10000800FACF17F0FBCF18F0E9CF19F022EF02F082
:10001800D8CF05F0E8CF06F0E0CF07F0FACF08F028
:10002800FBCF09F0E9CF0AF0EACF0BF0E1CF0CF0F3
:10003800E2CF0DF0D9CF0EF0DACF0FF0F3CF10F0FA
:10004800F4CF11F0F6CF12F0F7CF13F0F8CF14F089
:10005800F5CF15F0F2A026D052EC03F0166E3E5004
:10006800D8B41BD01650D8B415D04404D8A402D0A4
:10007800010E3F6E000E446ED4EC03F00009D8B4B4
:1000880009D00F0E436E000E046E050E036E8EEC43
:1000980003F000D0000E3E6E03D0E1EC03F000D078
:1000A800F2901DD09EA219D038503A5C39503B5876
:1000B800D8A00ED0000ECBEC03F00F0E4318D8A436
:1000C80005D0010E446E000E436E05D000F003D03B
:1000D8003A4A3B2A00D09E9202D000F000D015C0C8
:1000E800F5FF14C0F8FF13C0F7FF12C0F6FF11C0E8
:1000F800F4FF10C0F3FF0FC0DAFF0EC0D9FF0DC028
:10010800E2FF0CC0E1FF0BC0EAFF0AC0E9FF09C02B
:10011800FBFF08C0FAFF07C0E0FF06C0E8FF05C004
:08012800D8FF10000BEF03F0FB
:100400000050434220726576410000803F72313FC8
:10041000FE753E58633D951D3CC5AE3A7921399431
:10042000803793A73556153400000000803FF0FF59
:10043000BEE2A93E8376BEAE2B3E3CC3BDD2133D89
:1004400078D3BB00EACF1AF0E1CF1BF0E2CF1CF06B
:10045000D9CF1DF0DACF1EF0F3CF1FF0F4CF20F08C
:10046000F6CF21F0F7CF22F0F8CF23F0F5CF24F02C
:1004700024C0F5FF23C0F8FF22C0F7FF21C0F6FF1C
:1004800020C0F4FF1FC0F3FF1EC0DAFF1DC0D9FF5C
:100490001CC0E2FF1BC0E1FF1AC0EAFF19C0E9FF60
:1004A00018C0FBFF17C0FAFF11004050D8A412D0AB
:1004B000000EB0EC03F0010EA7EC03F0640E296E01
:1004C000000E2A6E000E2B6E000E2C6E84EC02F0D5
:1004D000010E11D0010EB0EC03F0000EA7EC03F0FA
:1004E000640E296E000E2A6E000E2B6E000E2C6E0E
:1004F00084EC02F0000E406E00D0000EB0EC03F071
:10050000000EA7EC03F01200000E2E6E000E2F6EF0
:10051000000E306E000E316E0DD0000E266EA20E53
:10052000256E7EEC03F0010E2E26000E2F223022C7
:10053000312200D029502E5C2A502F582B50305891
:100540003150800A2D6E2C50800A2D58D8A0E5D746
:100550001200E8EC03F0EDEC02F024EC03F0000EE6
:10056000336E0F0E326ECBEC02F08B9800D04250FF
:10057000D8A406D04150D8A403D03F50D8B4F7D760
:1005800055EC02F0000E426E000E416E000E3F6E02
:10059000EED796EF00F0000E376E000E366E0FD0DD
:1005A000320E296E000E2A6E000E2B6E000E2C6E7F
:1005B00084EC02F0100E8B1A364A372A00D032C073
:1005C00034F033C035F0D890343635363450365C9C
:1005D00035503758D8A0E4D71200000E896E000EAF
:1005E0008A6E000E8B6EC150F00B0D09C16E9480A7
:1005F0009482928092829294929A93829384939618
:1006000094949486949A949893809388938A9286EB
:10061000949C949E120000EE38F00C0EEE6AE806F0
:10062000FDE1D80EF66E070EF76E000EF86E0900AB
:10063000F5CF44F00900F5CF45F0000EF86E040E3A
:10064000F76E0001A9EF02F0E5EC03F0EDEC03F02A
:10065000DCEC03F0EFEC03F0EEEC03F0EAEC03F07B
:10066000F0EC03F0F1EC03F03BEC03F0F290D08EF1
:10067000F28EF28C120081CF25F025BA09D04550B8
:10068000D8A402D0010E3E6E010E456E010E12007E
:100690004504D8A402D0010E3E6E000E456E000E39
:1006A0001200120081CF01F001BA09D04550D8A440
:1006B00002D0010E3E6E010E456E010E1200450481
:1006C000D8A402D0010E3E6E000E456E000E120040
:1006D0001200000ECAB4010E026E000ECBEC03F045
:1006E000000E3B6E000E3A6E000ECC6E0250D8B477
:1006F0001200010ECBEC03F012001200000E286E67
:10070000000E276E04D000F0274A282A00D025507A
:10071000275C26502858D8A0F6D71200000ECBEC44
:1007200003F003C038F004C039F069EC03F0010EA7
:10073000CBEC03F01200CA86CA88CA8ACA8C030EA0
:10074000CA129F92CB68010EB9EC03F01200256E1D
:100750002550D8B402D08B8412008B941200120062
:10076000256E2550D8B402D08A8612008A961200CF
:100770001200256E2550D8B402D09D8212009D92A1
:1007800012001200256E2550D8B402D0F286120055
:10079000F29612001200016E0150D8B402D0CA8441
:1007A0001200CA94120012004350D8A402D0010EC5
:1007B0001200000E12001200F190010EC2EC03F0C4
:1007C000120081CF01F0120012009BEC03F0120026
:1007D00000F0120000F012000101120012001200DD
:0407E00012001200F1
:063FF800A0F005FFFFF13F
:00000001FF
